:10000000A9C00000CEC00000CCC00000CAC00000E3
:10001000C8C00000C6C00000C4C000000C944C1C46
:10002000C0C00000BEC00000BCC000000C94621E36
:10003000B8C00000B6C00000B4C00000B2C00000EC
:10004000C1C00000AEC000000C9435180C946718B5
:10005000A8C00000A6C00000A4C00000A2C000000C
:10006000A0C000009EC00000640B700B8E0BCF0B75
:10007000080C730D730D730D730D730D730D730DEC
:10008000730D5E0C920C960CBF0CE10C020D250D4D
:100090004C0D20005E4300737461727420746865B7
:1000A0002070726F6772616D20696E2045455052F5
:1000B0004F4D0054696E792043206C616E67756105
:1000C000676520696E74657270726574657220660A
:1000D0006F722041726475696E6F2C20436F707966
:1000E00072696768742032303136204B656E526F0A
:1000F000626F7400020000000800020100000304A7
:100100000700000000000000000102040810204069
:1001100080010204081020010204081020040404D5
:1001200004040404040202020202020303030303A0
:100130000300000000230026002900000000002525
:100140000028002B0000000000240027002A0000E7
:10015000020B951811241FBECFEFD8E0DEBFCDBF34
:1001600015E0A0E0B1E0ECE1F9E402C005900D92E9
:10017000AC3DB107D9F727E0ACEDB5E001C01D9269
:10018000A936B207E1F711E0C4E5D1E004C0229737
:10019000FE010E94DF20C035D107C9F708D00C94BA
:1001A0008C242ECF0C9427140C942C140895BAD0C0
:1001B000FDDFF8DFC0E2D7E1F7DF2097E9F30E9427
:1001C0002017FACF1F920F920FB60F9211242F9380
:1001D0003F938F939F93AF93BF938091DD05909151
:1001E000DE05A091DF05B091E0053091DC0523E04C
:1001F000230F2D3720F40196A11DB11D05C026E85F
:10020000230F0296A11DB11D2093DC058093DD050F
:100210009093DE05A093DF05B093E0058091E105A2
:100220009091E205A091E305B091E4050196A11D2E
:10023000B11D8093E1059093E205A093E305B0938F
:10024000E405BF91AF919F918F913F912F910F90B6
:100250000FBE0F901F9018952FB7F8946091DD0591
:100260007091DE058091DF059091E0052FBF089524
:100270003FB7F8948091E1059091E205A091E305E4
:10028000B091E40526B5A89B05C02F3F19F0019653
:10029000A11DB11D3FBF6627782F892F9A2F620FAE
:1002A000711D811D911D42E0660F771F881F991FE8
:1002B0004A95D1F708958F929F92AF92BF92CF92B5
:1002C000DF92EF92FF926B017C01D2DF4B015C0168
:1002D000C114D104E104F104E1F05FD0C9DF681971
:1002E00079098A099B09683E73408105910580F36D
:1002F00021E0C21AD108E108F10888EE880E83E0F7
:10030000981EA11CB11CC114D104E104F10431F701
:10031000DFCFFF90EF90DF90CF90BF90AF909F9096
:100320008F900895789484B5826084BD84B581608F
:1003300084BD85B5826085BD85B5816085BDEEE6ED
:10034000F0E0808181608083E1E8F0E010828081CC
:1003500082608083808181608083E0E8F0E080813A
:1003600081608083E1EBF0E0808184608083E0EB5A
:10037000F0E0808181608083EAE7F0E08081846042
:10038000808380818260808380818160808380819E
:10039000806880831092C1000895089568177907D6
:1003A0000CF4CB010895861797070CF4CB01089540
:1003B000FC012081222369F08617970750F4203230
:1003C00011F40196F5CF37EF320F3230D0F32D30E4
:1003D000C1F30895BC0181E996E00C943919CF93DB
:1003E000DF93EC014AE050E0BC0181E996E00E9415
:1003F000FF19CE01DF91CF9108952FEF3FE740E045
:1004000050E060E070E0CB010E94C91CCB01089570
:10041000BC0181E996E00C9454198F3F2FEF9207AD
:1004200029F00A9731F48AE793E005C08EE593E05E
:1004300002C08DE693E0ECCF0FDFCB010895EF9281
:10044000FF920F931F93CF93DF931F92CDB7DEB729
:100450007C0121E030E002C0220F331F8A95E2F7D1
:1004600080912C0690912D0682239323890100957B
:100470001095892BC1F0F701E25DF94F808125E0ED
:10048000829FC001112484519A4F69830E94B91F31
:1004900080912C0690912D068023912390932D0618
:1004A00080932C0669818E2D0E94051E80915A062C
:1004B00090915B068023912390935B0680935A066C
:1004C00080E090E00F90DF91CF911F910F91FF900E
:1004D000EF90089521E030E0082E02C0220F331F74
:1004E0000A94E2F72095309540915A0650915B06A8
:1004F0004223532350935B0640935A060C943A1EB2
:10050000CF92DF92FF920F931F93CF93DF931F92AF
:10051000CDB7DEB78C01F62ECC24C394D12C002E9F
:1005200002C0CC0CDD1C0A94E2F780912C0690915D
:100530002D068C219D21892BD9F0F801E25DF94F20
:10054000808125E0829FC001112484519A4F7983D4
:100550000E94B91F80912C0690912D06960120953E
:1005600030958223932390932D0680932C067981D6
:100570006F2D802F0E94461D80915A0690915B0638
:100580008C299D2990935B0680935A06F801E65BBF
:10059000F94FF08280E090E00F90DF91CF911F91B2
:1005A0000F91FF90DF90CF9008950E94391C80E05A
:1005B00090E0089520E030E0A9010E94151A80E043
:1005C00090E008959A01442737FD4095542F0E94EA
:1005D000151A80E090E00895DC01ED91FC91019006
:1005E000F081E02D09940F931F93CF93DF93EC01DB
:1005F000FB0121E030E0062E02C0220F331F0A94D7
:10060000E2F7C9018095909540915A0650915B069A
:100610004823592350935B0640935A068B01025D91
:10062000194FBE016C5E75404DEC5CEC649FC001DF
:10063000659F900D749F900D112465E070E00E94FD
:100640007820D8016C9340912C0650912D06422BB6
:10065000532B50932D0640932C06BF01CE01DF9102
:10066000CF911F910F910C94B41FCF93DF939C01F6
:10067000EB01FC01EC5EF5404DEC5CECE49FC0014D
:10068000E59F900DF49F900D112465E070E00E94AD
:100690007820625C794FFB01C083BE01C901DF9104
:1006A000CF910C94FA1F2F923F924F925F926F92CC
:1006B0007F928F929F92AF92BF92CF92DF92EF92F2
:1006C000FF920F931F93CF93DF93CDB7DEB76E9753
:1006D0000FB6F894DEBF0FBECDBF8C017B015C8FDF
:1006E0004B8FE80EF91ED8012C91222389F00E15AC
:1006F0001F0558F4203219F40F5F1F4FF4CF87EF16
:10070000820F8230C8F32D30B9F30E151F05D9F5CD
:1007100081E090E031C00E151F0578F41216130623
:100720000CF093C6483209F08AC62F5F3F4F0F5F27
:100730001F4FD8014C914111EECFB801681B790BC6
:10074000AE014F5F5F4FAFDF009709F0B9C6FAE225
:10075000DF1609F4A2C62FE2D21295C6898D9A8DB2
:1007600069817A810E948C207A8F698FD8018C915F
:100770008111A1C6898D9A8DEB8DFC8D918380832B
:1007800080E090E09DC6283279F4F801319620810E
:10079000222309F47DC2EE15FF0508F0A2C2203223
:1007A000A9F3293099F39DC2213231F4D801119671
:1007B0008C918D3339F416C02E3721F02D3211F083
:1007C0002B3281F40F5F1F4FF8018081882309F4D9
:1007D0005FC20E151F0508F09DC2803299F3893063
:1007E00089F398C280ED820F8A3008F08DC02033E3
:1007F00009F06AC0F8018181883709F046C01A8E75
:10080000198E0E5F1F4F80E090E0D8012C912223BB
:1008100009F4BCC10E151F0508F0B8C130ED320F48
:100820003A3058F464E0880F991F6A95E1F733274E
:1008300027FD30952053310914C04FE9420F322F64
:100840003F7D3154363008F0A1C1463078F454E091
:10085000880F991F5A95E1F7332727FD30952755C3
:100860003109820F931F0F5F1F4FCFCF3FEB320F26
:100870003630C8F744E0880F991F4A95E1F73327CF
:1008800027FD309527533109ECCF8236E9F41A8ED3
:10089000198E0E5F1F4F80E090E0F801208130ED4F
:1008A000320F323008F072C10E151F0508F06EC10C
:1008B000880F991F332727FD3095205331090F5F8B
:1008C0001F4F820F931FE9CF1A8E198E80E090E0A0
:1008D0004AE0D8012C910E151F0508F057C130EDE4
:1008E000320F3A3008F052C1BC01469FC001479F09
:1008F000900D1124332727FD3095205331090F5FC8
:100900001F4F820F931FE5CF822F8F7D81548A3135
:1009100040F0B3E7CB2EB5E0DB2E4701801A910AF9
:1009200027C0F80181818F7D81548A3190F38FE94E
:10093000820F332727FD30958A3118F4215631096B
:1009400002C021543109F901EE0FFF1FE35AF94F9C
:10095000808191819A8F898F27C1D6011296AD909F
:10096000BC9013978A149B044CF4F6E0CF0ED11C74
:100970002BEBC21625E0D20681F710C043E050E011
:10098000B8018D919C910E949B21892B71F7F601F2
:10099000848195819A8F898F0A0D1B1DE3E4CE2EE9
:1009A000E5E0DE2E0BC0D6011296AD90BC901397F9
:1009B0008A149B0464F4B6E0CB0ED11C4701801A64
:1009C000910AE3E7CE16E5E0DE0669F73EC0A50131
:1009D000B8018D919C910E949B21892B61F70A0D92
:1009E0001B1DC80121E030E0F8014081442391F053
:1009F0000E151F0578F42115310581F0483219F4E0
:100A00002F5F3F4F04C0493211F4215031090F5F6D
:100A10001F4FEACF121613060CF43AC1B801681B37
:100A2000790B61507109AE014F5F5F4F3CDE892B3E
:100A300009F02EC1D6011496ED91FC91159789818C
:100A40009A8109959A8F898FB6CF212C312C62E833
:100A5000C62E63E0D62EBE016F5F7F4F2B0172E979
:100A6000A72E73E0B72E3F922F92DF92CF925F9224
:100A70004F920E94B121D2010D900020E9F7FD01B3
:100A800031973F01641875080F900F900F900F90E9
:100A90000F900F908614970444F0A301B801C2018F
:100AA0000E949B21892B09F487C23F922F92BF920B
:100AB000AF925F924F920E94B121D2010D9000201F
:100AC000E9F7FD0131973F01641875080F900F9009
:100AD0000F900F900F900F908614970444F0A3018D
:100AE000B801C2010E949B21892B09F469C23F927F
:100AF0002F92A1EAB3E0BF93AF935F924F920E940F
:100B0000B121D2010D900020E9F7FD0131973F019D
:100B1000641875080F900F900F900F900F900F9022
:100B2000861497040CF420C1A301B801C2010E94ED
:100B30009B21892B09F448C217C10E151F0578F4B3
:100B4000141615060CF0F4C0383209F0EBC04F5FF4
:100B50005F4F0F5F1F4FD8013C913111EECFB801AD
:100B6000681B790BAE01475E5F4F2E8F9CDD2E8D8B
:100B7000892B09F08DC0213209F0E6C081E090E0B8
:100B8000298D3A8D232B11F080E090E09A8F898F88
:100B90002FEF3FEFF8018081882309F467C00E151D
:100BA0001F0538F4803219F40F5F1F4FF3CF8930DF
:100BB000D9F30E151F0509F459C08D3309F45EC22F
:100BC000D801DC90BAE2DB1609F473C2EFE2DE165C
:100BD00009F46FC2F5E2DF1609F46BC2C8012BE21B
:100BE000D21609F470C24DE2D41609F46CC2F801B1
:100BF000B0808B2D8D7F8C3309F4AAC2FDE3BF1228
:100C0000A1C2D80111968C918D3309F4A1C2D801EB
:100C1000DC90B6E2DB1257C3F8018181863209F01D
:100C20005EC3D8012C91263209F0BCC311968C9179
:100C3000863209F053C0C8010296B701681B790BD0
:100C4000AE014F5F5F4F2E8F2EDD2E8D009709F086
:100C500037C4332727FD3095898D9A8D263231058B
:100C600009F4A9C32C37310509F4A8C3898D9A8DDD
:100C7000AB8DBC8D8D939C9383CDEE15FF0540F419
:100C800031964832A1F52F5F3F4F40814111F5CF9A
:100C90008EEF25C00E151F0578F4141615060CF0FE
:100CA000A9C3683209F0A0C34F5F5F4F0F5F1F4FAA
:100CB000F80160816111EECFB801681B790BAE01BC
:100CC0004F5F5F4F2E8F3D8FEEDC2E8D3D8D009759
:100CD00009F0F6C32433310508F494C38DEF9FEF78
:100CE000EFC3CF012932A1F221E030E0CECF49326B
:100CF00061F62150310949F68F01BF01681B790B5C
:100D000061507109AE01475E5F4FCDDC009709F479
:100D10003FCFD6C3C8010E151F0509F4B9CF40E077
:100D200050E019CF393209F014CF4150510911CF99
:100D30003B3209F414CF3D3209F411CF64EC630F58
:100D4000633008F001CF0BCF2E3729F4898D9A8DAF
:100D5000809590951BCF2D3209F01ACF898D9A8DF1
:100D600091958195910912CFBFEF2B1A3B0AECE0C8
:100D70002E16310409F077CE5FE1852E55E0952ED1
:100D80005701A01AB10AE3E48E16E5E09E0609F4C5
:100D900079C0D4011296CD90DC901397AC14BD04A9
:100DA0000CF46CC0A601B8018D919C910E949B210E
:100DB000892B09F063C0C8018C0D9D1D5C0120E0EA
:100DC00030E0F5014081442309F462CFAE14BF0442
:100DD00010F52115310569F0483219F42F5F3F4FA6
:100DE00004C0493211F421503109BFEFAB1ABB0ADC
:100DF000E8CF4C3289F7B501681B790BAE014B5E29
:100E00005F4F51DC892B09F043CFC50101968C015E
:100E100021E030E00FC04C3271F33ACF0E151F05C0
:100E200098F42115310599F0483249F42F5F3F4F6E
:100E30000F5F1F4FD8014C914111F0CF05C04932CF
:100E4000B9F721503109F4CF232B09F021CFB80194
:100E5000681B790B61507109A20125DC892B09F00F
:100E600017CF69817A81D4011496ED91FC91159781
:100E70008D899E8909959A8F898F04C0B6E08B0E63
:100E8000911C81CFC701801B910B05970CF480CE7C
:100E900045E050E0B80181EB93E00E949B21892B53
:100EA00009F076CEC80105966C0120E030E0D6014D
:100EB0004C91442309F4ECCECE14DF0410F5211537
:100EC000310569F0483219F42F5F3F4F04C04932B1
:100ED00011F421503109FFEFCF1ADF0AE8CF4C326D
:100EE00089F7B601681B790BAE01495E5F4FDBDB0A
:100EF000892B09F0CDCEC60101968C0120E030E0AF
:100F00000FC04C3271F3C4CE0E151F0538F52115F4
:100F1000310581F0483249F42F5F3F4F0F5F1F4F7B
:100F2000F80140814111F0CFB3CE4932B9F72150D9
:100F30003109F4CF4C3271F7B801681B790B61505D
:100F40007109AE014B5E5F4FAEDB892B09F0A0CE7D
:100F5000C80101968C0121E030E00FC04C3261F3F2
:100F600097CE0E151F0598F42115310599F04832DA
:100F700049F42F5F3F4F0F5F1F4FD8014C91411134
:100F8000F0CF05C04932B9F721503109F4CF232BF6
:100F900009F07ECEB801681B790B61507109A2017E
:100FA00082DB892B09F074CE49815A816D897E8953
:100FB0008F89988D07DBEACDCC24C394D12C07C050
:100FC00022E0C22ED12C03C093E0C92ED12C060DF5
:100FD000171DC80121E030E0D8014C91442391F065
:100FE0000E151F0578F42115310579F0483219F4F2
:100FF0002F5F3F4F04C0493211F4215031090F5F78
:101000001F4FEACF232B09F043CEB801681B790BA1
:1010100061507109AE014B5E5F4F45DB892B09F0D2
:1010200037CEB1E0CB16D10461F46D897E8925E01D
:10103000229DC001239D900D112484519A4FD3DA33
:101040001AC0E2E0CE16D10461F46D897E8925E0F4
:10105000229DC001239D900D112484519A4F05DBE0
:101060000AC025E0229DC001239D900D11248451CA
:101070009A4F0E94B91F1A8E198E7ECEF801818177
:101080008D3309F49DCD0F5F1F4FD8018C918823BC
:1010900009F4FECD0E151F0508F09EC1803299F3AC
:1010A000893089F399C10E151F0508F0C0C180323F
:1010B00039F40F5F1F4FF80180818111F4CFE8CD23
:1010C0008930B9F3B4C120E030E00CC00E151F0523
:1010D00068F4121613069CF4483261F42F5F3F4FF8
:1010E0000F5F1F4FD8014C914111F0CF232B09F016
:1010F000CFCD0CC04932A1F721503109F1CF54ECCA
:10110000540F533098F3413239F7F0CFB801681BD0
:10111000790BAE014F5F5F4FC6DA009709F0D0C17F
:10112000898D9A8D29813A81820F931F9A8F898F99
:10113000F8012081222309F49BCD0E151F0509F02B
:1011400056CD96CDB1E2BB1262CDF80181815CCD66
:10115000D8011196CC90DD24C7FCD094C601CC9761
:10116000039718F0C801019602C0C80102968C01CD
:1011700020E030E0F8014081411104C0232B09F048
:1011800087CD19C00E151F05C8F71216130664F493
:10119000483219F42F5F3F4F04C0493211F42150F7
:1011A00031090F5F1F4FE6CF463241F34E3531F321
:1011B0004C3771F7E3CFB801681B790BAE014F5F75
:1011C0005F4F71DA009709F07BC18B2D992787FD5E
:1011D00090958E33910509F5898D9A8DFDE3CF1693
:1011E000D10441F421E030E049815A818417950708
:1011F000CCF536C02EE3C216D10439F4098002C002
:10120000959587950A94E2F752C021E030E0498134
:101210005A814817590734F123C08C33910529F5B9
:10122000898D9A8D4DE3C416D10441F421E030E05C
:1012300049815A8148175907ACF412C06CE3C616AD
:10124000D10439F4098002C0880F991F0A94E2F78B
:101250002EC021E030E049815A818417950714F0AF
:1012600020E030E03A8F298F24C08D33910571F44E
:101270007DE3C716D104E9F481E090E0498D5A8DF1
:1012800029813A814217530781F411C0819789F46B
:101290008DE3C816D10469F481E090E0498D5A8D40
:1012A00029813A814217530711F480E090E09A8F28
:1012B000898FD8018C91882309F45CCA0E151F050B
:1012C00009F0A5CC57CAFCE7DF1206C0D801119679
:1012D0008C918C3721F4A5CCBEE5DB12A2CCC801E1
:1012E00001968C0120E030E0F8014081411104C0FA
:1012F000232B09F0CDCC1FC00E151F05C8F7121601
:10130000130664F4483219F42F5F3F4F04C049328A
:1013100011F4215031090F5F1F4FE6CF463221F4FF
:1013200041814632C1F7E4CF4C3761F7F801418182
:101330004C3789F7DDCFB801681B790BAE014F5FE1
:101340005F4FB1D9009709F0BBC08D2D992787FD5C
:1013500090958632910539F4898D9A8D29813A814B
:101360008223932313C08C37910539F4898D9A8D8C
:1013700029813A81822B932B09C08E35910541F446
:10138000898D9A8D29813A81822793279A8F898F17
:10139000D8018C91882309F4EDC90E151F0509F0B9
:1013A00040CCE8C92C3709F099CCF80181818C3701
:1013B00009F441CC93CC892B41F002C0892B39F43C
:1013C00081E029813A81232B19F480E001C081E07A
:1013D00090E09A8F898F4ACCC8010E151F0509F439
:1013E00057CC40E050E064CC693209F05FCC41500A
:1013F00051095CCC6D3309F054CC61816D3309F037
:1014000055CC5ACC89819A81F901EE0FFF1FE35A1E
:10141000F94F918380839A8F898FF801208122234D
:1014200009F426CC0E151F0509F0CACB21CCC80142
:101430000E151F0509F42CCC20E030E07AC94932A2
:1014400009F075C92150310972C956ED540F523057
:1014500008F473C94F3209F470C9542F577F5532BD
:1014600009F46BC9542F5D7F5C3309F466C94D33B1
:1014700031F4F80141814D3309F059C95EC9413257
:1014800009F050C95AC945E2D41270C9898D9A8DA4
:1014900069817A810E948C200BC0498D5A8D2981E7
:1014A0003A81429FC001439F900D529F900D11249D
:1014B0009A8F898F5BC90E151F0509F081CB5AC918
:1014C0006E960FB6F894DEBF0FBECDBFDF91CF9101
:1014D0001F910F91FF90EF90DF90CF90BF90AF9052
:1014E0009F908F907F906F905F904F903F902F9044
:1014F00008958E3008F08E5021E030E0082E01C0B3
:10150000220F0A94EAF7209590915C06922390931B
:101510005C060C94291DEDCFEF92FF920F931F9361
:10152000CF93DF93EC018B0181E090E00C2E02C0A1
:10153000880F991F0A94E2F77C01E094F0942091BF
:101540005A0630915B062E213F2130935B06209393
:101550005A0620912C0630912D0628233923232B5F
:10156000B1F0FE01E25DF94F808125E0829FC0016C
:10157000112484519A4F0E94B91F80912C0690919A
:101580002D068E219F2190932D0680932C060230EC
:10159000110541F460E08C2F0E94CC1D8C2F8E50E1
:1015A000A8DF1BC00115110511F460E004C0013073
:1015B000110521F461E08C2F0E94CC1D2E97C630BE
:1015C000D10558F481E090E001C0880FCA95EAF790
:1015D00090915C06982B90935C0680E090E0DF9100
:1015E000CF911F910F91FF90EF900895AB01E09183
:1015F0009106F09192060280F381E02DBC0181E911
:1016000096E00994CF93DF93CCEED5E0CE010E9413
:101610001C1F259686E0C832D807C1F7DF91CF910D
:1016200008950F931F93CF93DF93182F092FEB018A
:1016300080912806882321F16FE770E081E996E028
:101640000E94EC026EE070E081E996E00E94EC02FC
:10165000602F81E996E00E946F17612F81E996E083
:101660000E946F176D2F81E996E00E946F176C2F13
:1016700081E996E0DF91CF911F910F910C946F1744
:10168000DF91CF911F910F91089581E996E00C941D
:10169000F316CF92DF92EF92FF920F931F93CF93A7
:1016A000DF9381E996E00E94F316892BD1F381E95B
:1016B00096E00E940C178531910508F014C2FC01D8
:1016C000EC5CFF4F0C94DD206FE781E996E00E940F
:1016D0006F1760E081E996E00E946F1760E053C0E9
:1016E0006FE781E996E00E946F1761E081E996E07B
:1016F0000E946F17CDE5D6E08E01698181E996E001
:101700000E946F172296F801608181E996E00E949D
:101710006F17F6E0C139DF0779F7E5C16FE770E0D1
:1017200081E996E00E94EC0262E070E081E996E0D7
:101730000E94EC026AB181E996E00E946F176BB1DA
:1017400081E996E00E946F1769B181E996E00E94F5
:101750006F1764B181E996E00E946F1765B181E966
:1017600096E00E946F1763B181E996E00E946F17BF
:1017700067B181E996E00E946F1768B181E996E050
:101780000E946F1766B181E996E0DF91CF911F91BA
:101790000F91FF90EF90DF90CF900C946F176FE751
:1017A00070E081E996E00E94EC0263E070E081E97C
:1017B00096E00E94EC0260915C0681E996E00E944E
:1017C0006F17C0E0D0E080915C0690E00C2E02C064
:1017D000959587950A94E2F780FF07C060E081E95C
:1017E00096E00E946F1760E00AC08C2F0E94291DAE
:1017F000182F692F81E996E00E946F17612F81E908
:1018000096E00E946F172196C630D105E1F66BC1B4
:101810006FE770E081E996E00E94EC0264E070E01E
:1018200081E996E00E94EC0260915B0681E996E016
:101830000E946F1760915A0681E996E00E946F1727
:1018400060912D0681E996E00E946F1760912C0649
:1018500081E996E00E946F17C0E0D0E001E010E05F
:1018600098010C2E02C0220F331F0A94E2F78091D8
:101870005A0690915B0682239323892B21F0FE0167
:10188000E65BF94F0FC080912C0690912D068223C4
:101890009323892B49F0FE01E25DF94FE081F0E0EE
:1018A000E25CF94F608101C060E081E996E00E944E
:1018B0006F172196C031D10599F615C16FE770E019
:1018C00081E996E00E94EC026DE070E081E996E02B
:1018D0000E94EC026091E6057091E70561157105C3
:1018E00099F0FB0101900020E9F7AF014150510947
:1018F000461B570BE0919106F09192060280F3810E
:10190000E02D81E996E009956FE770E081E996E0C6
:10191000DF91CF911F910F91FF90EF90DF90CF90CB
:101920000C94EC0281E080932806DDC00E942C011B
:101930006B017C016FE770E081E996E00E94EC02A8
:101940006FE070E081E996E00E94EC026F2D77274E
:101950008827992781E996E00E946F17B7018827A9
:10196000992781E996E00E946F1799278F2D7E2D88
:101970006D2D81E996E00E946F176C2D04CF81E9EF
:1019800096E00E94F316892BD1F381E996E00E943C
:101990000C17C82F81E996E00E94F316892BD1F32A
:1019A00081E996E00E940C17BC0177278C2F90E00C
:1019B000DF91CF911F910F91FF90EF90DF90CF902B
:1019C000ABCD81E996E00E94F316892BD1F381E932
:1019D00096E00E940C17C82F81E996E00E94F3164A
:1019E000892BD1F381E996E00E940C17682F8C2F88
:1019F000DF91CF911F910F91FF90EF90DF90CF90EB
:101A00000C94051E81E996E00E94F316892BD1F310
:101A100081E996E00E940C17C82F81E996E00E94A8
:101A2000F316892BD1F381E996E00E940C17BC01D3
:101A300077278C2F90E0DF91CF911F910F91FF902E
:101A4000EF90DF90CF900C94800281E996E00E94A5
:101A5000F316892BD1F381E996E00E940C17C82F69
:101A600081E996E00E94F316892BD1F381E996E093
:101A70000E940C17BC017727F5E0CF9FC00111240D
:101A800084519A4FDF91CF911F910F91FF90EF906A
:101A9000DF90CF900C94350381E996E00E94F31615
:101AA000892BD1F381E996E00E940C17C82F81E9B8
:101AB00096E00E94F316892BD1F381E996E00E940B
:101AC0000C17BC01772725E0C29FC0011124845167
:101AD0009A4FDF91CF911F910F91FF90EF90DF9080
:101AE000CF900C94F302DF91CF911F910F91FF9053
:101AF000EF90DF90CF90089581E996E00C940C1759
:101B0000FF920F931F93CF93DF938C01EC0181E938
:101B100096E00E94F316181619060CF050C081E9E1
:101B200096E00E940C17F82E8FE7F81202C0B1DD84
:101B30004FC0C017D10759F48AE0F81208C080914D
:101B4000E5058D3069F51092E505F12C41C088E07E
:101B5000F81218C0219768E070E081E996E00E94D1
:101B6000EC0260E270E081E996E00E94EC0268E03D
:101B700070E081E996E00E94EC02C017D10740F5C1
:101B8000E80126C083E0F81208C0F99264E970E029
:101B900081E996E00E94441922C08AE0F81206C04A
:101BA0006DE070E081E996E00E94EC026F2D7727EE
:101BB00067FD709581E996E00E94EC02F9928AE057
:101BC000F81669F08DE0F81651F083E0F81639F058
:101BD0009E01201B310B2035310508F498CFF0927F
:101BE000E5058DE0F8120AC08AE0FE013197808396
:101BF0006AE070E081E996E00E94EC021882DF91D1
:101C0000CF911F910F91FF900895EF92FF920F9344
:101C10001F93CF93DF93CDB7DEB7C355D1090FB66E
:101C2000F894DEBF0FBECDBF80912906882321F036
:101C30008E010F5F1F4F86C060912A06662329F030
:101C400070E080E090E00E945B011FDD009709F4E6
:101C5000A9C052DF8F3711F41CDD9BC0833009F41B
:101C60009BC088EB93E00E94080281E080932906E4
:101C7000DFCFF80101900020E9F7CF0102977C0146
:101C8000FC0110828981882309F483C06FEB73E023
:101C9000C8010E948B21892B09F45BC061EC73E0C1
:101CA000C8010E948B21892B09F453C069EC73E0B1
:101CB000C8010E948B21892B09F454C06BEC73E09E
:101CC000C8010E948B21892B09F44CC060E873E0A5
:101CD000C8010E948B21892B09F447C064ED73E091
:101CE000C8010E948B21892B09F43FC06AED73E083
:101CF000C8010E948B21892B09F452C065E174E070
:101D0000C8010E948B21892BB1F168E474E0C801FD
:101D10000E948B21892B79F1B701C8010E94D8015B
:101D2000FC0101900020E9F7BF0161507109681BB7
:101D3000790BAE014E5A5F4F0E945303009711F189
:101D40000E940D02C801DCDE8981833009F091CF49
:101D500027C01092290681E080932B0684EF8093A0
:101D60002A0617C01092290614C01092290681E095
:101D700080932B0604C01092290610922B06109215
:101D80002A0607C064968EAD9FAD64970E94EF014E
:101D9000D9CF80E090E006C08CED93E00E9408026D
:101DA0008AE090E0CD5ADF4F0FB6F894DEBF0FBE49
:101DB000CDBFDF91CF911F910F91FF90EF900895CC
:101DC0002F923F924F925F926F927F928F929F924B
:101DD000AF92BF92CF92DF92EF92FF920F931F9339
:101DE000CF93DF93CDB7DEB72A970FB6F894DEBF57
:101DF0000FBECDBF6C017B01E80EF91EB701C60115
:101E00000E94D8018C01FC01B080BB2009F44BC2B8
:101E10008E159F0508F047C248E050E06BEC73E078
:101E20000E949B216C01009791F4F80180858B330F
:101E300031F4C8010896CC24C394D12C25C080323B
:101E4000C1F397EF980F9230A0F38D3091F345E0F6
:101E500050E06AEE73E0C8010E949B21892B71F566
:101E6000F80185818B3339F4CD2819F3C801059623
:101E7000C12CD12C09C08032B9F397EF980F923062
:101E800098F38D30D9F4F0CFB7010E94D8017C01CE
:101E9000BC01601B710B8091E6059091E7059801EC
:101EA000281B390BC901BDDBF70180818B3309F099
:101EB00084C1CD2809F048C182E047C145E050E027
:101EC00060EF73E0C8010E949B216C01009761F4F0
:101ED000F8018581982F977F9032F9F097EF980F4E
:101EE0009230D8F08D30C9F042E050E066EF73E0F8
:101EF000C8010E949B21892B09F029C1F801828128
:101F0000982F977F903239F097EF980F923018F012
:101F10008D3009F01CC1CD2841F42801F5E04F0EA9
:101F2000511CAA24A394B12C06C0280122E0420E21
:101F3000511CA12CB12CB701C2010E94D801FC0197
:101F40004081483291F064E170E0C2014FDB809142
:101F5000E6059091E7056AE070E09801281B390BCF
:101F6000C9015FDB8EEF9FEFE1C34C013FEF831AA6
:101F7000930A340181E090E0F3014081411107C0F0
:101F8000B30164197509C20131DBB30124C06E14B9
:101F90007F0460F4483211F4019604C0493211F410
:101FA000019731F0EFEF6E1A7E0AE6CF493241F722
:101FB000B701C30101960E94D8019C838B83FC0169
:101FC000808181110FC06B817C8164197509C20108
:101FD0000DDB6B817C81601B710B8091E60590911C
:101FE000E705BBCF2B813C812E153F0560F76901CA
:101FF00080E090E0F6014081411107C0B60164190C
:102000007509C201F3DAB601E6CFCE14DF04B1F3ED
:1020100096012F5F3F4F3E832D83009759F04B373A
:1020200011F4019604C04D3711F4019741F0CD80B1
:10203000DE80E0CF4D3719F04B3309F00EC2B70107
:102040008D819E810E94D8016C01AB2809F0A7C147
:1020500044E050E069EF73E00E949B21892B09F076
:1020600024C1F60184818B3749F0803239F097EF33
:10207000980F923018F08D3009F017C1B701C601E2
:1020800004960E94D8015C01FC018081811107C087
:10209000B50164197509C201A9DAB5019CCFAE1466
:1020A000BF04B0F7150180E090E0F10140814111DB
:1020B00007C0B10164197509C20198DAB1018BCF6B
:1020C0002E143F04B1F3009769F04B3711F40196D9
:1020D00005C04D3719F4019709F4EAC03FEF231A00
:1020E000330AE3CF4D3709F4E3C04B3309F0B9C1EC
:1020F000DFC080912906811124C0B8018B819C81A9
:102100005FDE8130910509F0A0C1AE014F5F5F4FE6
:10211000B301C4010E945303009709F007C38091E3
:102120002806882309F471C189819A81892B09F4D1
:1021300065CE809128068111E0CF80912B068823FF
:10214000C1F263DD892BC9F281E090E0EFC243E088
:1021500050E063E174E0C8010E949B21892B09F0E3
:1021600045C0F8018381982F977F903231F097EF27
:10217000980F923010F08D30C9F5B701C801039661
:102180000E94D801FC0120812832B9F4B7010196E0
:102190000E94D8015C019C838B83EB81FC812081B0
:1021A000222359F0EE15FF0540F4CF0101962B33A1
:1021B00009F45BC19C838B83F0CF64E170E013C0B2
:1021C000EE15FF0560F4CF0101962B3309F454C1DD
:1021D0009E838D83ED81FE8120812111F1CF6D8160
:1021E0007E81601B710BC80101DABCCEFBE7680180
:1021F000BF1619F02DE7B2120CC03FEFC31AD30A75
:10220000FDCDCE14DF0479F08B3339F08FEFC81A8F
:10221000D80AF60180818111F4CFC016D10619F4D5
:1022200081E090E035C0809128065601A01AB10ADD
:1022300081110FC080912B06811104C08091290665
:10224000882339F0B501C801D1D98DEC95E00E9401
:1022500008028091E6059091E705B5019801281BD9
:10226000390BC901DED9AE014F5F5F4FB501C8011F
:102270000E9453034C01009749F0B501C801B6D93B
:102280008DEC95E00E940802C40150C280E090E00D
:102290003FEFC31AD30A892B09F0B0CDB6DC009703
:1022A00009F4ACCD43C280E050CFA12CB12C01C0C9
:1022B0006101B301601B710B8091E6059091E70508
:1022C000F801E81BF90BCF01ACD9809128066818FA
:1022D0007908811113C080912B06811104C080916F
:1022E0002906882359F08CE094E00E94EA01B301AA
:1022F000C4017CD981E194E00E94EA01AE014F5F04
:102300005F4FB301C4010E9453038C0180912806E2
:102310000115110579F0811140C080912B068111C2
:1023200004C0809129068823C1F18DEC95E00E94BC
:10233000080233C081111BC080912B06811104C09B
:1023400080912906882399F089E094E00E94EA01AF
:1023500089819A81892B19F08FED93E002C084EE78
:1023600093E00E94EA018DEC95E00E9408028981C9
:102370009A81892B41F06D817E812B813C81621B8A
:10238000730BC90108C0A114B10409F437CDB10120
:102390006A197B09C50114DD82CFC801C7C1B30129
:1023A000601B710B8091E6059091E7059801281B51
:1023B000390BC90136D980912806811115C0809149
:1023C0002B06811104C080912906882369F08EEFC5
:1023D00093E00E94EA01B30168197909C40106D9A2
:1023E00086E094E00E94EA0180912806811104C0F1
:1023F0000CDC009709F09AC1681879080D811E81DC
:102400002B813C81021B130B80CE80912B06811106
:1024100005C080912906882309F486CEB301C40142
:10242000E5D889E094E00E94EA0189819A81892BAC
:1024300019F08FED93E002C084EE93E00E94EA0170
:102440008DEC95E00E9408026FCE8230910509F470
:10245000D5CC009709F459CE69C14B3709F0E7CDC7
:10246000E0CD4B3709F03ACE32CEB7010E94D80109
:102470003C019E838D83AECEB7010E94D8014C01F2
:102480002C01CC24C394D12CF2012081211102C053
:10249000B201A7CE4E145F04D8F7C20101962832CC
:1024A00021F4FFEFCF1ADF0A06C0293221F421E020
:1024B000C21AD10811F02C01E7CFB7010E94D80150
:1024C0009A878987FC018081811102C0BF0189CE72
:1024D000EE15FF05D8F79F012F5F3F4F38872F83F9
:1024E000C114D10479F08B3721F4FFEFCF1ADF0A42
:1024F00006C08D3721F421E0C21AD10841F0EF81E6
:10250000F885E1CF8D3719F08B3309F00BC1CF80FF
:10251000D88480912806882369F0B201601B710B72
:102520008091E6059091E705F801E81BF90BCF01D2
:1025300078D829C080912B06811104C0809129068A
:10254000882309F187E194E00E94EA016B817C8194
:102550006A197B09C5014AD88DE194E00E94EA011D
:102560006D817E8166197709C30140D88DE194E0C1
:102570000E94EA01B20168197909C40137D886E0DE
:1025800094E00E94EA0180912806811116C0809192
:102590002B06811104C080912906882371F035DB58
:1025A000009709F0C3C06B817C816A197B09C50162
:1025B0001DD88DEC95E00E9408026B817C816A1920
:1025C0007B09AE014F5F5F4FC5010E945303009727
:1025D00009F0ACC08091280681110CC080912B06B7
:1025E000811104C080912906882321F00EDB892BFC
:1025F00009F0AACD0D811E810619170998012F5FD8
:102600003F4F3C832B832F81388589859A85281BF2
:10261000390B38872F834818590852019FEFA91AA0
:10262000B90A8091E6059091E7056B817C81930161
:10263000281B390BC9010E94110BAE014F5F5F4F80
:10264000B801C3010E945303009709F06FC0809145
:10265000280681111FC080912B06811104C0809132
:1026600029068823B9F0B801C3010E94F60A89E05F
:1026700094E00E94EA0189819A81892B19F08FEDFB
:1026800093E002C084EE93E00E94EA018DEC95E0B5
:102690000E94080289819A81892B09F4AFCB6F814E
:1026A000788589859A858CDB8230910528F0823087
:1026B000910509F4A3CB3AC08091E6059091E70516
:1026C000B501F401E81BF90BCF010E94110B8091B9
:1026D0002806811110C080912B06811104C08091C1
:1026E0002906882341F0B201C4010E94F60A8DEC4C
:1026F00095E00E940802AE014F5F5F4FB201C40136
:102700000E945303009791F480912B06811105C01C
:1027100080912906882309F484CF77DA009709F499
:1027200080CF04C08B3709F0EACEDFCE2A960FB6F1
:10273000F894DEBF0FBECDBFDF91CF911F910F91F7
:10274000FF90EF90DF90CF90BF90AF909F908F90D1
:102750007F906F905F904F903F902F900895CF9211
:10276000DF92EF92FF920F931F93CF93DF938C0131
:102770007B0126E040E052EC61E070E081E996E008
:1027800012D463EB70E081E996E07ED51093E90501
:102790000093E8051093E7050093E605F092EB053A
:1027A000E092EA058FEF93E00E949323803509F0D1
:1027B00045C06801C0E0D0E081E0E81AF108CE151C
:1027C000DF0540F4CE010E949323F60181936F014F
:1027D000811107C0C00FD11F8881882321F0188282
:1027E00002C02196ECCF8EEF93E00E9493238235B6
:1027F00029F567E970E081E996E046D5109229064F
:1028000010922B0610922A068091E6059091E7051A
:10281000FC0101900020E9F7BF0161507109681BBC
:10282000790BCEDA009751F0DF91CF911F910F9184
:10283000FF90EF90DF90CF900C940D02DF91CF913D
:102840001F910F91FF90EF90DF90CF90089568E572
:1028500072E084E091E083CFAF92BF92CF92DF929B
:10286000EF92FF920F931F93CF93DF93CDB7DEB715
:10287000C355D1090FB6F894DEBF0FBECDBF8E0190
:102880000F5F1F4FC8013CD963E070E0C8010E9490
:102890008021892B09F05DC2D8010D900020E9F755
:1028A000BD0162507109FB011082C8010E94D8016C
:1028B000DC018C91882309F44CC247E050E060E2CF
:1028C00074E0C8010E949B21892B19F488E294E0EE
:1028D0000BC044E050E06AE374E0C8010E949B2111
:1028E000892B29F48FE394E00E94080232C247E06A
:1028F00050E061EC73E0C8010E949B21892B49F4F0
:102900001092290681E080932B0684EF80932A069B
:10291000BCC147E050E064E474E0C8010E949B2120
:10292000892B11F462E51EC145E050E064ED73E0CF
:10293000C8010E949B21892B31F41092290681E065
:1029400080932B068AC144E050E06CE474E0C80137
:102950000E949B21892B09F0B6C0CE0105960E94EA
:1029600058216C01C801CCD8E090E605F090E7054D
:10297000F701570141E050E080818823F1F0C4164F
:10298000D5063CF19F012F5F3F4F8D3019F08A3003
:1029900089F404C081818A3009F4F9019F012F5F15
:1029A0003F4F4C155D05A1F08181882329F04F5FD1
:1029B0005F4F5901F901E0CFF9014C155D054CF469
:1029C0008081811106C0B801C7010E947521C1C173
:1029D000F901B501D8010D900020E9F7AD01415092
:1029E0005109401B510BCF018A199B098417950788
:1029F00070F5D7010D900020E9F77D01DF010D9002
:102A00000020E9F79D01215031092E1B3F0BC70122
:102A10000196D501AE1BBF0BFD01E40FF51FEE0DB6
:102A2000FF1D31962E193F09A901480F591F57FD67
:102A300005C0DC014E91CD014293F6CFF801019023
:102A40000020E9F73197E01BF10BEA0DFB1DD801DF
:102A50000D900020E9F7CD010197801B910B9C019F
:102A6000121613064CF4D8014D918D01D5014D93EA
:102A70005D0121503109F4CF97FF02C080E090E062
:102A8000680F791F6E177F0709F463C1DF010D908E
:102A90000020E9F71197AE1BBF0B9F01CD018B0101
:102AA0001816190644F4F90141919F01F801419368
:102AB0008F010197F5CFB7FF02C0A0E0B0E0A60FED
:102AC000B71F1C9246C144E050E061E574E0C801C4
:102AD0000E949B21892BE1F50091E6051091E70505
:102AE0006801EE24E394F12CF8018081882309F435
:102AF00030C198012F5F3F4F59018D3011F08A305E
:102B000029F54AE050E0B70181E996E071D462E925
:102B100070E081E996E08AD3B8016C197D09C6019D
:102B20000E94F60A8DEC95E00E9408023FEFE31A3E
:102B3000F30AD8018C918D3029F411968C918A304A
:102B400009F485010F5F1F4F6801CECF8901CCCFFB
:102B500046E050E066E574E0C8010E949B21892BA5
:102B600021F460E08EEF93E0CEC044E050E06DE5EC
:102B700074E0C8010E949B21892B09F061C010926A
:102B8000E7051092E605E090E805F090E90580E0A1
:102B900090E02091EA053091EB0582179307D8F574
:102BA000C8010E94800D43E050E062E674E0C80175
:102BB0000E949B21C090E805D090E905892B39F44B
:102BC000D7011C92D092E705C092E60524C0F80117
:102BD00001900020E9F73197E01BF10BC7018C1938
:102BE0009D09E80FF91F8091EA059091EB05019787
:102BF0008E179F0780F0B801C7010E949421F6014B
:102C000001900020E9F79F01215031097901C901A4
:102C10008C199D09BECF8091E6059091E705892B1F
:102C200009F097C086E694E00E940802E091E8056A
:102C3000F091E9051082F093E705E093E60589C07D
:102C400043E050E068E474E0C8010E949B21892BB6
:102C500081F41092290610922B0610922A06809178
:102C6000E6059091E705DC010D900020E9F7BD0134
:102C700015C044E050E067E774E0C8010E949B2162
:102C8000892BA9F481E0809329068091E605909133
:102C9000E705FC0101900020E9F7BF0161507109CF
:102CA000681B790B8DD8009709F453C049C044E0E4
:102CB00050E06CE774E0C8010E949B21892B31F53C
:102CC000E091E605F091E705DF010D900020E9F7BE
:102CD0008D01015011090E1B1F0BE12CF12C0E155B
:102CE0001F0574F0E091E605F091E705EE0DFF1D7C
:102CF0006081C7010E949B23BFEFEB1AFB0AEFCF55
:102D000060E58FEF93E00E949B2323C06BE370E0AC
:102D1000C8010E948021009711F0FC011082D801A7
:102D20000D900020E9F7BD0161507109601B710B26
:102D3000AE014E5A5F4FC8010E945303009719F02D
:102D40000E940D0206C064968EAD9FAD64970E94EE
:102D5000EF01CD5ADF4F0FB6F894DEBF0FBECDBFE7
:102D6000DF91CF911F910F91FF90EF90DF90CF9067
:102D7000BF90AF9008958F929F92AF92BF92CF92E3
:102D8000DF92EF92FF924C010E942C016B017C01BB
:102D9000AA2497FCA094BA2C0E942C016C197D09DE
:102DA0008E099F09681579058A059B0588F481E9D4
:102DB00096E019D0892B81F381E996E01FD08F37F7
:102DC000910551F781E996E027D00E94490BE4CFA5
:102DD00080E090E0FF90EF90DF90CF90BF90AF90B9
:102DE0009F908F900895FC01818D228D90E0805CF2
:102DF0009F4F821B91098F7399270895FC01918D34
:102E0000828D981731F0828DE80FF11D858D90E04D
:102E100008958FEF9FEF0895FC01918D828D981793
:102E200061F0828DDF01A80FB11D5D968C91928DAE
:102E30009F5F9F73928F90E008958FEF9FEF0895AB
:102E40008CE898E1892B41F080E090E0892B21F01B
:102E500063D181110C9400000895FC01848DDF0181
:102E6000A80FB11DA35ABF4F2C91848D90E00196FD
:102E70008F739927848FA689B7892C93A089B189EC
:102E80008C9180648C93938D848D981306C00288F6
:102E9000F389E02D80818F7D80830895CF93DF9328
:102EA000EC01888D8823C1F0EA89FB89808185FD4A
:102EB00005C0A889B9898C9186FD0EC00FB607FCA4
:102EC000F5CF808185FFF2CFA889B9898C9185FFE4
:102ED000EDCFCE01C2DFE8CFDF91CF910895CF9241
:102EE000DF92FF920F931F93CF93DF931F92CDB783
:102EF000DEB76C0181E0D60158968C9358975B96AB
:102F00009C915B975C968C915C97981307C0509648
:102F1000ED91FC915197808185FD2DC0F601038DC7
:102F200010E00F5F1F4F0F731127F02EF601848DF5
:102F3000F81210C00FB607FCF9CFD6015096ED91EC
:102F4000FC915197808185FFF1CFC601698385DFB0
:102F50006981ECCF838DE80FF11DE35AFF4F608349
:102F6000D6015B960C935B975296ED91FC9153972B
:102F7000808180620CC0D6015696ED91FC915797E6
:102F800060835096ED91FC9151978081806480839D
:102F900081E090E00F90DF91CF911F910F91FF9012
:102FA000DF90CF900895BF92CF92DF92EF92FF9281
:102FB000CF93DF93EC016A017B01B22EE889F98996
:102FC00082E08083411581EE580761057105A1F00B
:102FD00060E079E08DE390E0A70196010E949F20D8
:102FE0002150310941095109569547953795279543
:102FF000211580E1380798F0E889F989108260E8A6
:1030000074E88EE190E0A70196010E949F20215074
:103010003109410951095695479537952795EC8512
:10302000FD853083EE85FF852083188EEC89FD8930
:10303000B082EA89FB89808180618083EA89FB898B
:10304000808188608083EA89FB89808180688083B1
:10305000EA89FB8980818F7D8083DF91CF91FF900A
:10306000EF90DF90CF90BF9008951F920F920FB610
:103070000F9211242F938F939F93EF93FF93E091DF
:10308000A106F091A2068081E091A706F091A80622
:1030900082FD12C090818091AA068F5F8F7320916C
:1030A000AB06821751F0E091AA06F0E0EF56F94F17
:1030B000958F8093AA0601C08081FF91EF919F9127
:1030C0008F912F910F900FBE0F901F9018951F9208
:1030D0000F920FB60F9211242F933F934F935F934C
:1030E0006F937F938F939F93AF93BF93EF93FF93D0
:1030F00081E996E0B2DEFF91EF91BF91AF919F9190
:103100008F917F916F915F914F913F912F910F9090
:103110000FBE0F901F90189581E996E064DE21E0C4
:10312000892B09F420E0822F0895109294061092C2
:10313000930688EE93E0A0E0B0E08093950690932C
:103140009606A0939706B09398068FEB95E0909320
:1031500092068093910685EC90E090939E06809372
:103160009D0684EC90E09093A00680939F0680ECEF
:1031700090E09093A2068093A10681EC90E090935A
:10318000A4068093A30682EC90E09093A606809319
:10319000A50686EC90E09093A8068093A70610926F
:1031A000AA061092AB061092AC061092AD060895D6
:1031B000CF92DF92EF92FF920F931F93CF93DF9303
:1031C0007C016A01EB0100E010E00C151D0571F0B7
:1031D0006991D701ED91FC910190F081E02DC7013B
:1031E0000995892B19F00F5F1F4FEFCFC801DF91B1
:1031F000CF911F910F91FF90EF90DF90CF900895A6
:103200006115710581F0DB010D900020E9F7AD013A
:1032100041505109461B570BDC01ED91FC91028096
:10322000F381E02D099480E090E00895EF92FF9201
:103230000F931F93CF93DF938C017B01C0E0D0E00D
:10324000F701EC0FFD1F6491662359F0F801A0818E
:10325000B181ED91FC91C8010995892B11F021965E
:10326000EFCFCE01DF91CF911F910F91FF90EF90A3
:103270000895C6CFDC01ED91FC910190F081E02D25
:1032800009946BEC75E0BCCF0F931F93CF93DF9342
:10329000EC01CCDF8C01CE01F4DF800F911FDF91B8
:1032A000CF911F910F9108950F931F93CF93DF93A9
:1032B000EC01A6DF8C01CE01E4DF800F911FDF91CE
:1032C000CF911F910F9108958F929F92AF92BF92CD
:1032D000DF92EF92FF920F931F93CF93DF93CDB7BF
:1032E000DEB7A1970FB6F894DEBF0FBECDBF7C014D
:1032F000F42FD52ECB0119A2223008F42AE08E013A
:103300000F5D1F4F822E912CA12CB12C6F2F7D2D84
:10331000A501940114D7F22FD32ECA01015011092F
:103320006A3014F4E0E301C0E7E3E60FD801EC9360
:10333000232B242B252B51F7B801C70161DFA19660
:103340000FB6F894DEBF0FBECDBFDF91CF911F91B6
:103350000F91FF90EF90DF90BF90AF909F908F9074
:103360000895CF92DF92EF92FF920F931F93CF9326
:10337000DF93EC016A017B012115310579F4E881C5
:10338000F9810190F081E02D642FDF91CF911F91A1
:103390000F91FF90EF90DF90CF9009942A30310584
:1033A000D9F477FF18C06DE265DF8C0144275527FB
:1033B000BA014C195D096E097F092AE0CE0184DF4C
:1033C000800F911FDF91CF911F910F91FF90EF9090
:1033D000DF90CF9008952AE0B701A601CE01DF91DA
:1033E000CF911F910F91FF90EF90DF90CF906CCF16
:1033F0009A01AB01662757FD6095762FB2CF0F93E8
:103400001F93CF93DF93EC019A01AB01662757FD21
:103410006095762FA6DF8C01CE0133DF800F911FE0
:10342000DF91CF911F910F9108953F924F925F923C
:103430006F927F928F929F92AF92BF92CF92DF92C4
:10344000EF92FF920F931F93CF93DF9300D000D0A2
:10345000CDB7DEB78B0129013A0190915C03981733
:1034600021F09F3F09F0CFC104C0E4EFF0E03490B9
:1034700081C080935C03E4EFF0E0E491EF3F09F456
:10348000C2C1E13031F1E23009F44BC0E11171C049
:1034900014BC15BC94B5926094BD95B5916095BD72
:1034A000282F30E0F901E35EFE4FE491F0E0EE0FEB
:1034B000FF1FE55CFE4F4591549150933E074093AA
:1034C0003D07F901E75FFE4F249120933C07312C23
:1034D00053C01092800010928100909181009860FA
:1034E0009093810090918100916090938100282FAA
:1034F00030E0F901E35EFE4FE491F0E0EE0FFF1FD4
:10350000E55CFE4F45915491509337074093360741
:10351000F901E75FFE4F249120933507332433945C
:103520002BC01092B0001092B1009091B000926048
:103530009093B0009091B10091609093B100282FCA
:1035400030E0F901E35EFE4FE491F0E0EE0FFF1F83
:10355000E55CFE4F459154915093300740932F07FF
:10356000F901E75FFE4F249120932E0752E0352E9C
:1035700003C03E2E37FC47C161E00ED34801A12CA9
:10358000B12C832D8D7F09F0C1C060E072E18AE724
:1035900090E0A5019401F5D529833A834B835C83A0
:1035A00069017A0181E0C81AD108E108F1089FEFAA
:1035B000C916D104E104F10409F008F495C060E4EF
:1035C00072E48FE090E0A5019401DBD569017A01F6
:1035D000E1E0CE1AD108E108F108F2E03F1218C08C
:1035E0008FEFC816D104E104F10409F008F486C095
:1035F00060E970ED83E090E0A5019401C2D5690116
:103600007A0191E0C91AD108E108F10883E001C00C
:1036100082E0EFEFCE16D104E104F10409F008F4E2
:1036200064C068E478EE81E090E0A5019401A9D53A
:1036300069017A01F1E0CF1AD108E108F1083320DD
:10364000D9F082E038121AC09FEFC916D104E10404
:10365000F10409F008F4D5C064E274EF80E090E072
:10366000A50194018ED569017A01E1E0CE1AD10855
:10367000E108F10885E003C083E001C084E0FFEFCA
:10368000CF16D104E104F10481F178F162E17AE727
:1036900080E090E0A501940174D569017A0181E090
:1036A000C81AD108E108F108311002C084E001C055
:1036B00086E09FEFC916D104E104F104B1F0A8F04F
:1036C000C980DA80EB80FC809AE0F594E794D79487
:1036D000C7949A95D1F7E1E0CE1AD108E108F10834
:1036E000332031F087E00BC081E0332011F007C0B8
:1036F00085E095B5987F982B95BD36C082E0909176
:10370000B100987F982B9093B1002EC060E072E1D9
:103710008AE790E0A501940134D569017A01F1E0CE
:10372000CF1AD108E108F108C114D10481E0E806FC
:10373000F10480F068E478EE81E090E0A501940166
:1037400020D569017A0191E0C91AD108E108F10890
:1037500093E001C091E0E1E03E1206C0809181005B
:10376000887F892B80938100411451046104710486
:1037700061F0D801AA0FBB1FA301920124D528EE46
:1037800033E040E050E0DBD403C02FEF3FEFA9016E
:10379000F1E03F16A1F082E0381619F1311033C084
:1037A000C7BC20933F073093400740934107509395
:1037B000420780916E00826080936E0024C0D09298
:1037C0008900C092880020933807309339074093CE
:1037D0003A0750933B0780916F00826080936F009F
:1037E00012C0C092B3002093310730933207409348
:1037F000330750933407809170008260809370008B
:1038000002C084E07CCF0F900F900F900F90DF915B
:10381000CF911F910F91FF90EF90DF90CF90BF90CD
:10382000AF909F908F907F906F905F904F903F9060
:103830000895813039F018F0823051F008951092D7
:103840006E00089580916F008D7F80936F000895C2
:10385000809170008D7F8093700081E08093B00034
:103860008091B100887F84608093B1001092B30092
:103870000895CF93C82F80915C038C1307C0E4EFA9
:10388000F0E084919FEF90935C0301C08FEFD1DF54
:1038900060E08C2FCF91B9C11F920F920FB60F929B
:1038A00011242F933F934F935F936F937F938F9345
:1038B0009F93AF93BF93EF93FF93809131079091C4
:1038C0003207A0913307B0913407892B8A2B8B2BB9
:1038D00051F190912E07E0912F07F09130078081F0
:1038E000892780838091310790913207A091330717
:1038F000B0913407181619061A061B06BCF48091FD
:10390000310790913207A0913307B09134070197A6
:10391000A109B1098093310790933207A09333072F
:10392000B093340703C080915C03A3DFFF91EF9154
:10393000BF91AF919F918F917F916F915F914F91C7
:103940003F912F910F900FBE0F901F901895CF931E
:10395000DF9300D000D0CDB7DEB79B01AC0161157D
:1039600071058105910559F069833A834B835C8326
:1039700093D429813A814B815C8103D403C060E0F8
:1039800070E0CB010F900F900F900F90DF91CF91CF
:103990000895CF92DF92EF92FF926B017C01621744
:1039A0007307840795075CF4CA01B9016C197D0996
:1039B0008E099F09CCDF6C0D7D1D8E1D9F1DFF9014
:1039C000EF90DF90CF9008954F925F926F927F9229
:1039D000AF92BF92CF92DF92EF92FF920F931F931D
:1039E000CF93DF93CDB7DEB729013A01621B730B8A
:1039F000840B950B29893A894B895C892A193B09E3
:103A00004C095D09298B3A8B4B8B5C8B9B01AC017C
:103A100069897A898B899C8950D3E418F50806094D
:103A20001709A8019701ADD32A0D3B1D4C1D5D1D43
:103A3000CA01B901DF91CF911F910F91FF90EF90D3
:103A4000DF90CF90BF90AF907F906F905F904F903E
:103A500008958E3008F08E50877020915D0390E4B9
:103A6000299F90011124822B80937C0080917A0001
:103A7000806480937A0080917A0086FDFCCF8091EB
:103A800078002091790090E0922B08951F93CF93B6
:103A9000DF93182FEB0161E07FD0209711F460E0F5
:103AA00004C0CF3FD10531F461E0812FDF91CF9188
:103AB0001F91ABC0E12FF0E0EB50FF4FE491E330FA
:103AC000F9F048F4E130B9F0E230A1F584B5806254
:103AD00084BDC8BD34C0E730E9F0E83019F1E43006
:103AE00049F580918000806280938000D0938B00A4
:103AF000C0938A0024C084B5806884BDC7BD1FC040
:103B000080918000806880938000D0938900C0936A
:103B1000880015C08091B00080688093B000C09389
:103B2000B3000DC08091B00080628093B000C0935C
:103B3000B40005C0C038D1050CF0B6CFB0CFDF91CE
:103B4000CF911F910895833081F028F4813099F04E
:103B50008230A1F008958730A9F08830B9F0843020
:103B6000D1F4809180008F7D03C0809180008F7799
:103B700080938000089584B58F7702C084B58F7DCF
:103B800084BD08958091B0008F7703C08091B0000C
:103B90008F7D8093B0000895CF93DF9390E0FC0178
:103BA000E75FFE4F2491FC01E35EFE4F8491882382
:103BB00049F190E0880F991FFC01EB5BFE4FA59146
:103BC000B491855C9E4FFC01C591D4919FB7611162
:103BD00008C0F8948C91209582238C93888182234D
:103BE0000AC0623051F4F8948C91322F30958323BF
:103BF0008C938881822B888304C0F8948C91822BCB
:103C00008C939FBFDF91CF9108950F931F93CF9314
:103C1000DF931F92CDB7DEB7282F30E0F901EB50CC
:103C2000FF4F8491F901E75FFE4F1491F901E35EC4
:103C3000FE4F04910023C1F0882319F0698383DFCC
:103C40006981E02FF0E0EE0FFF1FE55CFE4FA591CC
:103C5000B4919FB7F8948C91611103C010958123A2
:103C600001C0812B8C939FBF0F90DF91CF911F914B
:103C70000F910895CF93DF93282F30E0F901EB5097
:103C8000FF4F8491F901E75FFE4FD491F901E35EA4
:103C9000FE4FC491CC2389F0811155DFEC2FF0E069
:103CA000EE0FFF1FEF5CFE4FA591B4912C912D23D9
:103CB00081E090E021F480E002C080E090E0DF91BC
:103CC000CF9108951F920F920FB60F9211242F9348
:103CD0003F934F935F936F937F938F939F93AF9394
:103CE000BF93EF93FF938091440787FF05C0109225
:103CF0008500109284001AC020914407332727FDC5
:103D000030958091430790E0281739077CF4809123
:103D10004407992787FD9095FC01EE0FFF1FE80FE0
:103D2000F91FEB5BF84F808186FD15C08091440739
:103D30008F5F8093440720914407332727FD3095F8
:103D40008091430790E028173907B4F48091440725
:103D50008C3054F111C080914407992787FD9095CC
:103D6000FC01EE0FFF1FE80FF91FEB5BF84F80819E
:103D700060E08F734ADFDACF8091840090918500F4
:103D8000049680349C4918F480E49CE905C0809135
:103D90008400909185000496909389008093880018
:103DA0008FEF8093440737C02091840030918500C5
:103DB00080914407992787FD9095FC01EE0FFF1F26
:103DC000E80FF91FEB5BF84F81819281820F931FFF
:103DD000909389008093880080914407992787FDFC
:103DE0009095FC01EE0FFF1FE80FF91FEB5BF84FFA
:103DF000808186FF10C080914407992787FD9095A8
:103E0000FC01EE0FFF1FE80FF91FEB5BF84F8081FD
:103E100061E08F73FADEFF91EF91BF91AF919F91B7
:103E20008F917F916F915F914F913F912F910F9063
:103E30000FBE0F901F901895209143072C30A0F4CF
:103E400031E0320F30934307FC012083822F90E052
:103E5000FC01EE0FFF1FE80FF91FEB5BF84F88EB3B
:103E60009BE09283818308952FEFFC0120830895C6
:103E7000DF92EF92FF920F931F93CF93DF93EC01AA
:103E8000D62E7A01890188818C3008F064C061E007
:103E90008D2D82DE8881A82FB0E0FD01EE0FFF1F7F
:103EA000EA0FFB1FEB5BF84F2D2D2F739081907C59
:103EB000922B908360E272E06E197F0977FF02C057
:103EC0006D5F7F4F7595679575956795698340E63A
:103ED00059E0401B510B57FF02C04D5F5F4F559596
:103EE0004795559547954A836CE0F6D09CE0899FAD
:103EF000B001112420E030E0A901460F571FFA015C
:103F0000EE0FFF1FE40FF51FEB5BF84F908196FD5E
:103F100016C02F5F3F4F2C30310571F781110FC054
:103F20001092800082E080938100109285001092B0
:103F30008400B19A80916F00826080936F008881C5
:103F400090E0FC01EE0FFF1FE80FF91FEB5BF84F4D
:103F50008081806480838881DF91CF911F910F9150
:103F6000FF90EF90DF90089520E639E040E252E0C4
:103F70007FCFFC01808190E0FC01EE0FFF1FE80F76
:103F8000F91FEB5BF84F80818F7B80830895FC01E4
:103F900080818C3070F5918128E830E0291B31094F
:103FA00097FD3395220F331F220F331F62177307BC
:103FB0007CF0928128E532E0291B310997FD339589
:103FC000220F331F220F331F621773070CF49B015C
:103FD00022503109220F331F4FB7F89490E0FC01B3
:103FE000EE0FFF1FE80FF91FEB5BF84F32832183C1
:103FF0004FBF08954F925F926F927F92AF92BF92A0
:10400000CF92DF92EF92FF920F931F93CF93DF93A4
:10401000EC01603282E078070CF03FC077FD06C00B
:10402000653B71052CF064EB70E002C060E070E06D
:10403000898128E830E0281B310987FD3395220F5C
:10404000331F220F331F5901CC24B7FCC094DC2C42
:10405000882777FD8095982F2A8148E552E0421BFA
:10406000510927FD5395440F551F440F551F2A0131
:10407000662457FC6094762C7F926F925F924F92E9
:1040800014EBE12EF12C00E010E020E030E0A9017B
:104090009BDC0F900F900F900F90CE01DF91CF918E
:1040A0001F910F91FF90EF90DF90CF90BF90AF9056
:1040B0007F906F905F904F906ACFDB018F939F93BB
:1040C00082D0BF91AF91A29F800D911DA39F900DB3
:1040D000B29F900D11240895991B79E004C0991F97
:1040E000961708F0961B881F7A95C9F78095089552
:1040F000AA1BBB1B51E107C0AA1FBB1FA617B7070E
:1041000010F0A61BB70B881F991F5A95A9F7809529
:104110009095BC01CD01089597FB072E16F40094ED
:1041200006D077FD08D0E4DF07FC05D03EF490957B
:1041300081959F4F0895709561957F4F0895A1E2F5
:104140001A2EAA1BBB1BFD010DC0AA1FBB1FEE1F11
:10415000FF1FA217B307E407F50720F0A21BB30B5C
:10416000E40BF50B661F771F881F991F1A9469F7D8
:1041700060957095809590959B01AC01BD01CF0134
:104180000895052E97FB16F400940FD057FD05D027
:10419000D6DF07FC02D046F408C050954095309514
:1041A00021953F4F4F4F5F4F0895909580957095A3
:1041B00061957F4F8F4F9F4F0895EE0FFF1F059022
:1041C000F491E02D099409D0A59F900DB49F900D16
:1041D000A49F800D911D11240895A29FB001B39F4B
:1041E000C001A39F700D811D1124911DB29F700D00
:1041F000811D1124911D089597FF03C0919581950C
:10420000910908958F929F92AF92BF92CF92DF92C1
:10421000EF92FF92CF93DF93EC01688179818A81DD
:104220009B81611571058105910521F464E279EDA9
:104230008BE597E02DE133EF41E050E0A2DF49014B
:104240005A019B01AC01A7EAB1E4BDDF6B017C011F
:10425000ACEEB4EFA501940124D3C60ED71EE81E20
:10426000F91EF7FE06C081E0C81AD108E10880E80F
:10427000F80AC882D982EA82FB82C701B6019F7719
:10428000DF91CF91FF90EF90DF90CF90BF90AF90F4
:104290009F908F900895B6CF80E091E0B3CF609368
:1042A000000170930101809302019093030108952E
:1042B000FC0188279927E89421912032E9F32930DD
:1042C00010F02E30C8F32B3239F02D3231F46894CF
:1042D00003C03FD0820F911D219120532A30C8F393
:1042E0001EF4909581959F4F0895FB01DC010D9080
:1042F0000020E9F7119701900D920020E1F7089551
:10430000FC018191861721F08823D9F79927089518
:104310003197CF010895FB01DC018D910190801947
:104320000110D9F3990B0895FB01DC0101900D9266
:104330000020E1F70895FB01DC014150504030F0CE
:104340008D910190801919F40020B9F7881B990B01
:1043500008957AE0979F902D879F802D910D1124CD
:104360000895AEE0B0E0E6EBF1E2ADC20D891E8942
:1043700086E08C831A8309838FEF9FE79E838D836A
:10438000AE01475E5F4F6F89788DCE01019608D0F0
:10439000EF81F885E00FF11F10822E96E4E0AFC2A6
:1043A000ACE0B0E0E5EDF1E280C27C016B018A0196
:1043B000FC0117821682838181FFB0C1CE01019674
:1043C0004C01F7019381F60193FD859193FF819153
:1043D0006F01882309F49EC1853239F493FD8591DC
:1043E00093FF81916F01853221F4B70190E0C7D12D
:1043F000E8CF512C312C20E02032A0F48B3269F030
:1044000030F4803259F0833269F420612CC08D324F
:1044100039F0803339F4216026C02260246023C043
:10442000286021C027FD27C030ED380F3A3078F4DE
:1044300026FF06C0FAE05F9E300D1124532E13C0F4
:104440008AE0389E300D1124332E20620CC08E324B
:1044500021F426FD5FC1206406C08C3611F420686B
:1044600002C0883641F4F60193FD859193FF819156
:104470006F018111C1CF982F9F7D9554933028F4FF
:104480000C5F1F4FFFE3F9830DC0833631F0833794
:1044900071F0833509F057C021C0F801808189830C
:1044A0000E5F1F4F44244394512C540114C0380113
:1044B000F2E06F0E711CF801A080B18026FF03C0EE
:1044C000652D70E002C06FEF7FEFC5012C874CD1E6
:1044D0002C0183012C852F77222E16C03801F2E0A3
:1044E0006F0E711CF801A080B18026FF03C0652DFE
:1044F00070E002C06FEF7FEFC5012C872AD12C013D
:104500002C852068222E830123FC19C0832D90E086
:1045100048165906A0F4B70180E290E030D13A94F1
:10452000F5CFF50127FC859127FE81915F01B70149
:1045300090E025D131103A94F1E04F1A510841141E
:10454000510479F7DEC0843611F0893631F5F8016F
:1045500027FF07C060817181828193810C5F1F4FAB
:1045600008C060817181882777FD8095982F0E5F44
:104570001F4F2F76B22E97FF09C0909580957095AA
:1045800061957F4F8F4F9F4F2068B22E2AE030E019
:10459000A40127D1A82EA81843C0853729F42F7E5F
:1045A000B22E2AE030E025C0F22FF97FBF2E8F36E1
:1045B000C1F018F4883579F0ADC0803719F088372C
:1045C00021F0A8C02F2F2061B22EB4FE0DC08B2D7C
:1045D0008460B82E09C024FF0AC09F2F9660B92EB0
:1045E00006C028E030E005C020E130E002C020E154
:1045F00032E0F801B7FE07C060817181828193814A
:104600000C5F1F4F06C06081718180E090E00E5FFB
:104610001F4FA401E6D0A82EA818FB2DFF77BF2EB0
:10462000B6FE0BC02B2D2E7FA51450F4B4FE0AC08D
:10463000B2FC08C02B2D2E7E05C07A2C2B2D03C07A
:104640007A2C01C0752C24FF0DC0FE01EA0DF11D6E
:104650008081803311F4297E09C022FF06C0739443
:10466000739404C0822F867809F0739423FD12C0DE
:1046700020FF06C05A2C731418F4530C5718732CCF
:10468000731460F4B70180E290E02C8778D07394C3
:104690002C85F6CF731410F4371801C0312C24FF89
:1046A00011C0B70180E390E02C8769D02C8522FFF0
:1046B00016C021FF03C088E590E002C088E790E0C3
:1046C000B7010CC0822F867851F021FD02C080E234
:1046D00001C08BE227FD8DE2B70190E050D0A51418
:1046E00030F4B70180E390E04AD05A94F8CFAA940E
:1046F000F401EA0DF11D8081B70190E040D0A110D6
:10470000F6CF332009F45DCEB70180E290E037D0D8
:104710003A94F7CFF7018681978102C08FEF9FEF20
:104720002C96E2E1DEC0F999FECF92BD81BDF89AE8
:10473000992780B50895262FF999FECF1FBA92BD0B
:1047400081BD20BD0FB6F894FA9AF99A0FBE019672
:104750000895FC010590615070400110D8F78095D4
:1047600090958E0F9F1F0895FC016150704001903D
:104770000110D8F7809590958E0F9F1F08950F9385
:104780001F93CF93DF93182F092FEB018B8181FDAE
:1047900003C08FEF9FEF20C082FF10C04E815F816A
:1047A0002C813D81421753077CF4E881F9819F01F8
:1047B0002F5F3F4F39832883108306C0E885F98532
:1047C000812F0995892B29F72E813F812F5F3F4F3C
:1047D0003F832E83812F902FDF91CF911F910F91D7
:1047E0000895FA01AA27283051F1203181F1E89487
:1047F0006F936E7F6E5F7F4F8F4F9F4FAF4FB1E0D4
:104800003ED0B4E03CD0670F781F891F9A1FA11DCE
:10481000680F791F8A1F911DA11D6A0F711D811DCF
:10482000911DA11D20D009F468943F912AE0269F94
:1048300011243019305D3193DEF6CF010895462FF3
:104840004770405D4193B3E00FD0C9F7F6CF462FD4
:104850004F70405D4A3318F0495D31FD405241933D
:1048600002D0A9F7EACFB4E0A695979587957795FA
:104870006795BA95C9F700976105710508959B0181
:10488000AC010A2E06945795479537952795BA950A
:10489000C9F7620F731F841F951FA01D0895B7FFEE
:1048A00092CC91DC821B930B08952F923F924F92F2
:1048B0005F926F927F928F929F92AF92BF92CF92B0
:1048C000DF92EF92FF920F931F93CF93DF93CDB7B9
:1048D000DEB7CA1BDB0B0FB6F894DEBF0FBECDBF31
:1048E00009942A88398848885F846E847D848C8402
:1048F0009B84AA84B984C884DF80EE80FD800C810B
:104900001B81AA81B981CE0FD11D0FB6F894DEBFED
:0C4910000FBECDBFED010895F894FFCF5D
:10491C0001000000666F72283B3B293B0000000041
:10492C00000000000000000000000000000000007B
:10493C00000000000000000000000000000000006B
:10494C00000000000000000000000000000000005B
:10495C00000000000000000000000000000000004B
:104B6C00000000000000000000000000FF0164696C
:104B7C0076696465206279207A65726F0053796E6C
:104B8C00746178206572726F720073746F707065E7
:104B9C006400736572766F25642E6174746163684A
:104BAC002800736572766F25642E77726974652898
:104BBC0000736572766F25642E6465746163682872
:104BCC0000746F6E653328007061757365640061E5
:104BDC0000616E696D617465006300636F6E74696A
:104BEC006E75650064656275670053005E43007402
:104BFC007275650066616C736500627265616B004D
:104C0C007768696C6500696600656C736500776828
:104C1C00696C65202800290A003A20006966202862
:104C2C00002900666F7200666F722028003B20001E
:104C3C0076657273696F6E0076302E302E332032AB
:104C4C003031362F30372F31340070696E67007079
:104C5C006F6E67006175746F72756E006564697450
:104C6C00006C697374006E6F6175746F0070726F95
:104C7C006700656E640070726F6772616D20746F8F
:104C8C006F206C6F6E67007374657000736176656E
:104C9C0000616E616C6F6757726974652800646996
:104CAC00676974616C577269746528006D696E2848
:104CBC00006D6178280070696E4D6F646528007412
:104CCC006F6E6528006162732800616E616C6F679E
:104CDC0052656164280064656C61792800646967B9
:104CEC006974616C5265616428006D696C6C6973E0
:104CFC0028006E6F546F6E65280072616E64280018
:104D0C007072696E7428004C4F5700484947480030
:104D1C00494E505554004F55545055540041300095
:104D2C0041310041320041330041340041350081B2
:104D3C00040C0080028E040D001F029C040400CEA3
:104D4C0001A1040400D301A60408008C0AAF0405D9
:104D5C0000DA02B5040400FC20BA040B008B0AC66E
:104D6C00040600BB16CD040C006A02DA0407001C12
:104D7C0002E2040700D502EA040500FD01F0040676
:104D8C0000EF01F70403000000FB0404000100E441
:104D9C000305000000DF030400010000050500000E
:104DAC00000605060001000D0502000E00100502AC
:104DBC00000F001305020010001605020011001967
:104DCC0005020012001C0502001300000000006F19
:104DDC0017D818F3160C17FE164E170D0A006E6135
:0C4DEC006E00696E66006F7666002E0097
:00000001FF
