:100000000C94B1000C94D9000C94D9000C94D90034
:100010000C94D9000C94D9000C94D9000C94371D81
:100020000C94D9000C94D9000C94D9000C943A1675
:100030000C94D9000C94D9000C94D9000C94D900DC
:100040000C9479190C94D9000C94551A0C94871AB5
:100050000C94D9000C94D9000C94D9000C94D900BC
:100060000C94D9000C94D900930A9F0ABD0AFE0A89
:10007000370BA30CA30CA30CA30CA30CA30CA30C75
:10008000A30C8D0BC10BC50BEE0B110C320C550CD8
:100090007C0C2000E8AFADE6B395E99499E8AFAFEA
:1000A00000E5819CE6ADA200E8AFADE6B395E9942A
:1000B00099E8AFAF00E999A4E99BB6E5BC82E5B841
:1000C000B8005E4300E7A88BE5BA8FE590AFE58AFC
:1000D000A80041726475696E6FE78988E7B2BEE770
:1000E000AE8043E8AFADE8A880E8A7A3E9878AE53A
:1000F00099A820C2A932303136204B656E526F620A
:100100006F740000000008000201000003040700F3
:1001100000000000000000010204081020408001DF
:10012000020408102001020408102004040404043E
:100130000404040202020202020303030303030095
:1001400000000023002600290000000000250028F0
:10015000002B0000000000240027002A0002310AC2
:10016000B71A11241FBECFEFD8E0DEBFCDBF15E018
:10017000A0E0B1E0E8E5FAE402C005900D92A238F3
:10018000B107D9F727E0A2E8B5E001C01D92AF3072
:10019000B207E1F711E0C2E6D1E004C02297FE0108
:1001A0000E946021CE35D107C9F70E94941D0C949E
:1001B0002A250C9400000C947F130C948513681767
:1001C00079070CF4CB010895861797070CF4CB013F
:1001D0000895FC012081222369F08617970750F4C7
:1001E000203211F40196F5CF37EF320F3230D0F3D1
:1001F0002D30C1F30895BC018DE596E00C94061EE8
:10020000CF93DF93EC014AE050E0BC018DE596E02E
:100210000E94F21ECE01DF91CF9108952FEF3FE7AC
:1002200040E050E060E070E0CB010E942E1FCB0167
:100230000895BC018DE596E00C94351E0E94C3190B
:10024000CB010895EF92FF920F931F93CF93DF930B
:100250001F92CDB7DEB77C0121E030E002C0220F53
:10026000331F8A95E2F78091C9059091CA058223D0
:100270009323890100951095892BC1F0F701E5536F
:10028000FA4F808125E0829FC001112487579A4F41
:1002900069830E9496178091C9059091CA058023B1
:1002A00091239093CA058093C90569818E2D0E9480
:1002B0001A198091F7059091F80580239123909366
:1002C000F8058093F70580E090E00F90DF91CF91E3
:1002D0001F910F91FF90EF90089521E030E0082EDC
:1002E00002C0220F331F0A94E2F720953095409107
:1002F000F7055091F805422353235093F805409396
:10030000F7050C945019CF92DF92FF920F931F9331
:10031000CF93DF931F92CDB7DEB78C01F62ECC249E
:10032000C394D12C002E02C0CC0CDD1C0A94E2F741
:100330008091C9059091CA058C219D21892BD9F006
:10034000F801E553FA4F808125E0829FC001112416
:1003500087579A4F79830E9496178091C90590918B
:10036000CA05960120953095822393239093CA0560
:100370008093C90579816F2D802F0E945918809133
:10038000F7059091F8058C299D299093F8058093A5
:10039000F705F801E951FA4FF08280E090E00F9004
:1003A000DF91CF911F910F91FF90DF90CF90089533
:1003B0000E94221D80E090E0089520E030E0A90135
:1003C0000E94FA1A80E090E008959A01442737FDD0
:1003D0004095542F0E94FA1A80E090E008958F3FD4
:1003E0002FEF920741F08A30910541F0029649F4CF
:1003F00068EA70E008C065EB70E005C061EA70E093
:1004000002C064E970E08DE596E00C94231EDC01E7
:10041000ED91FC910190F081E02D09940F931F93D1
:10042000CF93DF93EC01FB0121E030E0062E02C008
:10043000220F331F0A94E2F7C901809590954091ED
:10044000F7055091F805482359235093F805409338
:10045000F7058B0105531A4FBE01695875404DECE5
:100460005CEC649FC001659F900D749F900D1124FA
:1004700065E070E00E94F520D8016C934091C905B9
:100480005091CA05422B532B5093CA054093C9057E
:10049000BF01CE01DF91CF911F910F910C94901766
:1004A000CF93DF939C01EB01FC01E958F5404DEC43
:1004B0005CECE49FC001E59F900DF49F900D11242A
:1004C00065E070E00E94F52065527A4FFB01C08321
:1004D000BE01C901DF91CF910C94D7172F923F92A3
:1004E0004F925F926F927F928F929F92AF92BF9244
:1004F000CF92DF92EF92FF920F931F93CF93DF93F0
:10050000CDB7DEB76E970FB6F894DEBF0FBECDBF86
:100510008C017B015C8F4B8FE80EF91ED8012C916A
:10052000222389F00E151F0558F4203219F40F5FAD
:100530001F4FF4CF87EF820F8230C8F32D30B9F30D
:100540000E151F05E1F581E090E032C00E151F0584
:1005500078F4121613060CF0A5C6483209F09CC6B2
:100560002F5F3F4F0F5F1F4FD8014C914111EECFCE
:10057000B801681B790BAE014F5F5F4F0E946E029E
:10058000009709F0CAC6FAE2DF1609F4B3C62FE2F3
:10059000D212A6C6898D9A8D69817A810E9409211D
:1005A0007A8F698FD8018C918111B2C6898D9A8D0D
:1005B000EB8DFC8D9183808380E090E0AEC6283285
:1005C00079F4F80131962081222309F480C2EE15D6
:1005D000FF0508F0A6C22032A9F3293099F3A1C281
:1005E000213231F4D80111968C918D3339F416C033
:1005F0002E3721F02D3211F02B3281F40F5F1F4F77
:10060000F8018081882309F462C20E151F0508F0E5
:10061000A2C2803299F3893089F39DC280ED820FA6
:100620008A3008F08DC0203309F06AC0F80181815A
:10063000883709F046C01A8E198E0E5F1F4F80E072
:1006400090E0D8012C91222309F4BEC10E151F059C
:1006500008F0BAC130ED320F3A3058F464E0880F38
:10066000991F6A95E1F7332727FD3095205331090B
:1006700014C04FE9420F322F3F7D3154363008F01D
:10068000A3C1463078F454E0880F991F5A95E1F7DA
:10069000332727FD309527553109820F931F0F5FB0
:1006A0001F4FCFCF3FEB320F3630C8F744E0880FF3
:1006B000991F4A95E1F7332727FD309527533109D4
:1006C000ECCF8236E9F41A8E198E0E5F1F4F80E050
:1006D00090E0F801208130ED320F323008F074C123
:1006E0000E151F0508F070C1880F991F332727FDCD
:1006F0003095205331090F5F1F4F820F931FE9CFB1
:100700001A8E198E80E090E04AE0D8012C910E15E7
:100710001F0508F059C130ED320F3A3008F054C1CE
:10072000BC01469FC001479F900D1124332727FD30
:100730003095205331090F5F1F4F820F931FE5CF74
:10074000822F8F7D81548A3140F0BAE2CB2EB5E002
:10075000DB2E4701801A910A27C0F80181818F7D25
:1007600081548A3190F38FE9820F332727FD30952A
:100770008A3118F42156310902C021543109F90196
:10078000EE0FFF1FE650FA4F808191819A8F898F7B
:1007900029C1D6011296AD90BC9013978A149B0480
:1007A0004CF4F6E0CF0ED11C22E7C21625E0D206AB
:1007B00081F710C043E050E0B8018D919C910E94F8
:1007C0002522892B71F7F601848195819A8F898F73
:1007D0000A0D1B1DEAEFCE2EE4E0DE2E0BC0D60183
:1007E0001296AD90BC9013978A149B0464F4B6E003
:1007F000CB0ED11C4701801A910AEAE2CE16E5E041
:10080000DE0669F73FC0A501B8018D919C910E9459
:100810002522892B61F70A0D1B1DC80121E030E05C
:10082000F8014081442391F00E151F0578F421153D
:10083000310581F0483219F42F5F3F4F04C049322F
:1008400011F4215031090F5F1F4FEACF1216130622
:100850000CF43DC1B801681B790B61507109AE0100
:100860004F5F5F4F0E946E02892B09F030C1D601A5
:100870001496ED91FC91159789819A8109959A8F2B
:10088000898FB5CF212C312C6EE5C62E63E0D62E94
:10089000BE016F5F7F4F2B017EE6A72E73E0B72E60
:1008A0003F922F92DF92CF925F924F920E943B2213
:1008B000D2010D900020E9F7FD0131973F01641846
:1008C00075080F900F900F900F900F900F90861457
:1008D000970444F0A301B801C2010E942522892B8C
:1008E00009F491C23F922F92BF92AF925F924F92C2
:1008F0000E943B22D2010D900020E9F7FD013197C3
:100900003F01641875080F900F900F900F900F9093
:100910000F908614970444F0A301B801C2010E940D
:100920002522892B09F473C23F922F92ADE7B3E0E1
:10093000BF93AF935F924F920E943B22D2010D90E2
:100940000020E9F7FD0131973F01641875080F9009
:100950000F900F900F900F900F90861497040CF447
:1009600024C1A301B801C2010E942522892B09F4E8
:1009700052C21BC10E151F0578F4141615060CF093
:10098000F8C0383209F0EFC04F5F5F4F0F5F1F4F65
:10099000D8013C913111EECFB801681B790BAE0143
:1009A000475E5F4F2E8F0E946E022E8D892B09F0BD
:1009B0008EC0213209F0E9C081E090E0298D3A8DA6
:1009C000232B11F080E090E09A8F898F2FEF3FEF7B
:1009D000F8018081882309F468C00E151F0538F4DA
:1009E000803219F40F5F1F4FF3CF8930D9F30E1502
:1009F0001F0509F45AC08D3309F46AC2D801DC908E
:100A0000BAE2DB1609F47FC2EFE2DE1609F47BC21C
:100A1000F5E2DF1609F477C2C8012BE2D21609F419
:100A20007CC24DE2D41609F478C2F801B0808B2D57
:100A30008D7F8C3309F4B7C2FDE3BF12AEC2D8017B
:100A400011968C918D3309F4AEC2D801DC90B6E2D8
:100A5000DB1265C3F8018181863209F06CC3D801CD
:100A60002C91263209F0CBC311968C91863209F075
:100A700055C0C8010296B701681B790BAE014F5FE4
:100A80005F4F2E8F0E946E022E8D009709F045C495
:100A9000332727FD3095898D9A8D2632310509F44B
:100AA000B7C32C37310509F4B6C3898D9A8DAB8D48
:100AB000BC8D8D939C9380CDEE15FF0540F431964F
:100AC0004832A9F52F5F3F4F40814111F5CF8EEF9E
:100AD00026C00E151F0578F4141615060CF0B7C3C2
:100AE000683209F0AEC34F5F5F4F0F5F1F4FF801D1
:100AF00060816111EECFB801681B790BAE014F5FC9
:100B00005F4F2E8F3D8F0E946E022E8D3D8D009780
:100B100009F003C42433310508F4A1C38DEF9FEF1E
:100B2000FCC3CF01293299F221E030E0CDCF493228
:100B300059F62150310941F68F01BF01681B790B2D
:100B400061507109AE01475E5F4F0E946E020097CF
:100B500009F43CCFE2C3C8010E151F0509F4B7CF55
:100B600040E050E015CF393209F010CF4150510923
:100B70000DCF3B3209F410CF3D3209F40DCF64ECB8
:100B8000630F633008F0FDCE07CF2E3729F4898D2F
:100B90009A8D8095909518CF2D3209F017CF898DB9
:100BA0009A8D9195819591090FCFBFEF2B1A3B0A32
:100BB000ECE02E16310409F073CE56ED852E54E08C
:100BC000952E5701A01AB10AEAEF8E16E4E09E06B0
:100BD00009F47BC0D4011296CD90DC901397AC142D
:100BE000BD040CF46EC0A601B8018D919C910E94C9
:100BF0002522892B09F065C0C8018C0D9D1D5C0163
:100C000020E030E0F5014081442309F460CFAE14C8
:100C1000BF0418F52115310569F0483219F42F5F2A
:100C20003F4F04C0493211F421503109BFEFAB1AD4
:100C3000BB0AE8CF4C3289F7B501681B790BAE01CE
:100C40004B5E5F4F0E946E02892B09F040CFC501B9
:100C500001968C0121E030E00FC04C3269F337CFB0
:100C60000E151F0598F42115310599F0483249F405
:100C70002F5F3F4F0F5F1F4FD8014C914111F0CFB5
:100C800005C04932B9F721503109F4CF232B09F0BF
:100C90001ECFB801681B790B61507109A2010E9437
:100CA0006E02892B09F013CF69817A81D4011496E1
:100CB000ED91FC9115978D899E8909959A8F898F61
:100CC00004C0B6E08B0E911C7FCFC701801B910B37
:100CD00005970CF47BCE45E050E0B8018DE893E039
:100CE0000E942522892B09F071CEC80105966C015E
:100CF00020E030E0D6014C91442309F4E8CECE1434
:100D0000DF0418F52115310569F0483219F42F5F19
:100D10003F4F04C0493211F421503109FFEFCF1A7F
:100D2000DF0AE8CF4C3289F7B601681B790BAE01B8
:100D3000495E5F4F0E946E02892B09F0C8CEC60142
:100D400001968C0120E030E00FC04C3269F3BFCE39
:100D50000E151F0540F52115310581F0483249F483
:100D60002F5F3F4F0F5F1F4FF80140814111F0CFC0
:100D7000AECE4932B9F721503109F4CF4C3271F778
:100D8000B801681B790B61507109AE014B5E5F4F72
:100D90000E946E02892B09F09ACEC80101968C013F
:100DA00021E030E00FC04C3259F391CE0E151F05F3
:100DB00098F42115310599F0483249F42F5F3F4FDF
:100DC0000F5F1F4FD8014C914111F0CF05C0493240
:100DD000B9F721503109F4CF232B09F078CEB801AF
:100DE000681B790B61507109A2010E946E02892B68
:100DF00009F06DCE49815A816D897E898F89988DE0
:100E00000E94E501E1CDCC24C394D12C07C022E09F
:100E1000C22ED12C03C093E0C92ED12C060D171D74
:100E2000C80121E030E0D8014C91442391F00E1527
:100E30001F0578F42115310579F0483219F42F5F38
:100E40003F4F04C0493211F4215031090F5F1F4F49
:100E5000EACF232B09F03BCEB801681B790B615018
:100E60007109AE014B5E5F4F0E946E02892B09F043
:100E70002ECEB1E0CB16D10469F46D897E8925E0D0
:100E8000229DC001239D900D112487579A4F0E94E7
:100E90000E021BC0E2E0CE16D10469F46D897E8992
:100EA00025E0229DC001239D900D112487579A4F64
:100EB0000E9450020AC025E0229DC001239D900D92
:100EC000112487579A4F0E9496171A8E198E75CE45
:100ED000F80181818D3309F491CD0F5F1F4FD80147
:100EE0008C91882309F4F3CD0E151F0508F0A1C1DC
:100EF000803299F3893089F39CC10E151F0508F0E3
:100F0000C3C1803239F40F5F1F4FF8018081811116
:100F1000F4CFDDCD8930B9F3B7C120E030E00CC0AB
:100F20000E151F0568F4121613069CF4483261F47E
:100F30002F5F3F4F0F5F1F4FD8014C914111F0CFF2
:100F4000232B09F0C4CD0CC04932A1F7215031093F
:100F5000F1CF54EC540F533098F3413239F7F0CFBE
:100F6000B801681B790BAE014F5F5F4F0E946E02A4
:100F7000009709F0D2C1898D9A8D29813A81820F1B
:100F8000931F9A8F898FF8012081222309F48FCD36
:100F90000E151F0509F049CD8ACDB1E2BB1255CD22
:100FA000F80181814FCDD8011196CC90DD24C7FC8A
:100FB000D094C601CC97039718F0C801019602C0DF
:100FC000C80102968C0120E030E0F8014081411117
:100FD00004C0232B09F07BCD19C00E151F05C8F7DF
:100FE0001216130664F4483219F42F5F3F4F04C001
:100FF000493211F4215031090F5F1F4FE6CF4632BD
:1010000041F34E3531F34C3771F7E3CFB801681B2C
:10101000790BAE014F5F5F4F0E946E02009709F09F
:101020007CC18B2D992787FD90958E33910509F50D
:10103000898D9A8DFDE3CF16D10441F421E030E093
:1010400049815A8184179507CCF536C02EE3C21624
:10105000D10439F4098002C0959587950A94E2F786
:1010600052C021E030E049815A814817590734F1D4
:1010700023C08C33910529F5898D9A8D4DE3C416D3
:10108000D10441F421E030E049815A8148175907E1
:10109000ACF412C06CE3C616D10439F4098002C066
:1010A000880F991F0A94E2F72EC021E030E04981B1
:1010B0005A818417950714F020E030E03A8F298F89
:1010C00024C08D33910571F47DE3C716D104E9F492
:1010D00081E090E0498D5A8D29813A81421753076A
:1010E00081F411C0819789F48DE3C816D10469F4A5
:1010F00081E090E0498D5A8D29813A81421753074A
:1011000011F480E090E09A8F898FD8018C91882328
:1011100009F44CCA0E151F0509F097CC47CAFCE725
:10112000DF1206C0D80111968C918C3721F497CC30
:10113000BEE5DB1294CCC80101968C0120E030E0C2
:10114000F8014081411104C0232B09F0C0CC1FC01D
:101150000E151F05C8F71216130664F4483219F469
:101160002F5F3F4F04C0493211F4215031090F5F06
:101170001F4FE6CF463221F441814632C1F7E4CF1A
:101180004C3761F7F80141814C3789F7DDCFB80161
:10119000681B790BAE014F5F5F4F0E946E02009794
:1011A00009F0BBC08D2D992787FD9095863291055A
:1011B00039F4898D9A8D29813A818223932313C032
:1011C0008C37910539F4898D9A8D29813A81822B4A
:1011D000932B09C08E35910541F4898D9A8D298113
:1011E0003A81822793279A8F898FD8018C918823FF
:1011F00009F4DCC90E151F0509F031CCD7C92C370D
:1012000009F08CCCF80181818C3709F432CC86CC82
:10121000892B41F002C0892B39F481E029813A8180
:10122000232B19F480E001C081E090E09A8F898F30
:101230003CCCC8010E151F0509F449CC40E050E034
:1012400056CC693209F051CC415051094ECC6D3326
:1012500009F046CC61816D3309F047CC4CCC8981D3
:101260009A81F901EE0FFF1FE650FA4F91838083B8
:101270009A8F898FF8012081222309F418CC0E154A
:101280001F0509F0BBCB13CCC8010E151F0509F4CF
:101290001ECC20E030E068C9493209F063C9215012
:1012A000310960C956ED540F523008F461C94F320C
:1012B00009F45EC9542F577F553209F459C9542F88
:1012C0005D7F5C3309F454C94D3331F4F801418139
:1012D0004D3309F047C94CC9413209F03EC948C9EC
:1012E00045E2D4125FC9898D9A8D69817A810E9405
:1012F00009210BC0498D5A8D29813A81429FC00135
:10130000439F900D529F900D11249A8F898F4AC947
:101310000E151F0509F072CB49C96E960FB6F894E9
:10132000DEBF0FBECDBFDF91CF911F910F91FF9018
:10133000EF90DF90CF90BF90AF909F908F907F9075
:101340006F905F904F903F902F9008958E3008F0EF
:101350008E5021E030E0082E01C0220F0A94EAF7F7
:1013600020959091F90592239093F9050C943C18DF
:101370000C94A609EF92FF920F931F93CF93DF93E4
:10138000EC018B0181E090E00C2E02C0880F991FC8
:101390000A94E2F77C01E094F0942091F7053091F3
:1013A000F8052E213F213093F8052093F705209171
:1013B000C9053091CA0528233923232BB1F0FE013A
:1013C000E553FA4F808125E0829FC00111248757A1
:1013D0009A4F0E9496178091C9059091CA058E2157
:1013E0009F219093CA058093C9050230110549F4E5
:1013F00060E08C2F0E94E1188C2F8E500E94A6096D
:101400001BC00115110511F460E004C00130110585
:1014100021F461E08C2F0E94E1182E97C630D1058F
:1014200058F481E090E001C0880FCA95EAF79091E6
:10143000F905982B9093F90580E090E0DF91CF912A
:101440001F910F91FF90EF900895AB01E0915D0621
:10145000F0915E060280F381E02DBC018DE596E0FF
:101460000994CF93DF93C9E8D5E0CE010E94F61628
:10147000259685E0C53CD807C1F7DF91CF91089547
:101480000F931F93CF93DF93182F092FEB018091B8
:10149000C505882321F16FE770E08DE596E00E9495
:1014A00007026EE070E08DE596E00E940702602F73
:1014B0008DE596E00E941120612F8DE596E00E9457
:1014C00011206D2F8DE596E00E9411206C2F8DE587
:1014D00096E0DF91CF911F910F910C941120DF9135
:1014E000CF911F910F9108958DE596E00C94911F77
:1014F000CF92DF92EF92FF920F931F93CF93DF93E0
:101500008DE596E00E94911F892BD1F38DE596E041
:101510000E94AC1F8531910508F015C2FC01EC5CFE
:10152000FF4F0C945E216FE78DE596E00E9411203D
:1015300060E08DE596E00E94112060E053C06FE707
:101540008DE596E00E94112061E08DE596E00E9415
:101550001120CAEFD5E08E0169818DE596E00E94E9
:1015600011202296F80160818DE596E00E941120FD
:10157000F6E0CE32DF0779F7E6C16FE770E08DE580
:1015800096E00E94070262E070E08DE596E00E941E
:1015900007026AB18DE596E00E9411206BB18DE5DE
:1015A00096E00E94112069B18DE596E00E9411201D
:1015B00064B18DE596E00E94112065B18DE596E05D
:1015C0000E94112063B18DE596E00E94112067B161
:1015D0008DE596E00E94112068B18DE596E00E94AD
:1015E000112066B18DE596E0DF91CF911F910F91AB
:1015F000FF90EF90DF90CF900C9411206FE770E098
:101600008DE596E00E94070263E070E08DE596E0CC
:101610000E9407026091F9058DE596E00E94112075
:10162000C0E0D0E08091F90590E00C2E02C09595C5
:1016300087950A94E2F780FF07C060E08DE596E0A9
:101640000E94112060E00AC08C2F0E943C18182FC5
:10165000692F8DE596E00E941120612F8DE596E0BF
:101660000E9411202196C630D105E1F66CC16FE7CA
:1016700070E08DE596E00E94070264E070E08DE581
:1016800096E00E9407026091F8058DE596E00E94C1
:1016900011206091F7058DE596E00E941120609180
:1016A000CA058DE596E00E9411206091C9058DE57F
:1016B00096E00E941120C0E0D0E001E010E0980127
:1016C0000C2E02C0220F331F0A94E2F78091F70517
:1016D0009091F80582239323892B21F0FE01E95193
:1016E000FA4F0FC08091C9059091CA0582239323B8
:1016F000892B49F0FE01E553FA4FE081F0E0E55215
:10170000FA4F608101C060E08DE596E00E941120F3
:101710002196C031D10599F616C16FE770E08DE5CD
:1017200096E00E9407026DE070E08DE596E00E9471
:10173000070260918305709184056115710599F028
:10174000FB0101900020E9F7AF0141505109461B10
:10175000570BE0915D06F0915E060280F381E02D6B
:101760008DE596E009956FE770E08DE596E0DF91F5
:10177000CF911F910F91FF90EF90DF90CF900C943D
:10178000070281E08093C505DEC00E94C3196B018A
:101790007C016FE770E08DE596E00E9407026FE044
:1017A00070E08DE596E00E9407026F2D772788276D
:1017B00099278DE596E00E941120B7018827992787
:1017C0008DE596E00E94112099278F2D7E2D6D2D9D
:1017D0008DE596E00E9411206C2D04CF8DE596E0FA
:1017E0000E94911F892BD1F38DE596E00E94AC1FDA
:1017F000C82F8DE596E00E94911F892BD1F38DE5CE
:1018000096E00E94AC1FBC0177278C2F90E0DF91FF
:10181000CF911F910F91FF90EF90DF90CF900C949C
:10182000BA098DE596E00E94911F892BD1F38DE5D1
:1018300096E00E94AC1FC82F8DE596E00E94911F94
:10184000892BD1F38DE596E00E94AC1F682F8C2F79
:10185000DF91CF911F910F91FF90EF90DF90CF908C
:101860000C941A198DE596E00E94911F892BD1F3F3
:101870008DE596E00E94AC1FC82F8DE596E00E9492
:10188000911F892BD1F38DE596E00E94AC1FBC011E
:1018900077278C2F90E0DF91CF911F910F91FF90D0
:1018A000EF90DF90CF900C9483018DE596E00E943D
:1018B000911F892BD1F38DE596E00E94AC1FC82FB4
:1018C0008DE596E00E94911F892BD1F38DE596E07E
:1018D0000E94AC1FBC017727F5E0CF9FC001112407
:1018E00087579A4FDF91CF911F910F91FF90EF9003
:1018F000DF90CF900C9450028DE596E00E94911FEE
:10190000892BD1F38DE596E00E94AC1FC82F8DE5A1
:1019100096E00E94911F892BD1F38DE596E00E94FD
:10192000AC1FBC01772725E0C29FC0011124875757
:101930009A4FDF91CF911F910F91FF90EF90DF9021
:10194000CF900C940E02DF91CF911F910F91FF90D9
:10195000EF90DF90CF9008958DE596E00C94AC1F4A
:10196000FF920F931F93CF93DF938C01EC018DE5D2
:1019700096E00E94911F181619060CF051C08DE5D3
:1019800096E00E94AC1FF82E8FE7F81203C00E9469
:10199000780A4FC0C017D10759F48AE0F81208C07E
:1019A000809182058D3069F510928205F12C41C03D
:1019B00088E0F81218C0219768E070E08DE596E0A5
:1019C0000E94070260E270E08DE596E00E94070247
:1019D00068E070E08DE596E00E940702C017D1072D
:1019E00040F5E80126C083E0F81208C0F99262ECE5
:1019F00070E08DE596E00E94231E22C08AE0F81276
:101A000006C06DE070E08DE596E00E9407026F2D44
:101A1000772767FD70958DE596E00E940702F992A1
:101A20008AE0F81669F08DE0F81651F083E0F816B8
:101A300039F09E01201B310B2035310508F497CF7A
:101A4000F09282058DE0F8120AC08AE0FE0131971B
:101A500080836AE070E08DE596E00E9407021882BC
:101A6000DF91CF911F910F91FF900895EF92FF9218
:101A70000F931F93CF93DF93CDB7DEB7C355D10933
:101A80000FB6F894DEBF0FBECDBF8091C605882388
:101A900021F08E010F5F1F4F89C06091C70566233B
:101AA00029F070E080E090E00E94F2190E94740A30
:101AB000009709F4ACC00E94AC0C8F3719F40E9457
:101AC000780A9CC0833009F49CC084E993E00E94AA
:101AD000190181E08093C605DCCFF8010190002058
:101AE000E9F7CF0102977C01FC01108289818823EC
:101AF00009F484C06BE973E0C8010E941522892BA8
:101B000009F45CC06DE973E0C8010E941522892BBD
:101B100009F454C065EA73E0C8010E941522892BBC
:101B200009F455C067EA73E0C8010E941522892BA9
:101B300009F44DC06CE174E0C8010E941522892BA4
:101B400009F448C060EB73E0C8010E941522892B9C
:101B500009F440C066EB73E0C8010E941522892B8E
:101B600009F453C061EF73E0C8010E941522892B6C
:101B7000B9F160E074E0C8010E941522892B81F15F
:101B8000B701C8010E94E900FC0101900020E9F7BB
:101B9000BF0161507109681B790BAE014E5A5F4F4E
:101BA0000E946E02009719F10E94EF01C8010E9485
:101BB000B00C8981833009F090CF27C01092C60500
:101BC00081E08093C80584EF8093C70517C0109209
:101BD000C60514C01092C60581E08093C80504C0F4
:101BE0001092C6051092C8051092C70507C06496EA
:101BF0008EAD9FAD64970E940001D8CF80E090E049
:101C000006C088EB93E00E9419018AE090E0CD5A6B
:101C1000DF4F0FB6F894DEBF0FBECDBFDF91CF917F
:101C20001F910F91FF90EF9008952F923F924F9246
:101C30005F926F927F928F929F92AF92BF92CF925C
:101C4000DF92EF92FF920F931F93CF93DF93CDB765
:101C5000DEB72A970FB6F894DEBF0FBECDBF6C017A
:101C60007B01E80EF91EB701C6010E94E9008C0154
:101C7000FC01B080BB2009F45AC28E159F0508F004
:101C800056C248E050E067EA73E00E9425226C01EA
:101C9000009791F4F80180858B3331F4C8010896E0
:101CA000CC24C394D12C25C08032C1F397EF980F78
:101CB0009230A0F38D3091F345E050E066EC73E094
:101CC000C8010E942522892B79F5F80185818B3383
:101CD00039F4CD2819F3C8010596C12CD12C09C0BF
:101CE0008032B9F397EF980F923098F38D30E1F48A
:101CF000F0CFB7010E94E9007C01BC01601B710BB1
:101D000080918305909184059801281B390BC901A6
:101D10000E94400AF70180818B3309F08DC1CD28E4
:101D200009F051C182E050C145E050E06CEC73E035
:101D3000C8010E9425226C01009761F4F801858199
:101D4000982F977F9032F9F097EF980F9230D8F054
:101D50008D30C9F042E050E062ED73E0C8010E94AE
:101D60002522892B09F032C1F8018281982F977FB3
:101D7000903239F097EF980F923018F08D3009F0CB
:101D800025C1CD2841F42801F5E04F0E511CAA24AD
:101D9000A394B12C06C0280122E0420E511CA12CB4
:101DA000B12CB701C2010E94E900FC014081483218
:101DB000A1F064E170E0C2010E94250A80918305D0
:101DC000909184056AE070E09801281B390BC901E5
:101DD0000E94400A8EEF9FEFFDC34C013FEF831A34
:101DE000930A340181E090E0F3014081411108C081
:101DF000B30164197509C2010E94250AB30125C007
:101E00006E147F0460F4483211F4019604C0493224
:101E100011F4019731F0EFEF6E1A7E0AE5CF4932E7
:101E200039F7B701C30101960E94E9009C838B83B7
:101E3000FC018081811110C06B817C81641975095E
:101E4000C2010E94250A6B817C81601B710B80910D
:101E5000830590918405B8CF2B813C812E153F05D9
:101E600058F7690180E090E0F6014081411108C017
:101E7000B60164197509C2010E94250AB601E5CFB1
:101E8000CE14DF04A9F396012F5F3F4F3E832D83CD
:101E9000009759F04B3711F4019604C04D3711F4F7
:101EA000019741F0CD80DE80DFCF4D3719F04B3305
:101EB00009F01EC2B7018D819E810E94E9006C016C
:101EC000AB2809F0B3C144E050E065ED73E00E9437
:101ED0002522892B09F02DC1F60184818B3749F029
:101EE000803239F097EF980F923018F08D3009F06A
:101EF00020C1B701C60104960E94E9005C01FC0103
:101F00008081811108C0B50164197509C2010E9460
:101F1000250AB5019ACFAE14BF04A8F7150180E0D9
:101F200090E0F1014081411108C0B10164197509C7
:101F3000C2010E94250AB10188CF2E143F04A9F3E3
:101F4000009769F04B3711F4019605C04D3719F42D
:101F5000019709F4F1C03FEF231A330AE2CF4D375E
:101F600009F4EAC04B3309F0C7C1E6C08091C60549
:101F7000811125C0B8018B819C810E94150E813092
:101F8000910509F0ADC1AE014F5F5F4FB301C401D0
:101F90000E946E02009709F01DC38091C505882339
:101FA00009F47DC189819A81892B09F45CCE8091E5
:101FB000C5058111DFCF8091C8058823B9F20E9441
:101FC000360D892BB9F281E090E004C343E050E084
:101FD0006FEE73E0C8010E942522892B09F046C0EC
:101FE000F8018381982F977F903231F097EF980F07
:101FF000923010F08D30D1F5B701C80103960E94E0
:10200000E900FC0120812832B9F4B70101960E9451
:10201000E9005C019C838B83EB81FC81208122237E
:1020200059F0EE15FF0540F4CF0101962B3309F46A
:1020300067C19C838B83F0CF64E170E013C0EE1521
:10204000FF0560F4CF0101962B3309F460C19E8334
:102050008D83ED81FE8120812111F1CF6D817E8103
:10206000601B710BC8010E94250AB4CEFBE7680112
:10207000BF1619F02DE7B2120CC03FEFC31AD30AF6
:10208000F2CDCE14DF0479F08B3339F08FEFC81A1C
:10209000D80AF60180818111F4CFC016D10619F457
:1020A00081E090E038C08091C5055601A01AB10AC0
:1020B000811110C08091C805811104C08091C605AE
:1020C000882341F0B501C8010E94250A84EE93E0FF
:1020D0000E9419018091830590918405B5019801B2
:1020E000281B390BC9010E94400AAE014F5F5F4FA8
:1020F000B501C8010E946E024C01009751F0B50174
:10210000C8010E94250A84EE93E00E941901C401CF
:1021100061C280E090E03FEFC31AD30A892B09F037
:10212000A2CD0E94360D009709F49DCD53C280E0E8
:102130004BCFA12CB12C01C06101B301601B710B0D
:102140008091830590918405F801E81BF90BCF017C
:102150000E94400A8091C50568187908811114C051
:102160008091C805811104C08091C605882361F063
:1021700088EE93E00E94FB00B301C4010E94250A8F
:102180008DEE93E00E94FB00AE014F5F5F4FB30105
:10219000C4010E946E028C018091C50501151105D4
:1021A00079F0811141C08091C805811104C08091EE
:1021B000C6058823C9F184EE93E00E94190134C05A
:1021C00081111BC08091C805811104C08091C60592
:1021D000882399F085EE93E00E94FB0089819A8123
:1021E000892B19F08BEB93E002C080EC93E00E9406
:1021F000FB0084EE93E00E94190189819A81892B6A
:1022000041F06D817E812B813C81621B730BC90182
:1022100008C0A114B10409F426CDB1016A197B09E3
:10222000C5010E94150E7FCFC801D4C1B301601B48
:10223000710B80918305909184059801281B390BBF
:10224000C9010E94400A8091C505811116C0809184
:10225000C805811104C08091C605882371F08AEDFC
:1022600093E00E94FB00B30168197909C4010E9440
:10227000250A82EE93E00E94FB008091C505811142
:1022800005C00E94360D009709F0A4C168187908AE
:102290000D811E812B813C81021B130B74CE80911A
:1022A000C805811105C08091C605882309F47ACE3E
:1022B000B301C4010E94250A85EE93E00E94FB0051
:1022C00089819A81892B19F08BEB93E002C080EC15
:1022D00093E00E94FB0084EE93E00E94190162CE1D
:1022E0008230910509F4BFCC009709F44CCE72C13D
:1022F0004B3709F0D7CDD0CD4B3709F02CCE24CEBB
:10230000B7010E94E9003C019E838D83A2CEB701F4
:102310000E94E9004C012C01CC24C394D12CF20181
:102320002081211102C0B2019BCE4E145F04D8F768
:10233000C2010196283221F4FFEFCF1ADF0A06C04E
:10234000293221F421E0C21AD10811F02C01E7CF83
:10235000B7010E94E9009A878987FC018081811179
:1023600002C0BF017DCEEE15FF05D8F79F012F5F9C
:102370003F4F38872F83C114D10479F08B3721F474
:10238000FFEFCF1ADF0A06C08D3721F421E0C21A11
:10239000D10841F0EF81F885E1CF8D3719F08B330B
:1023A00009F014C1CF80D8848091C505882371F0CD
:1023B000B201601B710B8091830590918405F80137
:1023C000E81BF90BCF010E94400A2CC08091C80580
:1023D000811104C08091C605882321F183EF93E029
:1023E0000E94FB006B817C816A197B09C5010E94F8
:1023F000250A89EF93E00E94FB006D817E816619BA
:102400007709C3010E94250A89EF93E00E94FB002F
:10241000B20168197909C4010E94250A82EE93E08D
:102420000E94FB008091C505811118C08091C805EC
:10243000811104C08091C605882381F00E94360D69
:10244000009709F0C7C06B817C816A197B09C501BF
:102450000E94250A84EE93E00E9419016B817C8121
:102460006A197B09AE014F5F5F4FC5010E946E0282
:10247000009709F0AFC08091C50581110DC0809112
:10248000C805811104C08091C605882329F00E94E7
:10249000360D892B09F097CD0D811E81061917097C
:1024A00098012F5F3F4F3C832B832F81388589858F
:1024B0009A85281B390B38872F83481859085201F1
:1024C0009FEFA91AB90A80918305909184056B81C9
:1024D0007C819301281B390BC9010E94400AAE017F
:1024E0004F5F5F4FB801C3010E946E02009709F071
:1024F00071C08091C50581111FC08091C8058111EF
:1025000004C08091C6058823B9F0B801C3010E94B8
:10251000250A85EE93E00E94FB0089819A81892B30
:1025200019F08BEB93E002C080EC93E00E94FB007B
:1025300084EE93E00E94190189819A81892B09F424
:1025400092CB6F81788589859A850E94150E82309D
:10255000910528F08230910509F485CB3BC080912C
:10256000830590918405B501F401E81BF90BCF01B7
:102570000E94400A8091C505811110C08091C80554
:10258000811104C08091C605882341F0B201C401C5
:102590000E94250A84EE93E00E941901AE014F5F6C
:1025A0005F4FB201C4010E946E02009799F48091BE
:1025B000C805811105C08091C605882309F483CF21
:1025C0000E94360D009709F47ECF04C08B3709F0C6
:1025D000E1CED6CE2A960FB6F894DEBF0FBECDBFA1
:1025E000DF91CF911F910F91FF90EF90DF90CF90EF
:1025F000BF90AF909F908F907F906F905F904F9023
:102600003F902F900895CF92DF92EF92FF920F9319
:102610001F93CF93DF938C017B0126E040E052ECC7
:1026200061E070E08DE596E00E94762062ED70E05A
:102630008DE596E00E94231E109386050093850584
:102640001093840500938305F0928805E092870536
:102650008FEF93E00E942F24803509F047C0680176
:10266000C0E0D0E081E0E81AF108CE15DF0540F4C3
:10267000CE010E942F24F60181936F01811107C0C2
:10268000C00FD11F8881882321F0188202C02196B3
:10269000ECCF8EEF93E00E942F24823539F565EC64
:1026A00070E08DE596E00E94231E1092C605109200
:1026B000C8051092C7058091830590918405FC019F
:1026C00001900020E9F7BF0161507109681B790B87
:1026D0000E94150E009751F0DF91CF911F910F913D
:1026E000FF90EF90DF90CF900C94EF01DF91CF91AE
:1026F0001F910F91FF90EF90DF90CF90089568E5C4
:1027000072E084E091E00C940313AF92BF92CF92F9
:10271000DF92EF92FF920F931F93CF93DF93CDB78A
:10272000DEB7C355D1090FB6F894DEBF0FBECDBFDB
:102730008E010F5F1F4FC8010E94B00C63E070E074
:10274000C8010E940A22892B09F047C2D8010D90C6
:102750000020E9F7BD0162507109FB011082C80138
:102760000E94E900DC018C91882309F436C247E01D
:1027700050E06DE973E0C8010E942522892B49F4DD
:102780001092C60581E08093C80584EF8093C70549
:10279000BFC147E050E06CEF73E0C8010E94252202
:1027A000892B11F462E521C145E050E060EB73E054
:1027B000C8010E942522892B31F41092C60581E0C0
:1027C0008093C8058DC144E050E064E074E0C80126
:1027D0000E942522892B09F0B7C0CE0105960E94E0
:1027E000E1216C01C8010E94B00CE0908305F090DB
:1027F0008405F701570141E050E080818823F1F022
:10280000C416D5063CF19F012F5F3F4F8D3019F064
:102810008A3089F404C081818A3009F4F9019F016A
:102820002F5F3F4F4C155D05A1F08181882329F072
:102830004F5F5F4F5901F901E0CFF9014C155D057C
:102840004CF48081811106C0B801C7010E94FF21AC
:10285000C4C1F901B501D8010D900020E9F7AD011F
:1028600041505109401B510BCF018A199B09841714
:10287000950770F5D7010D900020E9F77D01DF0184
:102880000D900020E9F79D01215031092E1B3F0BCF
:10289000C7010196D501AE1BBF0BFD01E40FF51F6B
:1028A000EE0DFF1D31962E193F09A901480F591F42
:1028B00057FD05C0DC014E91CD014293F6CFF801E2
:1028C00001900020E9F73197E01BF10BEA0DFB1DA9
:1028D000D8010D900020E9F7CD010197801B910BE5
:1028E0009C01121613064CF4D8014D918D01D501AF
:1028F0004D935D0121503109F4CF97FF02C080E074
:1029000090E0680F791F6E177F0709F466C1DF0139
:102910000D900020E9F71197AE1BBF0B9F01CD0171
:102920008B011816190644F4F90141919F01F80131
:1029300041938F010197F5CFB7FF02C0A0E0B0E04F
:10294000A60FB71F1C9249C144E050E069E074E053
:10295000C8010E942522892BF1F500918305109171
:1029600084056801EE24E394F12CF801808188232A
:1029700009F433C198012F5F3F4F59018D3011F099
:102980008A3039F54AE050E0B7018DE596E00E94C3
:10299000EA1E62E970E08DE596E00E94E11DB80153
:1029A0006C197D09C6010E94250A84EE93E00E94FD
:1029B00019013FEFE31AF30AD8018C918D3029F405
:1029C00011968C918A3009F485010F5F1F4F6801C1
:1029D000CCCF8901CACF46E050E06EE074E0C80178
:1029E0000E942522892B21F460E08EEF93E0CFC076
:1029F00044E050E065E174E0C8010E942522892B83
:102A000009F061C01092840510928305E09085055D
:102A1000F090860580E090E0209187053091880550
:102A200082179307D8F5C8010E94B00C43E050E02C
:102A30006AE174E0C8010E942522C0908505D0900B
:102A40008605892B39F4D7011C92D0928405C09257
:102A5000830524C0F80101900020E9F73197E01BBD
:102A6000F10BC7018C199D09E80FF91F80918705AB
:102A70009091880501978E179F0780F0B801C701D4
:102A80000E941E22F60101900020E9F79F012150CB
:102A900031097901C9018C199D09BECF8091830547
:102AA00090918405892B09F098C08EE194E00E94F2
:102AB0001901E0918505F09186051082F093840557
:102AC000E09383058AC043E050E060E074E0C80111
:102AD0000E942522892B81F41092C6051092C80508
:102AE0001092C7058091830590918405DC010D90BB
:102AF0000020E9F7BD0115C044E050E06EE274E04B
:102B0000C8010E942522892BB1F481E08093C6057B
:102B10008091830590918405FC0101900020E9F7E4
:102B2000BF0161507109681B790B0E94150E009757
:102B300009F453C049C044E050E063E374E0C801C5
:102B40000E942522892B31F5E0918305F0918405BF
:102B5000DF010D900020E9F78D01015011090E1BD6
:102B60001F0BE12CF12C0E151F0574F0E09183056D
:102B7000F0918405EE0DFF1D6081C7010E9437248E
:102B8000BFEFEB1AFB0AEFCF60E58FEF93E00E94F7
:102B9000372423C06BE370E0C8010E940A2200972B
:102BA00011F0FC011082D8010D900020E9F7BD0161
:102BB00061507109601B710BAE014E5A5F4FC80125
:102BC0000E946E02009719F00E94EF0106C0649601
:102BD0008EAD9FAD64970E940001CD5ADF4F0FB6B6
:102BE000F894DEBF0FBECDBFDF91CF911F910F9143
:102BF000FF90EF90DF90CF90BF90AF9008958F92AD
:102C00009F92AF92BF92CF92DF92EF92FF924C01D0
:102C10000E94C3196B017C01AA2497FCA094BA2CD2
:102C20000E94C3196C197D098E099F0968157905E1
:102C30008A059B05A0F48DE596E00E94911F892BE3
:102C400079F38DE596E00E949E1F8F37910541F73D
:102C50008DE596E00E94AC1F0E94780AE1CF80E0EB
:102C600090E0FF90EF90DF90CF90BF90AF909F905B
:102C70008F9008951F920F920FB60F9211242F93E9
:102C80003F934F935F936F937F938F939F93AF93F4
:102C9000BF93EF93FF9380912F0687FF05C010929B
:102CA0008500109284001AC020912F06332727FD3B
:102CB000309580912E0690E0281739077CF480919A
:102CC0002F06992787FD9095FC01EE0FFF1FE80F57
:102CD000F91FE05DF94F808186FD15C080912F06B8
:102CE0008F5F80932F0620912F06332727FD309585
:102CF00080912E0690E028173907BCF480912F06AA
:102D00008C305CF112C080912F06992787FD909539
:102D1000FC01EE0FFF1FE80FF91FE05DF94F808106
:102D200060E08F730E941A19D9CF8091840090912E
:102D30008500049680349C4918F480E49CE905C021
:102D400080918400909185000496909389008093EF
:102D500088008FEF80932F0638C020918400309137
:102D6000850080912F06992787FD9095FC01EE0F35
:102D7000FF1FE80FF91FE05DF94F81819281820FFB
:102D8000931F909389008093880080912F06992744
:102D900087FD9095FC01EE0FFF1FE80FF91FE05D26
:102DA000F94F808186FF11C080912F06992787FDFA
:102DB0009095FC01EE0FFF1FE80FF91FE05DF94F42
:102DC000808161E08F730E941A19FF91EF91BF918A
:102DD000AF919F918F917F916F915F914F913F91B3
:102DE0002F910F900FBE0F901F90189520912E06D7
:102DF0002C30A0F431E0320F30932E06FC012083FA
:102E0000822F90E0FC01EE0FFF1FE80FF91FE05D3D
:102E1000F94F88EB9BE09283818308952FEFFC01AB
:102E200020830895DF92EF92FF920F931F93CF9329
:102E3000DF93EC01D62E7A01890188818C3008F06D
:102E400066C061E08D2D0E94E1188881A82FB0E056
:102E5000FD01EE0FFF1FEA0FFB1FE05DF94F2D2D67
:102E60002F739081907C922B908360E272E06E19B8
:102E70007F0977FF02C06D5F7F4F759567957595E8
:102E80006795698340E659E0401B510B57FF02C02C
:102E90004D5F5F4F55954795559547954A836CE033
:102EA0000E94E9209CE0899FB001112420E030E0DD
:102EB000A901460F571FFA01EE0FFF1FE40FF51F80
:102EC000E05DF94F908196FD16C02F5F3F4F2C308B
:102ED000310571F781110FC01092800082E080935C
:102EE00081001092850010928400B19A80916F0049
:102EF000826080936F00888190E0FC01EE0FFF1FDD
:102F0000E80FF91FE05DF94F80818064808388813C
:102F1000DF91CF911F910F91FF90EF90DF90089577
:102F200020E639E040E252E00C941217FC01808167
:102F300090E0FC01EE0FFF1FE80FF91FE05DF94F75
:102F400080818F7B80830895FC0180818C3070F5B7
:102F5000918128E830E0291B310997FD3395220F34
:102F6000331F220F331F621773077CF0928128E50D
:102F700032E0291B310997FD3395220F331F220FB1
:102F8000331F621773070CF49B0122503109220F83
:102F9000331F4FB7F89490E0FC01EE0FFF1FE80FCE
:102FA000F91FE05DF94F328321834FBF08954F929F
:102FB0005F926F927F92AF92BF92CF92DF92EF9229
:102FC000FF920F931F93CF93DF93EC01603282E067
:102FD00078070CF040C077FD06C0653B71052CF00A
:102FE00064EB70E002C060E070E0898128E830E0C6
:102FF000281B310987FD3395220F331F220F331F02
:103000005901CC24B7FCC094DC2C882777FD80952F
:10301000982F2A8148E552E0421B510927FD53951C
:10302000440F551F440F551F2A01662457FC609416
:10303000762C7F926F925F924F9214EBE12EF12CDF
:1030400000E010E020E030E0A9010E944A1F0F904C
:103050000F900F900F90CE01DF91CF911F910F91A4
:10306000FF90EF90DF90CF90BF90AF907F906F90E8
:103070005F904F900C94A4178E3008F08E5087709C
:1030800020915C0390E4299F90011124822B80936E
:103090007C0080917A00806480937A0080917A002D
:1030A00086FDFCCF809178002091790090E0922BF2
:1030B00008951F93CF93DF93182FEB0161E00E94D7
:1030C000E118209711F460E004C0CF3FD10539F436
:1030D00061E0812FDF91CF911F910C941A19E12F9C
:1030E000F0E0ED5FFE4FE491E330F9F048F4E130B9
:1030F000B9F0E230A1F584B5806284BDC8BD34C0AA
:10310000E730E9F0E83019F1E43049F580918000CA
:10311000806280938000D0938B00C0938A0024C08B
:1031200084B5806884BDC7BD1FC080918000806861
:1031300080938000D0938900C093880015C080914F
:10314000B00080688093B000C093B3000DC0809140
:10315000B00080628093B000C093B40005C0C03856
:10316000D1050CF0B5CFAFCFDF91CF911F9108956E
:10317000833081F028F4813099F08230A1F00895F5
:103180008730A9F08830B9F08430D1F48091800084
:103190008F7D03C0809180008F7780938000089599
:1031A00084B58F7702C084B58F7D84BD08958091EA
:1031B000B0008F7703C08091B0008F7D8093B00006
:1031C0000895CF93DF9390E0FC01E95EFE4F2491D8
:1031D000FC01E55DFE4F8491882349F190E0880F62
:1031E000991FFC01ED5AFE4FA591B491875B9E4F4C
:1031F000FC01C591D4919FB7611108C0F8948C91DE
:10320000209582238C93888182230AC0623051F4F6
:10321000F8948C91322F309583238C938881822B64
:10322000888304C0F8948C91822B8C939FBFDF918C
:10323000CF9108950F931F93CF93DF931F92CDB734
:10324000DEB7282F30E0F901ED5FFE4F8491F901E0
:10325000E95EFE4F1491F901E55DFE4F04910023F4
:10326000C9F0882321F069830E94B8186981E02F92
:10327000F0E0EE0FFF1FE75BFE4FA591B4919FB703
:10328000F8948C91611103C01095812301C0812BAA
:103290008C939FBF0F90DF91CF911F910F91089555
:1032A000CF93DF93282F30E0F901ED5FFE4F84913B
:1032B000F901E95EFE4FD491F901E55DFE4FC4913D
:1032C000CC2391F081110E94B818EC2FF0E0EE0FA2
:1032D000FF1FE15CFE4FA591B4912C912D2381E05D
:1032E00090E021F480E002C080E090E0DF91CF9197
:1032F00008951F920F920FB60F9211242F933F93B0
:103300008F939F93AF93BF938091550690915606EC
:10331000A0915706B09158063091540623E0230F30
:103320002D3720F40196A11DB11D05C026E8230FFD
:103330000296A11DB11D20935406809355069093CB
:103340005606A0935706B09358068091590690915F
:103350005A06A0915B06B0915C060196A11DB11DB5
:103360008093590690935A06A0935B06B0935C062F
:10337000BF91AF919F918F913F912F910F900FBE71
:103380000F901F9018952FB7F89460915506709183
:10339000560680915706909158062FBF08953FB763
:1033A000F8948091590690915A06A0915B06B091CD
:1033B0005C0626B5A89B05C02F3F19F00196A11DFC
:1033C000B11D3FBF6627782F892F9A2F620F711D7D
:1033D000811D911D42E0660F771F881F991F4A9536
:1033E000D1F70895CF92DF92EF92FF92CF93DF93C0
:1033F0006B017C010E94CF19EB01C114D104E104DF
:10340000F10489F00E94D8200E94CF196C1B7D0B1B
:10341000683E734090F381E0C81AD108E108F108D2
:10342000C851DC4FEACFDF91CF91FF90EF90DF9052
:10343000CF900895789484B5826084BD84B581600E
:1034400084BD85B5826085BD85B5816085BDEEE6AC
:10345000F0E0808181608083E1E8F0E0108280818B
:1034600082608083808181608083E0E8F0E08081F9
:1034700081608083E1EBF0E0808184608083E0EB19
:10348000F0E0808181608083EAE7F0E08081846001
:10349000808380818260808380818160808380815D
:1034A000806880831092C10008951F920F920FB61A
:1034B0000F9211242F938F939F93EF93FF93E0919B
:1034C0006D06F0916E068081E0917306F0917406AE
:1034D00082FD12C09081809176068F5F8F7320915C
:1034E0007706821751F0E0917606F0E0E35AF94F43
:1034F000958F8093760601C08081FF91EF919F9117
:103500008F912F910F900FBE0F901F9018951F92C3
:103510000F920FB60F9211242F933F934F935F9307
:103520006F937F938F939F93AF93BF93EF93FF938B
:103530008DE596E00E94CE1FFF91EF91BF91AF9174
:103540009F918F917F916F915F914F913F912F91BB
:103550000F900FBE0F901F9018958DE596E00E947A
:10356000911F21E0892B09F420E0822F0895109209
:10357000600610925F0688EE93E0A0E0B0E08093D2
:10358000610690936206A0936306B093640686E793
:1035900095E090935E0680935D0685EC90E09093B5
:1035A0006A068093690684EC90E090936C068093A1
:1035B0006B0680EC90E090936E0680936D0681EC34
:1035C00090E09093700680936F0682EC90E0909369
:1035D00072068093710686EC90E090937406809357
:1035E0007306109276061092770610927806109263
:1035F000790608953F924F925F926F927F928F92D9
:103600009F92AF92BF92CF92DF92EF92FF920F9371
:103610001F93CF93DF9300D000D0CDB7DEB78B01DF
:1036200029013A0190915D03981721F09F3F09F01D
:10363000D3C104C0EDE5F1E0349081C080935D0317
:10364000EDE5F1E0E491EF3F09F4C6C1E13031F17D
:10365000E23009F44BC0E11171C014BC15BC94B543
:10366000926094BD95B5916095BD282F30E0F90129
:10367000E55DFE4FE491F0E0EE0FFF1FE75BFE4FCC
:103680004591549150930A0740930907F901E95E67
:10369000FE4F249120930807312C53C010928000D4
:1036A0001092810090918100986090938100909198
:1036B0008100916090938100282F30E0F901E55D51
:1036C000FE4FE491F0E0EE0FFF1FE75BFE4F4591E8
:1036D00054915093030740930207F901E95EFE4FAE
:1036E000249120930107332433942BC01092B0000F
:1036F0001092B1009091B00092609093B0009091C0
:10370000B10091609093B100282F30E0F901E55DA0
:10371000FE4FE491F0E0EE0FFF1FE75BFE4F459197
:1037200054915093FC064093FB06F901E95EFE4F6D
:1037300024912093FA0652E0352E03C03E2E37FC2A
:103740004BC161E00E94E1184801A12CB12C832DEE
:103750008D7F09F0C0C060E072E18AE790E0A501CA
:1037600094010E943F2129833A834B835C83690142
:103770007A0181E0C81AD108E108F1089FEFC91663
:10378000D104E104F10409F008F49AC060E472E4A1
:103790008FE090E0A50194010E943F2169017A0128
:1037A000E1E0CE1AD108E108F108F2E03F1219C0B9
:1037B0008FEFC816D104E104F10409F008F487C0C2
:1037C00060E970ED83E090E0A50194010E943F2143
:1037D00069017A0191E0C91AD108E108F10883E092
:1037E00001C082E0EFEFCE16D104E104F10409F04C
:1037F00008F467C068E478EE81E090E0A5019401E8
:103800000E943F2169017A01F1E0CF1AD108E10855
:10381000F1083320E1F082E038121BC09FEFC91697
:10382000D104E104F10409F008F4D4C064E274EFB7
:1038300080E090E0A50194010E943F2169017A0196
:10384000E1E0CE1AD108E108F10885E003C083E089
:1038500001C084E0FFEFCF16D104E104F10489F147
:1038600080F162E17AE780E090E0A50194010E9496
:103870003F2169017A0181E0C81AD108E108F10805
:10388000311002C084E001C086E09FEFC916D10468
:10389000E104F104B1F0A8F0C980DA80EB80FC808B
:1038A0009AE0F594E794D794C7949A95D1F7E1E01C
:1038B000CE1AD108E108F108332031F087E008C0C2
:1038C00081E0332011F004C085E085BD34C082E082
:1038D0008093B10030C060E072E18AE790E0A5011A
:1038E00094010E943F2169017A01F1E0CF1AD108C9
:1038F000E108F108C114D10481E0E806F10488F080
:1039000068E478EE81E090E0A50194010E943F21F7
:1039100069017A0191E0C91AD108E108F10893E040
:1039200001C091E0E1E03E1206C080918100887FF5
:10393000892B80938100411451046104710471F05A
:10394000D801AA0FBB1FA30192010E94642128EE97
:1039500033E040E050E00E941D2103C02FEF3FEF15
:10396000A901F1E03F16A1F082E0381619F13110FB
:1039700033C0C7BC20930B0730930C0740930D074F
:1039800050930E0780916E00826080936E0024C079
:10399000D0928900C09288002093040730930507D5
:1039A000409306075093070780916F0082608093D1
:1039B0006F0012C0C092B3002093FD063093FE0644
:1039C0004093FF06509300078091700082608093BF
:1039D000700002C084E07CCF0F900F900F900F908A
:1039E000DF91CF911F910F91FF90EF90DF90CF90DB
:1039F000BF90AF909F908F907F906F905F904F900F
:103A00003F900895813039F018F0823051F00895D8
:103A100010926E00089580916F008D7F80936F00EB
:103A20000895809170008D7F8093700081E0809375
:103A3000B0008091B100887F84608093B1001092C3
:103A4000B3000895CF93C82F80915D038C1307C0F6
:103A5000EDE5F1E084919FEF90935D0301C08FEF5E
:103A60000E94021D60E08C2FCF910C941A191F92B6
:103A70000F920FB60F9211242F933F934F935F93A2
:103A80006F937F938F939F93AF93BF93EF93FF9326
:103A90008091FD069091FE06A091FF06B09100076F
:103AA000892B8A2B8B2B51F19091FA06E091FB0622
:103AB000F091FC068081892780838091FD0690919A
:103AC000FE06A091FF06B0910007181619061A0607
:103AD0001B06C4F48091FD069091FE06A091FF069E
:103AE000B09100070197A109B1098093FD06909359
:103AF000FE06A093FF06B093000704C080915D030B
:103B00000E94221DFF91EF91BF91AF919F918F91E4
:103B10007F916F915F914F913F912F910F900FBEC9
:103B20000F901F90189508950E941A1A0E94931DD5
:103B30000E94DB00C0ECDFE10E94DD002097E1F392
:103B40000E94C01FF9CFCF92DF92EF92FF920F93A6
:103B50001F93CF93DF936C017A01EB01E60EF71E02
:103B600000E010E0CE15DF0561F06991D601ED911E
:103B7000FC910190F081E02DC6010995080F191FF5
:103B8000F1CFC801DF91CF911F910F91FF90EF907E
:103B9000DF90CF9008956115710581F0DB010D90E4
:103BA0000020E9F7AD0141505109461B570BDC01DC
:103BB000ED91FC910280F381E02D099480E090E08A
:103BC0000895EF92FF920F931F93CF93DF938C0191
:103BD000FB01C0E0D0E064917F018FEFE81AF80AA2
:103BE000662361F0D801ED91FC910190F081E02D08
:103BF000C8010995C80FD91FF701EDCFCE01DF919C
:103C0000CF911F910F91FF90EF9008950C94CB1DD1
:103C1000DC01ED91FC910190F081E02D09940F936E
:103C20001F93CF93DF93EC016DE00E94081E8C017F
:103C30006AE0CE010E94081E800F911FDF91CF9194
:103C40001F910F9108950F931F93CF93DF93EC0172
:103C50000E94E11D8C01CE010E940F1E800F911F5A
:103C6000DF91CF911F910F9108950F931F93CF93E1
:103C7000DF93EC010E94CB1D8C01CE010E940F1E30
:103C8000800F911FDF91CF911F910F9108958F9217
:103C90009F92AF92BF92CF92DF92EF92FF920F93DB
:103CA0001F93CF93DF93CDB7DEB7A1970FB6F894EC
:103CB000DEBF0FBECDBF7C01C42EE52FCB01D22EBF
:103CC00019A221E02D1510F02AE0D22E8E010F5DF1
:103CD0001F4F8D2C912CA12CB12C6C2D7E2FA5016A
:103CE00094010E941D218C2DD29E80191124015017
:103CF00011098A3014F4805D01C0895CF801808369
:103D0000211531054105510521F0C22EE32FCA01CD
:103D1000E4CFB801C7010E94CB1DA1960FB6F8945D
:103D2000DEBF0FBECDBFDF91CF911F910F91FF90EE
:103D3000EF90DF90CF90BF90AF909F908F900895BD
:103D4000CF92DF92EF92FF920F931F93CF93DF9367
:103D5000EC016A017B012115310579F4E881F981D3
:103D60000190F081E02D642FDF91CF911F910F9191
:103D7000FF90EF90DF90CF9009942A303105E9F45D
:103D800077FF1AC06DE20E94081E8C014427552758
:103D9000BA014C195D096E097F092AE0CE010E9423
:103DA000471E800F911FDF91CF911F910F91FF90C0
:103DB000EF90DF90CF9008952AE0B701A601CE01E1
:103DC000DF91CF911F910F91FF90EF90DF90CF90F7
:103DD0000C94471E9A01AB01662757FD6095762F1C
:103DE0000C94A01E0F931F93CF93DF93EC019A01C5
:103DF000AB01662757FD6095762F0E94A01E8C01AF
:103E0000CE010E940F1E800F911FDF91CF911F9155
:103E10000F910895CF93DF9300D000D0CDB7DEB7D8
:103E20009B01AC01611571058105910569F06983FC
:103E30003A834B835C830E94D32129813A814B8151
:103E40005C810E943F2103C060E070E0CB010F90D5
:103E50000F900F900F90DF91CF910895CF92DF9246
:103E6000EF92FF926B017C0162177307840795073D
:103E700064F4CA01B9016C197D098E099F090E9479
:103E80000A1F6C0D7D1D8E1D9F1DFF90EF90DF9012
:103E9000CF9008954F925F926F927F92AF92BF92B0
:103EA000CF92DF92EF92FF920F931F93CF93DF9306
:103EB000CDB7DEB729013A01621B730B840B950B5A
:103EC00029893A894B895C892A193B094C095D0982
:103ED000298B3A8B4B8B5C8B9B01AC0169897A896E
:103EE0008B899C890E94D920E418F50806091709D6
:103EF000A80197010E943F212A0D3B1D4C1D5D1D0D
:103F0000CA01B901DF91CF911F910F91FF90EF90FE
:103F1000DF90CF90BF90AF907F906F905F904F9069
:103F20000895FC01818D228D90E0805C9F4F821B63
:103F3000910960E470E00E9409210895FC01918DCF
:103F4000828D981731F0828DE80FF11D858D90E0FC
:103F500008958FEF9FEF0895FC01918D828D981742
:103F600061F0828DDF01A80FB11D5D968C91928D5D
:103F70009F5F9F73928F90E008958FEF9FEF08955A
:103F80008DEA9AE1892B49F080E090E0892B29F0B5
:103F90000E94AD1A81110C9400000895FC01848DDB
:103FA000DF01A80FB11DA35ABF4F2C91848D90E063
:103FB00001968F739927848FA689B7892C93A0893E
:103FC000B1898C9180648C93938D848D981306C0F5
:103FD0000288F389E02D80818F7D80830895CF93BF
:103FE000DF93EC01888D8823C9F0EA89FB89808101
:103FF00085FD05C0A889B9898C9186FD0FC00FB6D3
:1040000007FCF5CF808185FFF2CFA889B9898C9113
:1040100085FFEDCFCE010E94CE1FE7CFDF91CF917C
:104020000895CF92DF92FF920F931F93CF93DF9368
:104030001F92CDB7DEB76C01DC015B969C915B975C
:104040005C968C915C97981307C05096ED91FC910B
:104050005197808185FD32C0F601038D10E00F5F1E
:104060001F4F0F731127F02EF601848DF81211C027
:104070000FB607FCF9CFD6015096ED91FC91519700
:10408000808185FFF1CFC60169830E94CE1F6981BF
:10409000EBCF838DE80FF11DE35AFF4F6083D6010C
:1040A0005B960C935B975296ED91FC9153978081B0
:1040B0008062808381E058968C930DC0D60156961D
:1040C000ED91FC91579760835096ED91FC9151973B
:1040D00080818064808381E090E00F90DF91CF91B8
:1040E0001F910F91FF90DF90CF900895BF92CF92D4
:1040F000DF92EF92FF92CF93DF93EC016A017B0195
:10410000B22EE889F98982E08083411581EE580753
:1041100061057105A1F060E079E08DE390E0A70111
:1041200096010E941D2121503109410951095695DE
:10413000479537952795211580E1380798F0E8894C
:10414000F989108260E874E88EE190E0A701960199
:104150000E941D2121503109410951095695479569
:1041600037952795EC85FD853083EE85FF85208387
:10417000188EEC89FD89B082EA89FB898081806193
:104180008083EA89FB89808188608083EA89FB8952
:10419000808180688083EA89FB8980818F7D80832C
:1041A000DF91CF91FF90EF90DF90CF90BF90089577
:1041B0000895DB018F939F930E946421BF91AF917B
:1041C000A29F800D911DA39F900DB29F900D112471
:1041D0000895991B79E004C0991F961708F0961B63
:1041E000881F7A95C9F780950895AA1BBB1B51E1DA
:1041F00007C0AA1FBB1FA617B70710F0A61BB70B57
:10420000881F991F5A95A9F780959095BC01CD01FB
:10421000089597FB072E16F4009407D077FD09D078
:104220000E94F52007FC05D03EF4909581959F4FA4
:104230000895709561957F4F0895A1E21A2EAA1BEB
:10424000BB1BFD010DC0AA1FBB1FEE1FFF1FA21746
:10425000B307E407F50720F0A21BB30BE40BF50B43
:10426000661F771F881F991F1A9469F760957095CC
:10427000809590959B01AC01BD01CF010895052E5D
:1042800097FB1EF400940E94562157FD07D00E9410
:104290001D2107FC03D04EF40C94562150954095F7
:1042A000309521953F4F4F4F5F4F089590958095E2
:1042B000709561957F4F8F4F9F4F0895EE0FFF1FB1
:1042C0000590F491E02D09940E946F21A59F900D17
:1042D000B49F900DA49F800D911D11240895A29F5D
:1042E000B001B39FC001A39F700D811D1124911DCA
:1042F000B29F700D811D1124911D089597FF03C079
:1043000091958195910908958F929F92AF92BF9256
:10431000CF92DF92EF92FF92CF93DF93EC0168810F
:1043200079818A819B81611571058105910521F44F
:1043300064E279ED8BE597E02DE133EF41E050E069
:104340000E943F2149015A019B01AC01A7EAB1E457
:104350000E9464216B017C01ACEEB4EFA5019401D5
:104360000E94EE24C60ED71EE81EF91EF7FE06C0F8
:1043700081E0C81AD108E10880E8F80AC882D98229
:10438000EA82FB82C701B6019F77DF91CF91FF9050
:10439000EF90DF90CF90BF90AF909F908F90089557
:1043A0000E948421089580E091E00E948421089574
:1043B00060930001709301018093020190930301C7
:1043C0000895FC0188279927E89421912032E9F388
:1043D000293010F02E30C8F32B3241F02D3239F451
:1043E000689404C00E943322820F911D21912053B2
:1043F0002A30C0F31EF4909581959F4F0895FB01DC
:10440000DC010D900020E9F7119701900D9200203A
:10441000E1F70895FC018191861721F08823D9F7EF
:10442000992708953197CF010895FB01DC018D9103
:10443000019080190110D9F3990B0895FB01DC015B
:1044400001900D920020E1F70895FB01DC0141503D
:10445000504030F08D910190801919F40020B9F787
:10446000881B990B08957AE0979F902D879F802D48
:10447000910D11240895AEE0B0E0E1E4F2E20C9475
:1044800001250D891E8986E08C831A8309838FEFAD
:104490009FE79E838D83AE01475E5F4F6F89788D66
:1044A000CE0101960E945D22EF81F885E00FF11F99
:1044B00010822E96E4E00C941D25ACE0B0E0E3E61B
:1044C000F2E20C94F3247C016B018A01FC01178257
:1044D0001682838181FFBDC1CE0101964C01F70197
:1044E0009381F60193FD859193FF81916F0188235C
:1044F00009F4ABC1853239F493FD859193FF819125
:104500006F01853229F4B70190E00E945B24E7CF68
:10451000512C312C20E02032A0F48B3269F030F4A1
:10452000803259F0833269F420612CC08D3239F029
:10453000803339F4216026C02260246023C02860C3
:1045400021C027FD27C030ED380F3A3078F426FF20
:1045500006C0FAE05F9E300D1124532E13C08AE08E
:10456000389E300D1124332E20620CC08E3221F47F
:1045700026FD6BC1206406C08C3611F4206802C091
:10458000883641F4F60193FD859193FF81916F0187
:104590008111C1CF982F9F7D9554933028F40C5FE3
:1045A0001F4FFFE3F9830DC0833631F0833771F07D
:1045B000833509F05BC022C0F801808189830E5FDA
:1045C0001F4F44244394512C540115C03801F2E08C
:1045D0006F0E711CF801A080B18026FF03C0652D0D
:1045E00070E002C06FEF7FEFC5012C870E9450245E
:1045F0002C0183012C852F77222E17C03801F2E081
:104600006F0E711CF801A080B18026FF03C0652DDC
:1046100070E002C06FEF7FEFC5012C870E94452438
:104620002C012C852068222E830123FC1BC0832DA6
:1046300090E048165906B0F4B70180E290E00E947D
:104640005B243A94F4CFF50127FC859127FE8191F4
:104650005F01B70190E00E945B2431103A94F1E0D1
:104660004F1A51084114510471F7E5C0843611F016
:10467000893639F5F80127FF07C060817181828191
:1046800093810C5F1F4F08C060817181882777FD7F
:104690008095982F0E5F1F4F2F76B22E97FF09C07F
:1046A00090958095709561957F4F8F4F9F4F2068B3
:1046B000B22E2AE030E0A4010E948D24A82EA81872
:1046C00044C0853729F42F7EB22E2AE030E025C081
:1046D000F22FF97FBF2E8F36C1F018F4883579F0AC
:1046E000B4C0803719F0883721F0AFC02F2F206178
:1046F000B22EB4FE0DC08B2D8460B82E09C024FFED
:104700000AC09F2F9660B92E06C028E030E005C091
:1047100020E130E002C020E132E0F801B7FE07C03E
:1047200060817181828193810C5F1F4F06C060811F
:10473000718180E090E00E5F1F4FA4010E948D24E4
:10474000A82EA818FB2DFF77BF2EB6FE0BC02B2D71
:104750002E7FA51450F4B4FE0AC0B2FC08C02B2D65
:104760002E7E05C07A2C2B2D03C07A2C01C0752C0F
:1047700024FF0DC0FE01EA0DF11D8081803311F48C
:10478000297E09C022FF06C07394739404C0822F4F
:10479000867809F0739423FD13C020FF06C05A2CBD
:1047A000731418F4530C5718732C731468F4B7016E
:1047B00080E290E02C870E945B2473942C85F5CFD7
:1047C000731410F4371801C0312C24FF12C0B70144
:1047D00080E390E02C870E945B242C8522FF17C089
:1047E00021FF03C088E590E002C088E790E0B701B0
:1047F0000CC0822F867859F021FD02C080E201C0F2
:104800008BE227FD8DE2B70190E00E945B24A514A6
:1048100038F4B70180E390E00E945B245A94F7CF0C
:10482000AA94F401EA0DF11D8081B70190E00E9485
:104830005B24A110F5CF332009F451CEB70180E2FB
:1048400090E00E945B243A94F6CFF701868197812D
:1048500002C08FEF9FEF2C96E2E10C940F25F9999F
:10486000FECF92BD81BDF89A992780B50895262F75
:10487000F999FECF1FBA92BD81BD20BD0FB6F89445
:10488000FA9AF99A0FBE01960895FC0105906150BD
:1048900070400110D8F7809590958E0F9F1F089556
:1048A000FC016150704001900110D8F780959095FF
:1048B0008E0F9F1F08950F931F93CF93DF93182F91
:1048C000092FEB018B8181FD03C08FEF9FEF20C08B
:1048D00082FF10C04E815F812C813D8142175307BA
:1048E0007CF4E881F9819F012F5F3F4F3983288352
:1048F000108306C0E885F985812F0995892B29F752
:104900002E813F812F5F3F4F3F832E83812F902F3A
:10491000DF91CF911F910F910895FA01AA272830B6
:1049200051F1203181F1E8946F936E7F6E5F7F4F7C
:104930008F4F9F4FAF4FB1E03ED0B4E03CD0670FF8
:10494000781F891F9A1FA11D680F791F8A1F911D4B
:10495000A11D6A0F711D811D911DA11D20D009F49B
:1049600068943F912AE0269F11243019305D3193DD
:10497000DEF6CF010895462F4770405D4193B3E0C6
:104980000FD0C9F7F6CF462F4F70405D4A3318F06D
:10499000495D31FD4052419302D0A9F7EACFB4E01E
:1049A000A6959795879577956795BA95C9F70097D6
:1049B0006105710508959B01AC010A2E0694579577
:1049C000479537952795BA95C9F7620F731F841FCE
:1049D000951FA01D0895B7FF0C9464210E946421C7
:1049E000821B930B08952F923F924F925F926F928A
:1049F0007F928F929F92AF92BF92CF92DF92EF926F
:104A0000FF920F931F93CF93DF93CDB7DEB7CA1BEF
:104A1000DB0B0FB6F894DEBF0FBECDBF09942A881A
:104A2000398848885F846E847D848C849B84AA84C2
:104A3000B984C884DF80EE80FD800C811B81AA814F
:104A4000B981CE0FD11D0FB6F894DEBF0FBECDBF1A
:084A5000ED010895F894FFCF79
:104A580001000000666F72283B3B293B0000000004
:104A6800000000000000000000000000000000003E
:104A7800000000000000000000000000000000002E
:104A8800000000000000000000000000000000001E
:104A9800000000000000000000000000000000000E
:104CA80000000000000000000000000001FF736524
:104CB80072766F25642E6174746163682800736569
:104CC80072766F25642E7772697465280073657231
:104CD800766F25642E6465746163682800746F6E4E
:104CE80065332800E69A82E5819C006100616E695F
:104CF8006D617465006300636F6E74696E7565003D
:104D080064656275670053005E43007472756500E0
:104D180066616C736500627265616B007768696CC7
:104D28006500696600656C7365007768696C652065
:104D38002800290A003A2000696620280029006610
:104D48006F7200666F722028003B20006175746FD7
:104D580072756E0065646974006C697374006E6FB7
:104D68006175746F0070726F6700656E6400E7A804
:104D78008BE5BA8FE5A4AAE995BFE4BA86007374F7
:104D88006570007361766500616E616C6F6757725C
:104D980069746528006469676974616C577269741D
:104DA8006528006D696E28006D6178280070696E4D
:104DB8004D6F64652800746F6E6528006162732802
:104DC80000616E616C6F6752656164280064656C90
:104DD800617928006469676974616C526561642847
:104DE800006D696C6C697328006E6F546F6E65286E
:104DF8000072616E6428007072696E7428004C4FEE
:104E080057004849474800494E505554004F55549B
:104E180050555400413000413100413200413300C7
:104E280041340041350038040C00830145040D006D
:104E3800220153040400DF0058040400E4005D0468
:104E48000800BA0966040500DD016C0404007E212F
:104E580071040B00B8097D040600FF1584040C00DA
:104E68006D01910407001E0199040700D801A104EF
:104E780005000E01A70406000001AE0403000000AF
:104E8800B20404000100C00305000000BB030400D5
:104E98000100B70405000000BD0406000100C404B9
:104EA80002000E00C70402000F00CA04020010002E
:104EB800CD0402001100D00402001200D304020045
:104EC8001300000000001120A31D911FAC1F9E1F9E
:024ED800EF1FCA
:00000001FF
