:100000000C94A5000C94CD000C94CD000C94CD0064
:100010000C94CD000C94CD000C94CD000C943D1D9F
:100020000C94CD000C94CD000C94CD000C94401693
:100030000C94CD000C94CD000C94CD000C94CD000C
:100040000C947F190C94CD000C945B1A0C948D1AAF
:100050000C94CD000C94CD000C94CD000C94CD00EC
:100060000C94CD000C94CD007F0A8B0AA90AEA0AF1
:10007000230B8F0C8F0C8F0C8F0C8F0C8F0C8F0C15
:100080008F0C790BAD0BB10BDA0BFD0B1E0C410C79
:10009000680C20005E43007374617274207468659C
:1000A0002070726F6772616D20696E2045455052F5
:1000B0004F4D0054696E792043206C616E67756105
:1000C000676520696E74657270726574657220660A
:1000D0006F722041726475696E6F20C2A93230312F
:1000E00036204B656E526F626F740000000008008E
:1000F00002010000030407000000000000000001EE
:1001000002040810204080010204081020010204AB
:10011000081020040404040404040402020202027D
:100120000203030303030300000000230026002949
:100130000000000000250028002B00000000002423
:100140000027002A00021D0ABD1A11241FBECFEF8E
:10015000D8E0DEBFCDBF15E0A0E0B1E0E4E6FAE410
:1001600002C005900D92AC3CB107D9F727E0ACEC8A
:10017000B5E001C01D92A935B207E1F711E0CAE46C
:10018000D1E004C02297FE010E946621C634D10747
:10019000C9F70E949A1D0C9430250C9400000C9411
:1001A0006B130C947113681779070CF4CB01089545
:1001B000861797070CF4CB010895FC0120812223B8
:1001C00069F08617970750F4203211F40196F5CFA5
:1001D00037EF320F3230D0F32D30C1F30895BC0128
:1001E00087EA96E00C940C1ECF93DF93EC014AE073
:1001F00050E0BC0187EA96E00E94F81ECE01DF9134
:10020000CF9108952FEF3FE740E050E060E070E0CD
:10021000CB010E94341FCB010895BC0187EA96E010
:100220000C943B1E8F3F2FEF920729F00A9731F471
:100230008AE793E005C08EE593E002C08DE693E087
:100240000C940D010E94C919CB010895EF92FF9201
:100250000F931F93CF93DF931F92CDB7DEB77C012F
:1002600021E030E002C0220F331F8A95E2F780912F
:10027000130690911406822393238901009510950B
:10028000892BC1F0F701EB5EF94F808125E0829F59
:10029000C00111248D529A4F69830E949C1780914E
:1002A0001306909114068023912390931406809353
:1002B000130669818E2D0E9420198091410690912C
:1002C000420680239123909342068093410680E06A
:1002D00090E00F90DF91CF911F910F91FF90EF90E1
:1002E000089521E030E0082E02C0220F331F0A9447
:1002F000E2F7209530954091410650914206422305
:10030000532350934206409341060C945619CF92C2
:10031000DF92FF920F931F93CF93DF931F92CDB77E
:10032000DEB78C01F62ECC24C394D12C002E02C053
:10033000CC0CDD1C0A94E2F7809113069091140610
:100340008C219D21892BD9F0F801EB5EF94F80813A
:1003500025E0829FC00111248D529A4F79830E941B
:100360009C17809113069091140696012095309564
:1003700082239323909314068093130679816F2D23
:10038000802F0E945F1880914106909142068C292F
:100390009D299093420680934106F801EF5CF94F46
:1003A000F08280E090E00F90DF91CF911F910F914C
:1003B000FF90DF90CF9008950E94281D80E090E08C
:1003C000089520E030E0A9010E94001B80E090E049
:1003D00008959A01442737FD4095542F0E94001B31
:1003E00080E090E00895DC01ED91FC910190F081B6
:1003F000E02D09940F931F93CF93DF93EC01FB0142
:1004000021E030E0062E02C0220F331F0A94E2F7EB
:10041000C90180959095409141065091420648232C
:10042000592350934206409341068B010B5E194FAE
:10043000BE01635D75404DEC5CEC649FC001659F3F
:10044000900D749F900D112465E070E00E94FB20D8
:10045000D8016C934091130650911406422B532BF4
:100460005093140640931306BF01CE01DF91CF9144
:100470001F910F910C949617CF93DF939C01EB0182
:10048000FC01E35DF5404DEC5CECE49FC001E59FB1
:10049000900DF49F900D112465E070E00E94FB2008
:1004A0006B5D794FFB01C083BE01C901DF91CF9124
:1004B0000C94DD172F923F924F925F926F927F9232
:1004C0008F929F92AF92BF92CF92DF92EF92FF9264
:1004D0000F931F93CF93DF93CDB7DEB76E970FB611
:1004E000F894DEBF0FBECDBF8C017B015C8F4B8FBC
:1004F000E80EF91ED8012C91222389F00E151F0554
:1005000058F4203219F40F5F1F4FF4CF87EF820F9A
:100510008230C8F32D30B9F30E151F05E1F581E0E7
:1005200090E032C00E151F0578F4121613060CF079
:10053000A5C6483209F09CC62F5F3F4F0F5F1F4F83
:10054000D8014C914111EECFB801681B790BAE0177
:100550004F5F5F4F0E945A02009709F0CAC6FAE245
:10056000DF1609F4B3C62FE2D212A6C6898D9A8D82
:1005700069817A810E940F217A8F698FD8018C91CD
:100580008111B2C6898D9A8DEB8DFC8D918380830C
:1005900080E090E0AEC6283279F4F80131962081EF
:1005A000222309F480C2EE15FF0508F0A6C220320E
:1005B000A9F3293099F3A1C2213231F4D80111965F
:1005C0008C918D3339F416C02E3721F02D3211F075
:1005D0002B3281F40F5F1F4FF8018081882309F4CB
:1005E00062C20E151F0508F0A2C2803299F389304D
:1005F00089F39DC280ED820F8A3008F08DC02033D0
:1006000009F06AC0F8018181883709F046C01A8E66
:10061000198E0E5F1F4F80E090E0D8012C912223AD
:1006200009F4BEC10E151F0508F0BAC130ED320F36
:100630003A3058F464E0880F991F6A95E1F7332740
:1006400027FD30952053310914C04FE9420F322F56
:100650003F7D3154363008F0A3C1463078F454E081
:10066000880F991F5A95E1F7332727FD30952755B5
:100670003109820F931F0F5F1F4FCFCF3FEB320F18
:100680003630C8F744E0880F991F4A95E1F73327C1
:1006900027FD309527533109ECCF8236E9F41A8EC5
:1006A000198E0E5F1F4F80E090E0F801208130ED41
:1006B000320F323008F074C10E151F0508F070C1FA
:1006C000880F991F332727FD3095205331090F5F7D
:1006D0001F4F820F931FE9CF1A8E198E80E090E092
:1006E0004AE0D8012C910E151F0508F059C130EDD4
:1006F000320F3A3008F054C1BC01469FC001479FF9
:10070000900D1124332727FD3095205331090F5FB9
:100710001F4F820F931FE5CF822F8F7D81548A3127
:1007200040F0B3E7CB2EB5E0DB2E4701801A910AEB
:1007300027C0F80181818F7D81548A3190F38FE940
:10074000820F332727FD30958A3118F4215631095D
:1007500002C021543109F901EE0FFF1FEC5BF94F84
:10076000808191819A8F898F29C1D6011296AD908F
:10077000BC9013978A149B044CF4F6E0CF0ED11C66
:100780002BEBC21625E0D20681F710C043E050E003
:10079000B8018D919C910E942B22892B71F7F60153
:1007A000848195819A8F898F0A0D1B1DE3E4CE2EDB
:1007B000E5E0DE2E0BC0D6011296AD90BC901397EB
:1007C0008A149B0464F4B6E0CB0ED11C4701801A56
:1007D000910AE3E7CE16E5E0DE0669F73FC0A50122
:1007E000B8018D919C910E942B22892B61F70A0DF3
:1007F0001B1DC80121E030E0F8014081442391F045
:100800000E151F0578F42115310581F0483219F4D1
:100810002F5F3F4F04C0493211F4215031090F5F5F
:100820001F4FEACF121613060CF43DC1B801681B26
:10083000790B61507109AE014F5F5F4F0E945A0200
:10084000892B09F030C1D6011496ED91FC911597D2
:1008500089819A8109959A8F898FB5CF212C312C66
:1008600062E8C62E63E0D62EBE016F5F7F4F2B017C
:1008700072E9A72E73E0B72E3F922F92DF92CF92AC
:100880005F924F920E944122D2010D900020E9F721
:10089000FD0131973F01641875080F900F900F907C
:1008A0000F900F900F908614970444F0A301B801A5
:1008B000C2010E942B22892B09F491C23F922F92F0
:1008C000BF92AF925F924F920E944122D2010D904F
:1008D0000020E9F7FD0131973F01641875080F907A
:1008E0000F900F900F900F900F908614970444F084
:1008F000A301B801C2010E942B22892B09F473C203
:100900003F922F92A1EAB3E0BF93AF935F924F92D1
:100910000E944122D2010D900020E9F7FD0131979C
:100920003F01641875080F900F900F900F900F9073
:100930000F90861497040CF424C1A301B801C201DE
:100940000E942B22892B09F452C21BC10E151F05D0
:1009500078F4141615060CF0F8C0383209F0EFC020
:100960004F5F5F4F0F5F1F4FD8013C913111EECFAA
:10097000B801681B790BAE01475E5F4F2E8F0E9456
:100980005A022E8D892B09F08EC0213209F0E9C060
:1009900081E090E0298D3A8D232B11F080E090E0EA
:1009A0009A8F898F2FEF3FEFF8018081882309F418
:1009B00068C00E151F0538F4803219F40F5F1F4F01
:1009C000F3CF8930D9F30E151F0509F45AC08D33C2
:1009D00009F46AC2D801DC90BAE2DB1609F47FC2DE
:1009E000EFE2DE1609F47BC2F5E2DF1609F477C206
:1009F000C8012BE2D21609F47CC24DE2D41609F4E8
:100A000078C2F801B0808B2D8D7F8C3309F4B7C28A
:100A1000FDE3BF12AEC2D80111968C918D3309F45B
:100A2000AEC2D801DC90B6E2DB1265C3F801818169
:100A3000863209F06CC3D8012C91263209F0CBC361
:100A400011968C91863209F055C0C8010296B70103
:100A5000681B790BAE014F5F5F4F2E8F0E945A02C9
:100A60002E8D009709F045C4332727FD3095898DD9
:100A70009A8D2632310509F4B7C32C37310509F4B4
:100A8000B6C3898D9A8DAB8DBC8D8D939C9380CD93
:100A9000EE15FF0540F431964832A9F52F5F3F4F20
:100AA00040814111F5CF8EEF26C00E151F0578F459
:100AB000141615060CF0B7C3683209F0AEC34F5FC9
:100AC0005F4F0F5F1F4FF80160816111EECFB801DA
:100AD000681B790BAE014F5F5F4F2E8F3D8F0E94D9
:100AE0005A022E8D3D8D009709F003C42433310541
:100AF00008F4A1C38DEF9FEFFCC3CF01293299F217
:100B000021E030E0CDCF493259F62150310941F68C
:100B10008F01BF01681B790B61507109AE01475EFF
:100B20005F4F0E945A02009709F43CCFE2C3C8010C
:100B30000E151F0509F4B7CF40E050E015CF39324C
:100B400009F010CF415051090DCF3B3209F410CFBD
:100B50003D3209F40DCF64EC630F633008F0FDCE35
:100B600007CF2E3729F4898D9A8D8095909518CFCF
:100B70002D3209F017CF898D9A8D91958195910924
:100B80000FCFBFEF2B1A3B0AECE02E16310409F011
:100B900073CE5FE1852E55E0952E5701A01AB10A5C
:100BA000E3E48E16E5E09E0609F47BC0D4011296BC
:100BB000CD90DC901397AC14BD040CF46EC0A6016C
:100BC000B8018D919C910E942B22892B09F065C060
:100BD000C8018C0D9D1D5C0120E030E0F5014081D5
:100BE000442309F460CFAE14BF0418F52115310574
:100BF00069F0483219F42F5F3F4F04C0493211F4B5
:100C000021503109BFEFAB1ABB0AE8CF4C3289F74C
:100C1000B501681B790BAE014B5E5F4F0E945A0213
:100C2000892B09F040CFC50101968C0121E030E00D
:100C30000FC04C3269F337CF0E151F0598F42115FC
:100C4000310599F0483249F42F5F3F4F0F5F1F4F36
:100C5000D8014C914111F0CF05C04932B9F721506C
:100C60003109F4CF232B09F01ECFB801681B790B93
:100C700061507109A2010E945A02892B09F013CF19
:100C800069817A81D4011496ED91FC9115978D8933
:100C90009E8909959A8F898F04C0B6E08B0E911CAE
:100CA0007FCFC701801B910B05970CF47BCE45E0ED
:100CB00050E0B80181EB93E00E942B22892B09F0D0
:100CC00071CEC80105966C0120E030E0D6014C9150
:100CD000442309F4E8CECE14DF0418F521153105BC
:100CE00069F0483219F42F5F3F4F04C0493211F4C4
:100CF00021503109FFEFCF1ADF0AE8CF4C3289F7D4
:100D0000B601681B790BAE01495E5F4F0E945A0223
:100D1000892B09F0C8CEC60101968C0120E030E095
:100D20000FC04C3269F3BFCE0E151F0540F52115DB
:100D3000310581F0483249F42F5F3F4F0F5F1F4F5D
:100D4000F80140814111F0CFAECE4932B9F72150C0
:100D50003109F4CF4C3271F7B801681B790B61503F
:100D60007109AE014B5E5F4F0E945A02892B09F058
:100D70009ACEC80101968C0121E030E00FC04C32C0
:100D800059F391CE0E151F0598F42115310599F0F0
:100D9000483249F42F5F3F4F0F5F1F4FD8014C91EE
:100DA0004111F0CF05C04932B9F721503109F4CFD4
:100DB000232B09F078CEB801681B790B61507109BB
:100DC000A2010E945A02892B09F06DCE49815A81F5
:100DD0006D897E898F89988D0E94E901E1CDCC24AF
:100DE000C394D12C07C022E0C22ED12C03C093E0C3
:100DF000C92ED12C060D171DC80121E030E0D80105
:100E00004C91442391F00E151F0578F421153105FE
:100E100079F0483219F42F5F3F4F04C0493211F482
:100E2000215031090F5F1F4FEACF232B09F03BCE32
:100E3000B801681B790B61507109AE014B5E5F4FC1
:100E40000E945A02892B09F02ECEB1E0CB16D104B4
:100E500069F46D897E8925E0229DC001239D900D56
:100E600011248D529A4F0E94FA011BC0E2E0CE1667
:100E7000D10469F46D897E8925E0229DC001239DFE
:100E8000900D11248D529A4F0E943C020AC025E019
:100E9000229DC001239D900D11248D529A4F0E94D6
:100EA0009C171A8E198E75CEF80181818D3309F445
:100EB00091CD0F5F1F4FD8018C91882309F4F3CD9A
:100EC0000E151F0508F0A1C1803299F3893089F30E
:100ED0009CC10E151F0508F0C3C1803239F40F5FA5
:100EE0001F4FF80180818111F4CFDDCD8930B9F336
:100EF000B7C120E030E00CC00E151F0568F41216D3
:100F000013069CF4483261F42F5F3F4F0F5F1F4F71
:100F1000D8014C914111F0CF232B09F0C4CD0CC066
:100F20004932A1F721503109F1CF54EC540F53301D
:100F300098F3413239F7F0CFB801681B790BAE0155
:100F40004F5F5F4F0E945A02009709F0D2C1898D0E
:100F50009A8D29813A81820F931F9A8F898FF80188
:100F60002081222309F48FCD0E151F0509F049CDEC
:100F70008ACDB1E2BB1255CDF80181814FCDD801A8
:100F80001196CC90DD24C7FCD094C601CC97039772
:100F900018F0C801019602C0C80102968C0120E039
:100FA00030E0F8014081411104C0232B09F07BCDD2
:100FB00019C00E151F05C8F71216130664F448323F
:100FC00019F42F5F3F4F04C0493211F42150310909
:100FD0000F5F1F4FE6CF463241F34E3531F34C37AA
:100FE00071F7E3CFB801681B790BAE014F5F5F4F1C
:100FF0000E945A02009709F07CC18B2D992787FD2A
:1010000090958E33910509F5898D9A8DFDE3CF1664
:10101000D10441F421E030E049815A8184179507D9
:10102000CCF536C02EE3C216D10439F4098002C0D3
:10103000959587950A94E2F752C021E030E0498106
:101040005A814817590734F123C08C33910529F58B
:10105000898D9A8D4DE3C416D10441F421E030E02E
:1010600049815A8148175907ACF412C06CE3C6167F
:10107000D10439F4098002C0880F991F0A94E2F75D
:101080002EC021E030E049815A818417950714F081
:1010900020E030E03A8F298F24C08D33910571F420
:1010A0007DE3C716D104E9F481E090E0498D5A8DC3
:1010B00029813A814217530781F411C0819789F43D
:1010C0008DE3C816D10469F481E090E0498D5A8D12
:1010D00029813A814217530711F480E090E09A8FFA
:1010E000898FD8018C91882309F44CCA0E151F05ED
:1010F00009F097CC47CAFCE7DF1206C0D801119669
:101100008C918C3721F497CCBEE5DB1294CCC801CE
:1011100001968C0120E030E0F8014081411104C0CB
:10112000232B09F0C0CC1FC00E151F05C8F71216DF
:10113000130664F4483219F42F5F3F4F04C049325C
:1011400011F4215031090F5F1F4FE6CF463221F4D1
:1011500041814632C1F7E4CF4C3761F7F801418154
:101160004C3789F7DDCFB801681B790BAE014F5FB3
:101170005F4F0E945A02009709F0BBC08D2D99273E
:1011800087FD90958632910539F4898D9A8D298154
:101190003A818223932313C08C37910539F4898DCA
:1011A0009A8D29813A81822B932B09C08E35910526
:1011B00041F4898D9A8D29813A81822793279A8FCC
:1011C000898FD8018C91882309F4DCC90E151F057D
:1011D00009F031CCD7C92C3709F08CCCF8018181CA
:1011E0008C3709F432CC86CC892B41F002C0892B94
:1011F00039F481E029813A81232B19F480E001C080
:1012000081E090E09A8F898F3CCCC8010E151F05B4
:1012100009F449CC40E050E056CC693209F051CC99
:10122000415051094ECC6D3309F046CC61816D338C
:1012300009F047CC4CCC89819A81F901EE0FFF1F50
:10124000EC5BF94F918380839A8F898FF80120811D
:10125000222309F418CC0E151F0509F0BBCB13CCC3
:10126000C8010E151F0509F41ECC20E030E068C946
:10127000493209F063C92150310960C956ED540F54
:10128000523008F461C94F3209F45EC9542F577FB8
:10129000553209F459C9542F5D7F5C3309F454C9A0
:1012A0004D3331F4F80141814D3309F047C94CC940
:1012B000413209F03EC948C945E2D4125FC9898D5F
:1012C0009A8D69817A810E940F210BC0498D5A8DB8
:1012D00029813A81429FC001439F900D529F900DFA
:1012E00011249A8F898F4AC90E151F0509F072CBF8
:1012F00049C96E960FB6F894DEBF0FBECDBFDF9121
:10130000CF911F910F91FF90EF90DF90CF90BF9002
:10131000AF909F908F907F906F905F904F903F9095
:101320002F9008958E3008F08E5021E030E0082E86
:1013300001C0220F0A94EAF7209590914306922368
:10134000909343060C9442180C949209EF92FF92EA
:101350000F931F93CF93DF93EC018B0181E090E01B
:101360000C2E02C0880F991F0A94E2F77C01E094CA
:10137000F09420914106309142062E213F21309376
:10138000420620934106209113063091140628232B
:101390003923232BB1F0FE01EB5EF94F808125E06C
:1013A000829FC00111248D529A4F0E949C178091F8
:1013B0001306909114068E219F219093140680931A
:1013C00013060230110549F460E08C2F0E94E718E3
:1013D0008C2F8E500E9492091BC00115110511F42B
:1013E00060E004C00130110521F461E08C2F0E94FF
:1013F000E7182E97C630D10558F481E090E001C07F
:10140000880FCA95EAF790914306982B909343066C
:1014100080E090E0DF91CF911F910F91FF90EF90CE
:101420000895AB01E091A706F091A8060280F38130
:10143000E02DBC0187EA96E00994CF93DF93C3EDDA
:10144000D5E0CE010E94FC16259686E0CF30D80765
:10145000C1F7DF91CF9108950F931F93CF93DF933F
:10146000182F092FEB0180910F06882321F16FE7D8
:1014700070E087EA96E00E94F3016EE070E087EA90
:1014800096E00E94F301602F87EA96E00E94172001
:10149000612F87EA96E00E9417206D2F87EA96E079
:1014A0000E9417206C2F87EA96E0DF91CF911F9161
:1014B0000F910C941720DF91CF911F910F910895F8
:1014C00087EA96E00C94971FCF92DF92EF92FF92FB
:1014D0000F931F93CF93DF9387EA96E00E94971FA5
:1014E000892BD1F387EA96E00E94B21F85319105DE
:1014F00008F015C2FC01EC5CFF4F0C9464216FE70F
:1015000087EA96E00E94172060E087EA96E00E9452
:10151000172060E053C06FE787EA96E00E9417202B
:1015200061E087EA96E00E941720C4E4D6E08E01CD
:10153000698187EA96E00E9417202296F80160816F
:1015400087EA96E00E941720F6E0C837DF0779F7B0
:10155000E6C16FE770E087EA96E00E94F30162E07F
:1015600070E087EA96E00E94F3016AB187EA96E0AC
:101570000E9417206BB187EA96E00E94172069B19C
:1015800087EA96E00E94172064B187EA96E00E94FD
:10159000172065B187EA96E00E94172063B187EAB9
:1015A00096E00E94172067B187EA96E00E94172014
:1015B00068B187EA96E00E94172066B187EA96E054
:1015C000DF91CF911F910F91FF90EF90DF90CF901F
:1015D0000C9417206FE770E087EA96E00E94F30111
:1015E00063E070E087EA96E00E94F30160914306B1
:1015F00087EA96E00E941720C0E0D0E08091430681
:1016000090E00C2E02C0959587950A94E2F780FF32
:1016100007C060E087EA96E00E94172060E00AC0F9
:101620008C2F0E944218182F692F87EA96E00E949B
:101630001720612F87EA96E00E9417202196C63076
:10164000D105E1F66CC16FE770E087EA96E00E9491
:10165000F30164E070E087EA96E00E94F301609194
:10166000420687EA96E00E9417206091410687EAC9
:1016700096E00E9417206091140687EA96E00E9487
:1016800017206091130687EA96E00E941720C0E0B9
:10169000D0E001E010E098010C2E02C0220F331FB1
:1016A0000A94E2F7809141069091420682239323A7
:1016B000892B21F0FE01EF5CF94F0FC080911306DA
:1016C0009091140682239323892B49F0FE01EB5E4F
:1016D000F94FE081F0E0EB5DF94F608101C060E01F
:1016E00087EA96E00E9417202196C031D10599F62D
:1016F00016C16FE770E087EA96E00E94F3016DE0A3
:1017000070E087EA96E00E94F3016091CD05709148
:10171000CE056115710599F0FB0101900020E9F7F4
:10172000AF0141505109461B570BE091A706F091BC
:10173000A8060280F381E02D87EA96E009956FE71D
:1017400070E087EA96E0DF91CF911F910F91FF90B3
:10175000EF90DF90CF900C94F30181E080930F061F
:10176000DEC00E94C9196B017C016FE770E087EA57
:1017700096E00E94F3016FE070E087EA96E00E9435
:10178000F3016F2D77278827992787EA96E00E9433
:101790001720B7018827992787EA96E00E9417202B
:1017A00099278F2D7E2D6D2D87EA96E00E941720B8
:1017B0006C2D04CF87EA96E00E94971F892BD1F306
:1017C00087EA96E00E94B21FC82F87EA96E00E943F
:1017D000971F892BD1F387EA96E00E94B21FBC01C4
:1017E00077278C2F90E0DF91CF911F910F91FF9081
:1017F000EF90DF90CF900C94A60987EA96E00E94C4
:10180000971F892BD1F387EA96E00E94B21FC82F59
:1018100087EA96E00E94971F892BD1F387EA96E02A
:101820000E94B21F682F8C2FDF91CF911F910F91D3
:10183000FF90EF90DF90CF900C94201987EA96E00C
:101840000E94971F892BD1F387EA96E00E94B21F6E
:10185000C82F87EA96E00E94971F892BD1F387EA69
:1018600096E00E94B21FBC0177278C2F90E0DF9199
:10187000CF911F910F91FF90EF90DF90CF900C943C
:10188000870187EA96E00E94971F892BD1F387EAA8
:1018900096E00E94B21FC82F87EA96E00E94971F29
:1018A000892BD1F387EA96E00E94B21FBC0177270B
:1018B000F5E0CF9FC00111248D529A4FDF91CF9157
:1018C0001F910F91FF90EF90DF90CF900C943C020E
:1018D00087EA96E00E94971F892BD1F387EA96E06A
:1018E0000E94B21FC82F87EA96E00E94971F892B9B
:1018F000D1F387EA96E00E94B21FBC01772725E06A
:10190000C29FC00111248D529A4FDF91CF911F9138
:101910000F91FF90EF90DF90CF900C94FA01DF9140
:10192000CF911F910F91FF90EF90DF90CF9008958E
:1019300087EA96E00C94B21FFF920F931F93CF9308
:10194000DF938C01EC0187EA96E00E94971F18163E
:1019500019060CF051C087EA96E00E94B21FF82EDB
:101960008FE7F81203C00E94640A4FC0C017D10766
:1019700059F48AE0F81208C08091CC058D3069F5E1
:101980001092CC05F12C41C088E0F81218C02197C4
:1019900068E070E087EA96E00E94F30160E270E0A0
:1019A00087EA96E00E94F30168E070E087EA96E03B
:1019B0000E94F301C017D10740F5E80126C083E07B
:1019C000F81208C0F99264E970E087EA96E00E9494
:1019D000291E22C08AE0F81206C06DE070E087EA96
:1019E00096E00E94F3016F2D772767FD709587EAD7
:1019F00096E00E94F301F9928AE0F81669F08DE012
:101A0000F81651F083E0F81639F09E01201B310BD7
:101A10002035310508F497CFF092CC058DE0F8120F
:101A20000AC08AE0FE01319780836AE070E087EAAD
:101A300096E00E94F3011882DF91CF911F910F91E0
:101A4000FF900895EF92FF920F931F93CF93DF9330
:101A5000CDB7DEB7C355D1090FB6F894DEBF0FBEC0
:101A6000CDBF80911006882321F08E010F5F1F4F9C
:101A700089C060911106662329F070E080E090E053
:101A80000E94F8190E94600A009709F4ACC00E94F5
:101A9000980C8F3719F40E94640A9CC0833009F4B3
:101AA0009CC088EB93E00E940D0181E080931006BA
:101AB000DCCFF80101900020E9F7CF0102977C010B
:101AC000FC0110828981882309F484C06FEB73E0E4
:101AD000C8010E941B22892B09F45CC061EC73E0F1
:101AE000C8010E941B22892B09F454C069EC73E0E1
:101AF000C8010E941B22892B09F455C06BEC73E0CE
:101B0000C8010E941B22892B09F44DC060E873E0D4
:101B1000C8010E941B22892B09F448C064ED73E0C0
:101B2000C8010E941B22892B09F440C06AED73E0B2
:101B3000C8010E941B22892B09F453C065E174E09F
:101B4000C8010E941B22892BB9F168E474E0C80126
:101B50000E941B22892B81F1B701C8010E94DD0080
:101B6000FC0101900020E9F7BF0161507109681B79
:101B7000790BAE014E5A5F4F0E945A02009719F13D
:101B80000E941201C8010E949C0C8981833009F0D7
:101B900090CF27C01092100681E08093120684EF48
:101BA0008093110617C01092100614C010921006F0
:101BB00081E08093120604C0109210061092120663
:101BC0001092110607C064968EAD9FAD64970E9477
:101BD000F400D8CF80E090E006C08CED93E00E9446
:101BE0000D018AE090E0CD5ADF4F0FB6F894DEBFCA
:101BF0000FBECDBFDF91CF911F910F91FF90EF905E
:101C000008952F923F924F925F926F927F928F92A0
:101C10009F92AF92BF92CF92DF92EF92FF920F937B
:101C20001F93CF93DF93CDB7DEB72A970FB6F89403
:101C3000DEBF0FBECDBF6C017B01E80EF91EB70100
:101C4000C6010E94DD008C01FC01B080BB2009F4BC
:101C50005AC28E159F0508F056C248E050E06BEC62
:101C600073E00E942B226C01009791F4F8018085AB
:101C70008B3331F4C8010896CC24C394D12C25C0F1
:101C80008032C1F397EF980F9230A0F38D3091F32B
:101C900045E050E06AEE73E0C8010E942B22892BD8
:101CA00079F5F80185818B3339F4CD2819F3C80112
:101CB0000596C12CD12C09C08032B9F397EF980F4B
:101CC000923098F38D30E1F4F0CFB7010E94DD003F
:101CD0007C01BC01601B710B8091CD059091CE05FC
:101CE0009801281B390BC9010E942C0AF701808139
:101CF0008B3309F08DC1CD2809F051C182E050C16C
:101D000045E050E060EF73E0C8010E942B226C01B7
:101D1000009761F4F8018581982F977F9032F9F050
:101D200097EF980F9230D8F08D30C9F042E050E034
:101D300066EF73E0C8010E942B22892B09F032C1A3
:101D4000F8018281982F977F903239F097EF980FA2
:101D5000923018F08D3009F025C1CD2841F42801CA
:101D6000F5E04F0E511CAA24A394B12C06C0280103
:101D700022E0420E511CA12CB12CB701C2010E94DD
:101D8000DD00FC0140814832A1F064E170E0C20155
:101D90000E94110A8091CD059091CE056AE070E015
:101DA0009801281B390BC9010E942C0A8EEF9FEF66
:101DB000FDC34C013FEF831A930A340181E090E0A8
:101DC000F3014081411108C0B30164197509C201D2
:101DD0000E94110AB30125C06E147F0460F44832DA
:101DE00011F4019604C0493211F4019731F0EFEF7C
:101DF0006E1A7E0AE5CF493239F7B701C301019661
:101E00000E94DD009C838B83FC018081811110C0C6
:101E10006B817C8164197509C2010E94110A6B8172
:101E20007C81601B710B8091CD059091CE05B8CF60
:101E30002B813C812E153F0558F7690180E090E029
:101E4000F6014081411108C0B60164197509C2014B
:101E50000E94110AB601E5CFCE14DF04A9F3960162
:101E60002F5F3F4F3E832D83009759F04B3711F47E
:101E7000019604C04D3711F4019741F0CD80DE800A
:101E8000DFCF4D3719F04B3309F01EC2B7018D81FA
:101E90009E810E94DD006C01AB2809F0B3C144E0D3
:101EA00050E069EF73E00E942B22892B09F02DC1CD
:101EB000F60184818B3749F0803239F097EF980F23
:101EC000923018F08D3009F020C1B701C601049698
:101ED0000E94DD005C01FC018081811108C0B50118
:101EE00064197509C2010E94110AB5019ACFAE1496
:101EF000BF04A8F7150180E090E0F1014081411195
:101F000008C0B10164197509C2010E94110AB1012A
:101F100088CF2E143F04A9F3009769F04B3711F4D2
:101F2000019605C04D3719F4019709F4F1C03FEF50
:101F3000231A330AE2CF4D3709F4EAC04B3309F0D4
:101F4000C7C1E6C080911006811125C0B8018B8100
:101F50009C810E94010E8130910509F0ADC1AE0156
:101F60004F5F5F4FB301C4010E945A02009709F00E
:101F70001DC380910F06882309F47DC189819A8150
:101F8000892B09F45CCE80910F068111DFCF8091FF
:101F900012068823B9F20E94220D892BB9F281E042
:101FA00090E004C343E050E063E174E0C8010E94A4
:101FB0002B22892B09F046C0F8018381982F977F47
:101FC000903231F097EF980F923010F08D30D1F5BC
:101FD000B701C80103960E94DD00FC012081283270
:101FE000B9F4B70101960E94DD005C019C838B83EC
:101FF000EB81FC812081222359F0EE15FF0540F48E
:10200000CF0101962B3309F467C19C838B83F0CFFA
:1020100064E170E013C0EE15FF0560F4CF01019696
:102020002B3309F460C19E838D83ED81FE81208175
:102030002111F1CF6D817E81601B710BC8010E945F
:10204000110AB4CEFBE76801BF1619F02DE7B212F2
:102050000CC03FEFC31AD30AF2CDCE14DF0479F0DF
:102060008B3339F08FEFC81AD80AF60180818111BD
:10207000F4CFC016D10619F481E090E038C0809109
:102080000F065601A01AB10A811110C080911206E4
:10209000811104C080911006882341F0B501C80168
:1020A0000E94110A88E094E00E940D018091CD0504
:1020B0009091CE05B5019801281B390BC9010E94EA
:1020C0002C0AAE014F5F5F4FB501C8010E945A0252
:1020D0004C01009751F0B501C8010E94110A88E037
:1020E00094E00E940D01C40161C280E090E03FEFE6
:1020F000C31AD30A892B09F0A2CD0E94220D0097A2
:1021000009F49DCD53C280E04BCFA12CB12C01C06E
:102110006101B301601B710B8091CD059091CE05DB
:10212000F801E81BF90BCF010E942C0A80910F06E1
:1021300068187908811114C080911206811104C0B9
:1021400080911006882361F08CE094E00E94EF00FB
:10215000B301C4010E94110A81E194E00E94EF00E2
:10216000AE014F5F5F4FB301C4010E945A028C0160
:1021700080910F060115110579F0811141C0809100
:102180001206811104C0809110068823C9F188E0ED
:1021900094E00E940D0134C081111BC08091120691
:1021A000811104C080911006882399F089E094E0A1
:1021B0000E94EF0089819A81892B19F08FED93E0BD
:1021C00002C084EE93E00E94EF0088E094E00E9459
:1021D0000D0189819A81892B41F06D817E812B814E
:1021E0003C81621B730BC90108C0A114B10409F43E
:1021F00026CDB1016A197B09C5010E94010E7FCF6E
:10220000C801D4C1B301601B710B8091CD059091C1
:10221000CE059801281B390BC9010E942C0A809118
:102220000F06811116C080911206811104C08091A1
:102230001006882371F08EEF93E00E94EF00B30147
:1022400068197909C4010E94110A86E094E00E948D
:10225000EF0080910F06811105C00E94220D0097AA
:1022600009F0A4C1681879080D811E812B813C8179
:10227000021B130B74CE80911206811105C0809150
:102280001006882309F47ACEB301C4010E94110A12
:1022900089E094E00E94EF0089819A81892B19F0EE
:1022A0008FED93E002C084EE93E00E94EF0088E09F
:1022B00094E00E940D0162CE8230910509F4BFCCFA
:1022C000009709F44CCE72C14B3709F0D7CDD0CD71
:1022D0004B3709F02CCE24CEB7010E94DD003C0123
:1022E0009E838D83A2CEB7010E94DD004C012C019C
:1022F000CC24C394D12CF2012081211102C0B2015F
:102300009BCE4E145F04D8F7C2010196283221F407
:10231000FFEFCF1ADF0A06C0293221F421E0C21AEA
:10232000D10811F02C01E7CFB7010E94DD009A8798
:102330008987FC018081811102C0BF017DCEEE152D
:10234000FF05D8F79F012F5F3F4F38872F83C114B8
:10235000D10479F08B3721F4FFEFCF1ADF0A06C0E2
:102360008D3721F421E0C21AD10841F0EF81F885C0
:10237000E1CF8D3719F08B3309F014C1CF80D884A9
:1023800080910F06882371F0B201601B710B809160
:10239000CD059091CE05F801E81BF90BCF010E9405
:1023A0002C0A2CC080911206811104C08091100665
:1023B000882321F187E194E00E94EF006B817C810A
:1023C0006A197B09C5010E94110A8DE194E00E94FF
:1023D000EF006D817E8166197709C3010E94110AA1
:1023E0008DE194E00E94EF00B20168197909C401FF
:1023F0000E94110A86E094E00E94EF0080910F068F
:10240000811118C080911206811104C080911006BC
:10241000882381F00E94220D009709F0C7C06B81CC
:102420007C816A197B09C5010E94110A88E094E049
:102430000E940D016B817C816A197B09AE014F5F9F
:102440005F4FC5010E945A02009709F0AFC080910A
:102450000F0681110DC080911206811104C0809178
:102460001006882329F00E94220D892B09F097CDB0
:102470000D811E810619170998012F5F3F4F3C837C
:102480002B832F81388589859A85281B390B3887BE
:102490002F834818590852019FEFA91AB90A809151
:1024A000CD059091CE056B817C819301281B390B62
:1024B000C9010E942C0AAE014F5F5F4FB801C301F2
:1024C0000E945A02009709F071C080910F06811195
:1024D0001FC080911206811104C0809110068823CC
:1024E000B9F0B801C3010E94110A89E094E00E948A
:1024F000EF0089819A81892B19F08FED93E002C05A
:1025000084EE93E00E94EF0088E094E00E940D01C9
:1025100089819A81892B09F492CB6F81788589858D
:102520009A850E94010E8230910528F08230910533
:1025300009F485CB3BC08091CD059091CE05B501C6
:10254000F401E81BF90BCF010E942C0A80910F06C1
:10255000811110C080911206811104C08091100673
:10256000882341F0B201C4010E94110A88E094E07E
:102570000E940D01AE014F5F5F4FB201C4010E9486
:102580005A02009799F480911206811105C080913A
:102590001006882309F483CF0E94220D009709F4C6
:1025A0007ECF04C08B3709F0E1CED6CE2A960FB687
:1025B000F894DEBF0FBECDBFDF91CF911F910F9179
:1025C000FF90EF90DF90CF90BF90AF909F908F9053
:1025D0007F906F905F904F903F902F900895CF9293
:1025E000DF92EF92FF920F931F93CF93DF938C01B3
:1025F0007B0126E040E052EC61E070E087EA96E083
:102600000E947C2063EB70E087EA96E00E94291E1E
:102610001093D0050093CF051093CE050093CD0500
:10262000F092D205E092D1058FEF93E00E9435241D
:10263000803509F047C06801C0E0D0E081E0E81AC9
:10264000F108CE15DF0540F4CE010E943524F601D5
:1026500081936F01811107C0C00FD11F888188232A
:1026600021F0188202C02196ECCF8EEF93E00E94F9
:102670003524823539F567E970E087EA96E00E94F3
:10268000291E1092100610921206109211068091C7
:10269000CD059091CE05FC0101900020E9F7BF0126
:1026A00061507109681B790B0E94010E009751F06F
:1026B000DF91CF911F910F91FF90EF90DF90CF901E
:1026C0000C941201DF91CF911F910F91FF90EF9029
:1026D000DF90CF90089568E572E084E091E00C947B
:1026E000EF12AF92BF92CF92DF92EF92FF920F93D1
:1026F0001F93CF93DF93CDB7DEB7C355D1090FB684
:10270000F894DEBF0FBECDBF8E010F5F1F4FC80113
:102710000E949C0C63E070E0C8010E941022892B8B
:1027200009F061C2D8010D900020E9F7BD016250A7
:102730007109FB011082C8010E94DD00DC018C914F
:10274000882309F450C247E050E060E274E0C80119
:102750000E942B22892B19F488E294E00BC044E0FC
:1027600050E06AE374E0C8010E942B22892B29F40F
:102770008FE394E00E940D0136C247E050E061EC27
:1027800073E0C8010E942B22892B49F41092100695
:1027900081E08093120684EF80931106BFC147E069
:1027A00050E064E474E0C8010E942B22892B11F4EC
:1027B00062E521C145E050E064ED73E0C8010E948C
:1027C0002B22892B31F41092100681E0809312069F
:1027D0008DC144E050E06CE474E0C8010E942B22FB
:1027E000892B09F0B7C0CE0105960E94E7216C0144
:1027F000C8010E949C0CE090CD05F090CE05F70139
:10280000570141E050E080818823F1F0C416D506DD
:102810003CF19F012F5F3F4F8D3019F08A3089F4D2
:1028200004C081818A3009F4F9019F012F5F3F4F75
:102830004C155D05A1F08181882329F04F5F5F4F22
:102840005901F901E0CFF9014C155D054CF4808187
:10285000811106C0B801C7010E940522C4C1F90157
:10286000B501D8010D900020E9F7AD0141505109A3
:10287000401B510BCF018A199B098417950770F5EE
:10288000D7010D900020E9F77D01DF010D900020B8
:10289000E9F79D01215031092E1B3F0BC70101961D
:1028A000D501AE1BBF0BFD01E40FF51FEE0DFF1DA3
:1028B00031962E193F09A901480F591F57FD05C030
:1028C000DC014E91CD014293F6CFF801019000203A
:1028D000E9F73197E01BF10BEA0DFB1DD8010D90D4
:1028E0000020E9F7CD010197801B910B9C01121686
:1028F00013064CF4D8014D918D01D5014D935D0126
:1029000021503109F4CF97FF02C080E090E0680FBA
:10291000791F6E177F0709F466C1DF010D90002053
:10292000E9F71197AE1BBF0B9F01CD018B01181664
:10293000190644F4F90141919F01F80141938F0177
:102940000197F5CFB7FF02C0A0E0B0E0A60FB71F18
:102950001C9249C144E050E061E574E0C8010E9466
:102960002B22892BF1F50091CD051091CE05680140
:10297000EE24E394F12CF8018081882309F433C11B
:1029800098012F5F3F4F59018D3011F08A3039F592
:102990004AE050E0B70187EA96E00E94F01E62E943
:1029A00070E087EA96E00E94E71DB8016C197D0986
:1029B000C6010E94110A88E094E00E940D013FEFD9
:1029C000E31AF30AD8018C918D3029F411968C9179
:1029D0008A3009F485010F5F1F4F6801CCCF890150
:1029E000CACF46E050E066E574E0C8010E942B22A1
:1029F000892B21F460E08EEF93E0CFC044E050E0FB
:102A00006DE574E0C8010E942B22892B09F061C09A
:102A10001092CE051092CD05E090CF05F090D00534
:102A200080E090E02091D1053091D2058217930784
:102A3000D8F5C8010E949C0C43E050E062E674E0C7
:102A4000C8010E942B22C090CF05D090D005892BC1
:102A500039F4D7011C92D092CE05C092CD0524C086
:102A6000F80101900020E9F73197E01BF10BC70155
:102A70008C199D09E80FF91F8091D1059091D2051D
:102A800001978E179F0780F0B801C7010E9424228A
:102A9000F60101900020E9F79F01215031097901E9
:102AA000C9018C199D09BECF8091CD059091CE05AD
:102AB000892B09F098C086E694E00E940D01E09110
:102AC000CF05F091D0051082F093CE05E093CD05AF
:102AD0008AC043E050E068E474E0C8010E942B2201
:102AE000892B81F410921006109212061092110692
:102AF0008091CD059091CE05DC010D900020E9F785
:102B0000BD0115C044E050E067E774E0C8010E94D1
:102B10002B22892BB1F481E0809310068091CD05A2
:102B20009091CE05FC0101900020E9F7BF016150B2
:102B30007109681B790B0E94010E009709F453C0BC
:102B400049C044E050E06CE774E0C8010E942B22C9
:102B5000892B31F5E091CD05F091CE05DF010D9087
:102B60000020E9F78D01015011090E1B1F0BE12C0C
:102B7000F12C0E151F0574F0E091CD05F091CE05F6
:102B8000EE0DFF1D6081C7010E943D24BFEFEB1ACF
:102B9000FB0AEFCF60E58FEF93E00E943D2423C056
:102BA0006BE370E0C8010E941022009711F0FC0155
:102BB0001082D8010D900020E9F7BD016150710924
:102BC000601B710BAE014E5A5F4FC8010E945A0242
:102BD000009719F00E94120106C064968EAD9FAD59
:102BE00064970E94F400CD5ADF4F0FB6F894DEBF11
:102BF0000FBECDBFDF91CF911F910F91FF90EF904E
:102C0000DF90CF90BF90AF9008958F929F92AF9238
:102C1000BF92CF92DF92EF92FF924C010E94C919AE
:102C20006B017C01AA2497FCA094BA2C0E94C919BC
:102C30006C197D098E099F09681579058A059B0520
:102C4000A0F487EA96E00E94971F892B79F387EA20
:102C500096E00E94A41F8F37910541F787EA96E01E
:102C60000E94B21F0E94640AE1CF80E090E0FF90D2
:102C7000EF90DF90CF90BF90AF909F908F9008958E
:102C80001F920F920FB60F9211242F933F934F93E1
:102C90005F936F937F938F939F93AF93BF93EF93C4
:102CA000FF938091790687FF05C0109285001092EE
:102CB00084001AC020917906332727FD3095809132
:102CC000780690E0281739077CF4809179069927D7
:102CD00087FD9095FC01EE0FFF1FE80FF91FE658E6
:102CE000F94F808186FD15C0809179068F5F8093B2
:102CF000790620917906332727FD30958091780653
:102D000090E028173907BCF4809179068C305CF18B
:102D100012C080917906992787FD9095FC01EE0FEE
:102D2000FF1FE80FF91FE658F94F808160E08F73AD
:102D30000E942019D9CF809184009091850004963B
:102D400080349C4918F480E49CE905C0809184009B
:102D500090918500049690938900809388008FEF6E
:102D60008093790638C0209184003091850080914D
:102D70007906992787FD9095FC01EE0FFF1FE80F5C
:102D8000F91FE658F94F81819281820F931F90932A
:102D900089008093880080917906992787FD909516
:102DA000FC01EE0FFF1FE80FF91FE658F94F808175
:102DB00086FF11C080917906992787FD9095FC01C7
:102DC000EE0FFF1FE80FF91FE658F94F808161E011
:102DD0008F730E942019FF91EF91BF91AF919F9146
:102DE0008F917F916F915F914F913F912F910F90B4
:102DF0000FBE0F901F901895209178062C30A0F4EC
:102E000031E0320F30937806FC012083822F90E06E
:102E1000FC01EE0FFF1FE80FF91FE658F94F88EB92
:102E20009BE09283818308952FEFFC012083089516
:102E3000DF92EF92FF920F931F93CF93DF93EC01FA
:102E4000D62E7A01890188818C3008F066C061E055
:102E50008D2D0E94E7188881A82FB0E0FD01EE0FAC
:102E6000FF1FEA0FFB1FE658F94F2D2D2F7390819E
:102E7000907C922B908360E272E06E197F0977FF5D
:102E800002C06D5F7F4F75956795759567956983EE
:102E900040E659E0401B510B57FF02C04D5F5F4FAA
:102EA00055954795559547954A836CE00E94EF20CC
:102EB0009CE0899FB001112420E030E0A901460F79
:102EC000571FFA01EE0FFF1FE40FF51FE658F94FE9
:102ED000908196FD16C02F5F3F4F2C30310571F762
:102EE00081110FC01092800082E0809381001092C7
:102EF000850010928400B19A80916F008260809367
:102F00006F00888190E0FC01EE0FFF1FE80FF91FB2
:102F1000E658F94F8081806480838881DF91CF916A
:102F20001F910F91FF90EF90DF90089520E639E018
:102F300040E252E00C941817FC01808190E0FC0103
:102F4000EE0FFF1FE80FF91FE658F94F80818F7BC6
:102F500080830895FC0180818C3070F5918128E890
:102F600030E0291B310997FD3395220F331F220FC3
:102F7000331F621773077CF0928128E532E0291B2A
:102F8000310997FD3395220F331F220F331F62172C
:102F900073070CF49B0122503109220F331F4FB7E6
:102FA000F89490E0FC01EE0FFF1FE80FF91FE658C0
:102FB000F94F328321834FBF08954F925F926F92F2
:102FC0007F92AF92BF92CF92DF92EF92FF920F93D8
:102FD0001F93CF93DF93EC01603282E078070CF00F
:102FE00040C077FD06C0653B71052CF064EB70E0D6
:102FF00002C060E070E0898128E830E0281B3109D8
:1030000087FD3395220F331F220F331F5901CC2424
:10301000B7FCC094DC2C882777FD8095982F2A81F7
:1030200048E552E0421B510927FD5395440F551FB7
:10303000440F551F2A01662457FC6094762C7F921A
:103040006F925F924F9214EBE12EF12C00E010E0B2
:1030500020E030E0A9010E94501F0F900F900F90C8
:103060000F90CE01DF91CF911F910F91FF90EF90C4
:10307000DF90CF90BF90AF907F906F905F904F9018
:103080000C94AA178E3008F08E50877020915C0344
:1030900090E4299F90011124822B80937C008091E1
:1030A0007A00806480937A0080917A0086FDFCCF5C
:1030B000809178002091790090E0922B08951F93E1
:1030C000CF93DF93182FEB0161E00E94E718209760
:1030D00011F460E004C0CF3FD10539F461E0812FE5
:1030E000DF91CF911F910C942019E12FF0E0E55171
:1030F000FF4FE491E330F9F048F4E130B9F0E23009
:10310000A1F584B5806284BDC8BD34C0E730E9F064
:10311000E83019F1E43049F58091800080628093B5
:103120008000D0938B00C0938A0024C084B580684F
:1031300084BDC7BD1FC080918000806880938000DF
:10314000D0938900C093880015C08091B00080683A
:103150008093B000C093B3000DC08091B000806236
:103160008093B000C093B40005C0C038D1050CF006
:10317000B5CFAFCFDF91CF911F910895833081F00C
:1031800028F4813099F08230A1F008958730A9F0B9
:103190008830B9F08430D1F4809180008F7D03C0F5
:1031A000809180008F7780938000089584B58F7719
:1031B00002C084B58F7D84BD08958091B0008F7763
:1031C00003C08091B0008F7D8093B0000895CF93AD
:1031D000DF9390E0FC01E150FF4F2491FC01ED5E94
:1031E000FE4F8491882349F190E0880F991FFC01DC
:1031F000E55CFE4FA591B4918F5C9E4FFC01C5919B
:10320000D4919FB7611108C0F8948C9120958223C6
:103210008C93888182230AC0623051F4F8948C9197
:10322000322F309583238C938881822B888304C02E
:10323000F8948C91822B8C939FBFDF91CF9108954E
:103240000F931F93CF93DF931F92CDB7DEB7282F35
:1032500030E0F901E551FF4F8491F901E150FF4F52
:103260001491F901ED5EFE4F04910023C9F088230B
:1032700021F069830E94BE186981E02FF0E0EE0F13
:10328000FF1FEF5CFE4FA591B4919FB7F8948C910E
:10329000611103C01095812301C0812B8C939FBFC6
:1032A0000F90DF91CF911F910F910895CF93DF93EE
:1032B000282F30E0F901E551FF4F8491F901E150E9
:1032C000FF4FD491F901ED5EFE4FC491CC2391F0F4
:1032D00081110E94BE18EC2FF0E0EE0FFF1FE95D98
:1032E000FE4FA591B4912C912D2381E090E021F423
:1032F00080E002C080E090E0DF91CF9108951F92BE
:103300000F920FB60F9211242F933F938F939F9399
:10331000AF93BF9380919F069091A006A091A106C4
:10332000B091A20630919E0623E0230F2D3720F4A2
:103330000196A11DB11D05C026E8230F0296A11D0F
:10334000B11D20939E0680939F069093A006A093A4
:10335000A106B093A2068091A3069091A406A09125
:10336000A506B091A6060196A11DB11D8093A306E6
:103370009093A406A093A506B093A606BF91AF9123
:103380009F918F913F912F910F900FBE0F901F90A3
:1033900018952FB7F89460919F067091A0068091C0
:1033A000A1069091A2062FBF08953FB7F89480918F
:1033B000A3069091A406A091A506B091A60626B5F5
:1033C000A89B05C02F3F19F00196A11DB11D3FBF5D
:1033D0006627782F892F9A2F620F711D811D911DED
:1033E00042E0660F771F881F991F4A95D1F708950D
:1033F000CF92DF92EF92FF92CF93DF936B017C012C
:103400000E94D519EB01C114D104E104F10489F043
:103410000E94DE200E94D5196C1B7D0B683E734014
:1034200090F381E0C81AD108E108F108C851DC4FD7
:10343000EACFDF91CF91FF90EF90DF90CF9008958A
:10344000789484B5826084BD84B5816084BD85B57F
:10345000826085BD85B5816085BDEEE6F0E0808146
:1034600081608083E1E8F0E0108280818260808367
:10347000808181608083E0E8F0E0808181608083EA
:10348000E1EBF0E0808184608083E0EBF0E080811C
:1034900081608083EAE7F0E08081846080838081BE
:1034A0008260808380818160808380818068808366
:1034B0001092C10008951F920F920FB60F9211241F
:1034C0002F938F939F93EF93FF93E091B706F09123
:1034D000B8068081E091BD06F091BE0682FD12C063
:1034E00090818091C0068F5F8F732091C1068217F3
:1034F00051F0E091C006F0E0E955F94F958F8093C7
:10350000C00601C08081FF91EF919F918F912F9113
:103510000F900FBE0F901F9018951F920F920FB62D
:103520000F9211242F933F934F935F936F937F9349
:103530008F939F93AF93BF93EF93FF9387EA96E0A8
:103540000E94D41FFF91EF91BF91AF919F918F91F6
:103550007F916F915F914F913F912F910F900FBE8F
:103560000F901F90189587EA96E00E94971F21E020
:10357000892B09F420E0822F08951092AA06109258
:10358000A90688EE93E0A0E0B0E08093AB069093AC
:10359000AC06A093AD06B093AE068FEB95E090938A
:1035A000A8068093A70685EC90E09093B4068093DC
:1035B000B30684EC90E09093B6068093B50680EC59
:1035C00090E09093B8068093B70681EC90E09093DA
:1035D000BA068093B90682EC90E09093BC06809383
:1035E000BB0686EC90E09093BE068093BD061092D9
:1035F000C0061092C1061092C2061092C30608952A
:103600003F924F925F926F927F928F929F92AF9272
:10361000BF92CF92DF92EF92FF920F931F93CF93BF
:10362000DF9300D000D0CDB7DEB78B0129013A017E
:1036300090915D03981721F09F3F09F0D3C104C01A
:10364000E5E4F1E0349081C080935D03E5E4F1E0CE
:10365000E491EF3F09F4C6C1E13031F1E23009F401
:103660004BC0E11171C014BC15BC94B5926094BDFF
:1036700095B5916095BD282F30E0F901ED5EFE4FC4
:10368000E491F0E0EE0FFF1FEF5CFE4F4591549187
:103690005093540740935307F901E150FF4F249191
:1036A00020935207312C53C0109280001092810059
:1036B0009091810098609093810090918100916039
:1036C00090938100282F30E0F901ED5EFE4FE491E8
:1036D000F0E0EE0FFF1FEF5CFE4F459154915093C9
:1036E0004D0740934C07F901E150FF4F249120937F
:1036F0004B07332433942BC01092B0001092B100CA
:103700009091B00092609093B0009091B100916060
:103710009093B100282F30E0F901ED5EFE4FE49167
:10372000F0E0EE0FFF1FEF5CFE4F45915491509378
:10373000460740934507F901E150FF4F249120933C
:10374000440752E0352E03C03E2E37FC4BC161E0EA
:103750000E94E7184801A12CB12C832D8D7F09F020
:10376000C0C060E072E18AE790E0A50194010E9488
:10377000452129833A834B835C8369017A0181E087
:10378000C81AD108E108F1089FEFC916D104E10475
:10379000F10409F008F49AC060E472E48FE090E06C
:1037A000A50194010E94452169017A01E1E0CE1A48
:1037B000D108E108F108F2E03F1219C08FEFC816F6
:1037C000D104E104F10409F008F487C060E970ED68
:1037D00083E090E0A50194010E94452169017A01EE
:1037E00091E0C91AD108E108F10883E001C082E044
:1037F000EFEFCE16D104E104F10409F008F467C03C
:1038000068E478EE81E090E0A50194010E944521F2
:1038100069017A01F1E0CF1AD108E108F1083320FB
:10382000E1F082E038121BC09FEFC916D104E10419
:10383000F10409F008F4D4C064E274EF80E090E091
:10384000A50194010E94452169017A01E1E0CE1AA7
:10385000D108E108F10885E003C083E001C084E0FD
:10386000FFEFCF16D104E104F10489F180F162E1A8
:103870007AE780E090E0A50194010E94452169016A
:103880007A0181E0C81AD108E108F108311002C0BC
:1038900084E001C086E09FEFC916D104E104F10481
:1038A000B1F0A8F0C980DA80EB80FC809AE0F59452
:1038B000E794D794C7949A95D1F7E1E0CE1AD1084E
:1038C000E108F108332031F087E008C081E03320BF
:1038D00011F004C085E085BD34C082E08093B10062
:1038E00030C060E072E18AE790E0A50194010E9497
:1038F000452169017A01F1E0CF1AD108E108F10808
:10390000C114D10481E0E806F10488F068E478EE9F
:1039100081E090E0A50194010E94452169017A01AE
:1039200091E0C91AD108E108F10893E001C091E0E3
:10393000E1E03E1206C080918100887F892B809350
:103940008100411451046104710471F0D801AA0F7F
:10395000BB1FA30192010E946A2128EE33E040E0E0
:1039600050E00E94232103C02FEF3FEFA901F1E0B7
:103970003F16A1F082E0381619F1311033C0C7BCF0
:103980002093550730935607409357075093580795
:1039900080916E00826080936E0024C0D092890076
:1039A000C092880020934E0730934F0740935007F2
:1039B0005093510780916F00826080936F0012C016
:1039C000C092B300209347073093480740934907BC
:1039D00050934A078091700082608093700002C00B
:1039E00084E07CCF0F900F900F900F90DF91CF91DC
:1039F0001F910F91FF90EF90DF90CF90BF90AF900D
:103A00009F908F907F906F905F904F903F90089520
:103A1000813039F018F0823051F0089510926E0024
:103A2000089580916F008D7F80936F00089580913D
:103A300070008D7F8093700081E08093B000809152
:103A4000B100887F84608093B1001092B300089524
:103A5000CF93C82F80915D038C1307C0E5E4F1E09C
:103A600084919FEF90935D0301C08FEF0E94081D2A
:103A700060E08C2FCF910C9420191F920F920FB6FB
:103A80000F9211242F933F934F935F936F937F93E4
:103A90008F939F93AF93BF93EF93FF9380914707CB
:103AA00090914807A0914907B0914A07892B8A2B2A
:103AB0008B2B51F190914407E0914507F091460717
:103AC0008081892780838091470790914807A09142
:103AD0004907B0914A07181619061A061B06C4F4BE
:103AE0008091470790914807A0914907B0914A07F4
:103AF0000197A109B1098093470790934807A093C4
:103B00004907B0934A0704C080915D030E94281DB5
:103B1000FF91EF91BF91AF919F918F917F916F91A5
:103B20005F914F913F912F910F900FBE0F901F907B
:103B3000189508950E94201A0E94991D0E94CF0096
:103B4000C6ECDFE10E94D1002097E1F30E94C61F7E
:103B5000F9CFCF92DF92EF92FF920F931F93CF9303
:103B6000DF936C017A01EB01E60EF71E00E010E036
:103B7000CE15DF0561F06991D601ED91FC910190C0
:103B8000F081E02DC6010995080F191FF1CFC8017A
:103B9000DF91CF911F910F91FF90EF90DF90CF9029
:103BA00008956115710581F0DB010D900020E9F7A2
:103BB000AD0141505109461B570BDC01ED91FC91C1
:103BC0000280F381E02D099480E090E00895EF9267
:103BD000FF920F931F93CF93DF938C01FB01C0E003
:103BE000D0E064917F018FEFE81AF80A662361F054
:103BF000D801ED91FC910190F081E02DC80109956B
:103C0000C80FD91FF701EDCFCE01DF91CF911F91E2
:103C10000F91FF90EF9008950C94D11DDC01ED9170
:103C2000FC910190F081E02D09940F931F93CF93A5
:103C3000DF93EC016DE00E940E1E8C016AE0CE0164
:103C40000E940E1E800F911FDF91CF911F910F9147
:103C500008950F931F93CF93DF93EC010E94E71D0C
:103C60008C01CE010E94151E800F911FDF91CF9114
:103C70001F910F9108950F931F93CF93DF93EC0142
:103C80000E94D11D8C01CE010E94151E800F911F34
:103C9000DF91CF911F910F9108958F929F92AF92D4
:103CA000BF92CF92DF92EF92FF920F931F93CF9329
:103CB000DF93CDB7DEB7A1970FB6F894DEBF0FBE86
:103CC000CDBF7C01C42EE52FCB01D22E19A221E05D
:103CD0002D1510F02AE0D22E8E010F5D1F4F8D2C76
:103CE000912CA12CB12C6C2D7E2FA50194010E944A
:103CF00023218C2DD29E80191124015011098A3064
:103D000014F4805D01C0895CF801808321153105C0
:103D10004105510521F0C22EE32FCA01E4CFB801BD
:103D2000C7010E94D11DA1960FB6F894DEBF0FBE49
:103D3000CDBFDF91CF911F910F91FF90EF90DF905A
:103D4000CF90BF90AF909F908F900895CF92DF92C9
:103D5000EF92FF920F931F93CF93DF93EC016A01D1
:103D60007B012115310579F4E881F9810190F08119
:103D7000E02D642FDF91CF911F910F91FF90EF9075
:103D8000DF90CF9009942A303105E9F477FF1AC00B
:103D90006DE20E940E1E8C0144275527BA014C1972
:103DA0005D096E097F092AE0CE010E944D1E800F39
:103DB000911FDF91CF911F910F91FF90EF90DF90B6
:103DC000CF9008952AE0B701A601CE01DF91CF91EF
:103DD0001F910F91FF90EF90DF90CF900C944D1EAC
:103DE0009A01AB01662757FD6095762F0C94A61EAD
:103DF0000F931F93CF93DF93EC019A01AB016627DA
:103E000057FD6095762F0E94A61E8C01CE010E9460
:103E1000151E800F911FDF91CF911F910F91089573
:103E2000CF93DF9300D000D0CDB7DEB79B01AC01BC
:103E3000611571058105910569F069833A834B83AA
:103E40005C830E94D92129813A814B815C810E9447
:103E5000452103C060E070E0CB010F900F900F9000
:103E60000F90DF91CF910895CF92DF92EF92FF9262
:103E70006B017C01621773078407950764F4CA011C
:103E8000B9016C197D098E099F090E94101F6C0DE4
:103E90007D1D8E1D9F1DFF90EF90DF90CF900895A8
:103EA0004F925F926F927F92AF92BF92CF92DF92CA
:103EB000EF92FF920F931F93CF93DF93CDB7DEB7AF
:103EC00029013A01621B730B840B950B29893A89EE
:103ED0004B895C892A193B094C095D09298B3A8B6E
:103EE0004B8B5C8B9B01AC0169897A898B899C899E
:103EF0000E94DF20E418F50806091709A8019701B8
:103F00000E9445212A0D3B1D4C1D5D1DCA01B901B2
:103F1000DF91CF911F910F91FF90EF90DF90CF90A5
:103F2000BF90AF907F906F905F904F900895FC018D
:103F3000818D228D90E0805C9F4F821B910960E40F
:103F400070E00E940F210895FC01918D828D9817D9
:103F500031F0828DE80FF11D858D90E008958FEF8F
:103F60009FEF0895FC01918D828D981761F0828DED
:103F7000DF01A80FB11D5D968C91928D9F5F9F739D
:103F8000928F90E008958FEF9FEF089583EB9AE171
:103F9000892B49F080E090E0892B29F00E94B31A28
:103FA00081110C9400000895FC01848DDF01A80F9D
:103FB000B11DA35ABF4F2C91848D90E001968F7351
:103FC0009927848FA689B7892C93A089B1898C9170
:103FD00080648C93938D848D981306C00288F38936
:103FE000E02D80818F7D80830895CF93DF93EC0156
:103FF000888D8823C9F0EA89FB89808185FD05C009
:10400000A889B9898C9186FD0FC00FB607FCF5CF42
:10401000808185FFF2CFA889B9898C9185FFEDCF8A
:10402000CE010E94D41FE7CFDF91CF910895CF92A8
:10403000DF92FF920F931F93CF93DF931F92CDB721
:10404000DEB76C01DC015B969C915B975C968C9172
:104050005C97981307C05096ED91FC915197808121
:1040600085FD32C0F601038D10E00F5F1F4F0F7307
:104070001127F02EF601848DF81211C00FB607FC3F
:10408000F9CFD6015096ED91FC915197808185FF33
:10409000F1CFC60169830E94D41F6981EBCF838D64
:1040A000E80FF11DE35AFF4F6083D6015B960C9336
:1040B0005B975296ED91FC9153978081806280834B
:1040C00081E058968C930DC0D6015696ED91FC91E7
:1040D000579760835096ED91FC9151978081806451
:1040E000808381E090E00F90DF91CF911F910F913D
:1040F000FF90DF90CF900895BF92CF92DF92EF9222
:10410000FF92CF93DF93EC016A017B01B22EE88925
:10411000F98982E08083411581EE580761057105B8
:10412000A1F060E079E08DE390E0A70196010E94A4
:104130002321215031094109510956954795379559
:104140002795211580E1380798F0E889F9891082D0
:1041500060E874E88EE190E0A70196010E942321B7
:1041600021503109410951095695479537952795B1
:10417000EC85FD853083EE85FF852083188EEC89E4
:10418000FD89B082EA89FB89808180618083EA8928
:10419000FB89808188608083EA89FB8980818068CF
:1041A0008083EA89FB8980818F7D8083DF91CF9135
:1041B000FF90EF90DF90CF90BF9008950895DB01BE
:1041C0008F939F930E946A21BF91AF91A29F800D10
:1041D000911DA39F900DB29F900D11240895991BDE
:1041E00079E004C0991F961708F0961B881F7A95EE
:1041F000C9F780950895AA1BBB1B51E107C0AA1FF0
:10420000BB1FA617B70710F0A61BB70B881F991F77
:104210005A95A9F780959095BC01CD01089597FB1B
:10422000072E16F4009407D077FD09D00E94FB20DA
:1042300007FC05D03EF4909581959F4F08957095A9
:1042400061957F4F0895A1E21A2EAA1BBB1BFD01A9
:104250000DC0AA1FBB1FEE1FFF1FA217B307E40765
:10426000F50720F0A21BB30BE40BF50B661F771FBD
:10427000881F991F1A9469F760957095809590959D
:104280009B01AC01BD01CF010895052E97FB1EF4E3
:1042900000940E945C2157FD07D00E94232107FC57
:1042A00003D04EF40C945C215095409530952195A7
:1042B0003F4F4F4F5F4F0895909580957095619552
:1042C0007F4F8F4F9F4F0895EE0FFF1F0590F49182
:1042D000E02D09940E947521A59F900DB49F900D2B
:1042E000A49F800D911D11240895A29FB001B39F3A
:1042F000C001A39F700D811D1124911DB29F700DEF
:10430000811D1124911D089597FF03C091958195FA
:10431000910908958F929F92AF92BF92CF92DF92B0
:10432000EF92FF92CF93DF93EC01688179818A81CC
:104330009B81611571058105910521F464E279ED98
:104340008BE597E02DE133EF41E050E00E944521FD
:1043500049015A019B01AC01A7EAB1E40E946A211C
:104360006B017C01ACEEB4EFA50194010E94F42432
:10437000C60ED71EE81EF91EF7FE06C081E0C81A59
:10438000D108E10880E8F80AC882D982EA82FB8273
:10439000C701B6019F77DF91CF91FF90EF90DF903B
:1043A000CF90BF90AF909F908F9008950E948A21E8
:1043B000089580E091E00E948A21089560930001B1
:1043C0007093010180930201909303010895FC0111
:1043D00088279927E89421912032E9F3293010F0B9
:1043E0002E30C8F32B3241F02D3239F4689404C0DA
:1043F0000E943922820F911D219120532A30C0F34F
:104400001EF4909581959F4F0895FB01DC010D905E
:104410000020E9F7119701900D920020E1F708952F
:10442000FC018191861721F08823D9F799270895F7
:104430003197CF010895FB01DC018D910190801926
:104440000110D9F3990B0895FB01DC0101900D9245
:104450000020E1F70895FB01DC014150504030F0AD
:104460008D910190801919F40020B9F7881B990BE0
:1044700008957AE0979F902D879F802D910D1124AC
:104480000895AEE0B0E0E7E4F2E20C9407250D8970
:104490001E8986E08C831A8309838FEF9FE79E83B2
:1044A0008D83AE01475E5F4F6F89788DCE01019697
:1044B0000E946322EF81F885E00FF11F10822E9693
:1044C000E4E00C942325ACE0B0E0E9E6F2E20C94E1
:1044D000F9247C016B018A01FC0117821682838119
:1044E00081FFBDC1CE0101964C01F7019381F60118
:1044F00093FD859193FF81916F01882309F4ABC1EE
:10450000853239F493FD859193FF81916F01853256
:1045100029F4B70190E00E946124E7CF512C312C9F
:1045200020E02032A0F48B3269F030F4803259F070
:10453000833269F420612CC08D3239F0803339F434
:10454000216026C02260246023C0286021C027FD8E
:1045500027C030ED380F3A3078F426FF06C0FAE075
:104560005F9E300D1124532E13C08AE0389E300D0B
:104570001124332E20620CC08E3221F426FD6BC133
:10458000206406C08C3611F4206802C0883641F4DD
:10459000F60193FD859193FF81916F018111C1CF48
:1045A000982F9F7D9554933028F40C5F1F4FFFE3A5
:1045B000F9830DC0833631F0833771F0833509F00C
:1045C0005BC022C0F801808189830E5F1F4F4424A5
:1045D0004394512C540115C03801F2E06F0E711C48
:1045E000F801A080B18026FF03C0652D70E002C0F5
:1045F0006FEF7FEFC5012C870E9456242C018301A9
:104600002C852F77222E17C03801F2E06F0E711C17
:10461000F801A080B18026FF03C0652D70E002C0C4
:104620006FEF7FEFC5012C870E944B242C012C8556
:104630002068222E830123FC1BC0832D90E04816A6
:104640005906B0F4B70180E290E00E9461243A94E8
:10465000F4CFF50127FC859127FE81915F01B70119
:1046600090E00E94612431103A94F1E04F1A510811
:104670004114510471F7E5C0843611F0893639F5DB
:10468000F80127FF07C060817181828193810C5FEF
:104690001F4F08C060817181882777FD8095982F12
:1046A0000E5F1F4F2F76B22E97FF09C09095809511
:1046B000709561957F4F8F4F9F4F2068B22E2AE0F3
:1046C00030E0A4010E949324A82EA81844C0853786
:1046D00029F42F7EB22E2AE030E025C0F22FF97F98
:1046E000BF2E8F36C1F018F4883579F0B4C080370A
:1046F00019F0883721F0AFC02F2F2061B22EB4FE01
:104700000DC08B2D8460B82E09C024FF0AC09F2FD6
:104710009660B92E06C028E030E005C020E130E008
:1047200002C020E132E0F801B7FE07C0608171816C
:10473000828193810C5F1F4F06C06081718180E090
:1047400090E00E5F1F4FA4010E949324A82EA8188A
:10475000FB2DFF77BF2EB6FE0BC02B2D2E7FA51491
:1047600050F4B4FE0AC0B2FC08C02B2D2E7E05C04A
:104770007A2C2B2D03C07A2C01C0752C24FF0DC080
:10478000FE01EA0DF11D8081803311F4297E09C0FC
:1047900022FF06C07394739404C0822F867809F0B8
:1047A000739423FD13C020FF06C05A2C731418F411
:1047B000530C5718732C731468F4B70180E290E01F
:1047C0002C870E94612473942C85F5CF731410F408
:1047D000371801C0312C24FF12C0B70180E390E0EC
:1047E0002C870E9461242C8522FF17C021FF03C063
:1047F00088E590E002C088E790E0B7010CC0822F06
:10480000867859F021FD02C080E201C08BE227FDCD
:104810008DE2B70190E00E946124A51438F4B7013D
:1048200080E390E00E9461245A94F7CFAA94F401A7
:10483000EA0DF11D8081B70190E00E946124A11072
:10484000F5CF332009F451CEB70180E290E00E9409
:1048500061243A94F6CFF7018681978102C08FEFE9
:104860009FEF2C96E2E10C941525F999FECF92BDAD
:1048700081BDF89A992780B50895262FF999FECF22
:104880001FBA92BD81BD20BD0FB6F894FA9AF99A6D
:104890000FBE01960895FC01059061507040011013
:1048A000D8F7809590958E0F9F1F0895FC01615059
:1048B000704001900110D8F7809590958E0F9F1F42
:1048C00008950F931F93CF93DF93182F092FEB01B8
:1048D0008B8181FD03C08FEF9FEF20C082FF10C04E
:1048E0004E815F812C813D81421753077CF4E88122
:1048F000F9819F012F5F3F4F39832883108306C0C2
:10490000E885F985812F0995892B29F72E813F812B
:104910002F5F3F4F3F832E83812F902FDF91CF91C9
:104920001F910F910895FA01AA27283051F12031E3
:1049300081F1E8946F936E7F6E5F7F4F8F4F9F4F33
:10494000AF4FB1E03ED0B4E03CD0670F781F891F75
:104950009A1FA11D680F791F8A1F911DA11D6A0F43
:10496000711D811D911DA11D20D009F468943F91F6
:104970002AE0269F11243019305D3193DEF6CF01F5
:104980000895462F4770405D4193B3E00FD0C9F7BB
:10499000F6CF462F4F70405D4A3318F0495D31FD28
:1049A0004052419302D0A9F7EACFB4E0A69597957B
:1049B000879577956795BA95C9F700976105710551
:1049C00008959B01AC010A2E06945795479537959B
:1049D0002795BA95C9F7620F731F841F951FA01DF5
:1049E0000895B7FF0C946A210E946A21821B930BE1
:1049F00008952F923F924F925F926F927F928F9283
:104A00009F92AF92BF92CF92DF92EF92FF920F935D
:104A10001F93CF93DF93CDB7DEB7CA1BDB0B0FB667
:104A2000F894DEBF0FBECDBF09942A883988488824
:104A30005F846E847D848C849B84AA84B984C884BA
:104A4000DF80EE80FD800C811B81AA81B981CE0FB1
:104A5000D11D0FB6F894DEBF0FBECDBFED01089596
:044A6000F894FFCFF8
:104A640001000000666F72283B3B293B00000000F8
:104A74000000000000000000000000000000000032
:104A84000000000000000000000000000000000022
:104A94000000000000000000000000000000000012
:104AA4000000000000000000000000000000000002
:104CB40000000000000000000000000001FF646923
:104CC40076696465206279207A65726F0053796E23
:104CD400746178206572726F720073746F7070659E
:104CE4006400736572766F25642E61747461636801
:104CF4002800736572766F25642E7772697465284F
:104D040000736572766F25642E6465746163682828
:104D140000746F6E6533280070617573656400619B
:104D240000616E696D617465006300636F6E746920
:104D34006E75650064656275670053005E430074B8
:104D44007275650066616C736500627265616B0003
:104D54007768696C6500696600656C7365007768DF
:104D6400696C65202800290A003A20006966202819
:104D7400002900666F7200666F722028003B2000D5
:104D840076657273696F6E0076302E302E32203263
:104D94003031362F30362F33300070696E67007033
:104DA4006F6E67006175746F72756E006564697407
:104DB400006C697374006E6F6175746F0070726F4C
:104DC4006700656E640070726F6772616D20746F46
:104DD4006F206C6F6E670073746570007361766525
:104DE40000616E616C6F675772697465280064694D
:104DF400676974616C577269746528006D696E28FF
:104E0400006D6178280070696E4D6F6465280074C8
:104E14006F6E6528006162732800616E616C6F6754
:104E240052656164280064656C617928006469676F
:104E34006974616C5265616428006D696C6C697396
:104E440028006E6F546F6E65280072616E642800CE
:104E54007072696E7428004C4F57004849474800E7
:104E6400494E505554004F5554505554004130004C
:104E74004131004132004133004134004135008169
:104E8400040C0087018E040D0026019C040400D349
:104E940000A1040400D800A6040800A609AF040574
:104EA40000E101B50404008421BA040B00A409C67E
:104EB4000406000516CD040C007101DA0407002273
:104EC40001E2040700DC01EA0405000201F0040623
:104ED40000F400F70403000000FB0404000100E4F4
:104EE4000305000000DF03040001000005050000C5
:104EF400000605060001000D0502000E0010050263
:104F0400000F00130502001000160502001100191D
:104F140005020012001C0502001300000000001727
:0C4F240020A91D971FB21FA41FF51F003D
:00000001FF
